{
	"FundTheCourse/Main.sol": {
		"FundTheCourse": {
			"abi": [
				{
					"inputs": [
						{
							"internalType": "address",
							"name": "_owner",
							"type": "address"
						},
						{
							"internalType": "uint256",
							"name": "_quota",
							"type": "uint256"
						}
					],
					"stateMutability": "nonpayable",
					"type": "constructor"
				},
				{
					"inputs": [],
					"name": "AmountExceeded",
					"type": "error"
				},
				{
					"inputs": [],
					"name": "CannotFundSelf",
					"type": "error"
				},
				{
					"inputs": [],
					"name": "InvalidIndex",
					"type": "error"
				},
				{
					"inputs": [],
					"name": "amountQuota",
					"outputs": [
						{
							"internalType": "uint256",
							"name": "",
							"type": "uint256"
						}
					],
					"stateMutability": "view",
					"type": "function"
				},
				{
					"inputs": [
						{
							"internalType": "address",
							"name": "_receiver",
							"type": "address"
						},
						{
							"internalType": "string",
							"name": "_courseName",
							"type": "string"
						}
					],
					"name": "createFund",
					"outputs": [],
					"stateMutability": "payable",
					"type": "function"
				},
				{
					"inputs": [],
					"name": "fundingOwner",
					"outputs": [
						{
							"internalType": "address",
							"name": "",
							"type": "address"
						}
					],
					"stateMutability": "view",
					"type": "function"
				},
				{
					"inputs": [
						{
							"internalType": "address",
							"name": "",
							"type": "address"
						},
						{
							"internalType": "uint256",
							"name": "",
							"type": "uint256"
						}
					],
					"name": "fundsByReceiver",
					"outputs": [
						{
							"internalType": "string",
							"name": "courseName",
							"type": "string"
						},
						{
							"internalType": "address",
							"name": "receiver",
							"type": "address"
						},
						{
							"internalType": "uint256",
							"name": "amountFunded",
							"type": "uint256"
						},
						{
							"internalType": "address",
							"name": "funder",
							"type": "address"
						}
					],
					"stateMutability": "view",
					"type": "function"
				},
				{
					"inputs": [
						{
							"internalType": "address",
							"name": "_receiver",
							"type": "address"
						},
						{
							"internalType": "uint256",
							"name": "index",
							"type": "uint256"
						}
					],
					"name": "getFundDetails",
					"outputs": [
						{
							"components": [
								{
									"internalType": "string",
									"name": "courseName",
									"type": "string"
								},
								{
									"internalType": "address",
									"name": "receiver",
									"type": "address"
								},
								{
									"internalType": "uint256",
									"name": "amountFunded",
									"type": "uint256"
								},
								{
									"internalType": "address",
									"name": "funder",
									"type": "address"
								}
							],
							"internalType": "struct FundTheCourse.CourseFund",
							"name": "",
							"type": "tuple"
						}
					],
					"stateMutability": "view",
					"type": "function"
				},
				{
					"inputs": [
						{
							"internalType": "address",
							"name": "_receiver",
							"type": "address"
						}
					],
					"name": "getTotalFundsByReceiver",
					"outputs": [
						{
							"internalType": "uint256",
							"name": "total",
							"type": "uint256"
						}
					],
					"stateMutability": "view",
					"type": "function"
				}
			],
			"devdoc": {
				"kind": "dev",
				"methods": {},
				"version": 1
			},
			"evm": {
				"assembly": "    /* \"FundTheCourse/Main.sol\":136:1653  contract FundTheCourse {... */\n  mstore(0x40, 0x80)\n    /* \"FundTheCourse/Main.sol\":380:495  constructor(address _owner, uint256 _quota) {... */\n  callvalue\n  dup1\n  iszero\n  tag_1\n  jumpi\n  0x00\n  dup1\n  revert\ntag_1:\n  pop\n  mload(0x40)\n  sub(codesize, bytecodeSize)\n  dup1\n  bytecodeSize\n  dup4\n  codecopy\n  dup2\n  dup2\n  add\n  0x40\n  mstore\n  dup2\n  add\n  swap1\n  tag_2\n  swap2\n  swap1\n  tag_3\n  jump\t// in\ntag_2:\n    /* \"FundTheCourse/Main.sol\":450:456  _owner */\n  dup2\n    /* \"FundTheCourse/Main.sol\":435:447  fundingOwner */\n  0x01\n  0x00\n    /* \"FundTheCourse/Main.sol\":435:456  fundingOwner = _owner */\n  0x0100\n  exp\n  dup2\n  sload\n  dup2\n  0xffffffffffffffffffffffffffffffffffffffff\n  mul\n  not\n  and\n  swap1\n  dup4\n  0xffffffffffffffffffffffffffffffffffffffff\n  and\n  mul\n  or\n  swap1\n  sstore\n  pop\n    /* \"FundTheCourse/Main.sol\":481:487  _quota */\n  dup1\n    /* \"FundTheCourse/Main.sol\":467:478  amountQuota */\n  0x00\n    /* \"FundTheCourse/Main.sol\":467:487  amountQuota = _quota */\n  dup2\n  swap1\n  sstore\n  pop\n    /* \"FundTheCourse/Main.sol\":380:495  constructor(address _owner, uint256 _quota) {... */\n  pop\n  pop\n    /* \"FundTheCourse/Main.sol\":136:1653  contract FundTheCourse {... */\n  jump(tag_6)\n    /* \"#utility.yul\":88:205   */\ntag_8:\n    /* \"#utility.yul\":197:198   */\n  0x00\n    /* \"#utility.yul\":194:195   */\n  dup1\n    /* \"#utility.yul\":187:199   */\n  revert\n    /* \"#utility.yul\":334:460   */\ntag_10:\n    /* \"#utility.yul\":371:378   */\n  0x00\n    /* \"#utility.yul\":411:453   */\n  0xffffffffffffffffffffffffffffffffffffffff\n    /* \"#utility.yul\":404:409   */\n  dup3\n    /* \"#utility.yul\":400:454   */\n  and\n    /* \"#utility.yul\":389:454   */\n  swap1\n  pop\n    /* \"#utility.yul\":334:460   */\n  swap2\n  swap1\n  pop\n  jump\t// out\n    /* \"#utility.yul\":466:562   */\ntag_11:\n    /* \"#utility.yul\":503:510   */\n  0x00\n    /* \"#utility.yul\":532:556   */\n  tag_23\n    /* \"#utility.yul\":550:555   */\n  dup3\n    /* \"#utility.yul\":532:556   */\n  tag_10\n  jump\t// in\ntag_23:\n    /* \"#utility.yul\":521:556   */\n  swap1\n  pop\n    /* \"#utility.yul\":466:562   */\n  swap2\n  swap1\n  pop\n  jump\t// out\n    /* \"#utility.yul\":568:690   */\ntag_12:\n    /* \"#utility.yul\":641:665   */\n  tag_25\n    /* \"#utility.yul\":659:664   */\n  dup2\n    /* \"#utility.yul\":641:665   */\n  tag_11\n  jump\t// in\ntag_25:\n    /* \"#utility.yul\":634:639   */\n  dup2\n    /* \"#utility.yul\":631:666   */\n  eq\n    /* \"#utility.yul\":621:684   */\n  tag_26\n  jumpi\n    /* \"#utility.yul\":680:681   */\n  0x00\n    /* \"#utility.yul\":677:678   */\n  dup1\n    /* \"#utility.yul\":670:682   */\n  revert\n    /* \"#utility.yul\":621:684   */\ntag_26:\n    /* \"#utility.yul\":568:690   */\n  pop\n  jump\t// out\n    /* \"#utility.yul\":696:839   */\ntag_13:\n    /* \"#utility.yul\":753:758   */\n  0x00\n    /* \"#utility.yul\":784:790   */\n  dup2\n    /* \"#utility.yul\":778:791   */\n  mload\n    /* \"#utility.yul\":769:791   */\n  swap1\n  pop\n    /* \"#utility.yul\":800:833   */\n  tag_28\n    /* \"#utility.yul\":827:832   */\n  dup2\n    /* \"#utility.yul\":800:833   */\n  tag_12\n  jump\t// in\ntag_28:\n    /* \"#utility.yul\":696:839   */\n  swap3\n  swap2\n  pop\n  pop\n  jump\t// out\n    /* \"#utility.yul\":845:922   */\ntag_14:\n    /* \"#utility.yul\":882:889   */\n  0x00\n    /* \"#utility.yul\":911:916   */\n  dup2\n    /* \"#utility.yul\":900:916   */\n  swap1\n  pop\n    /* \"#utility.yul\":845:922   */\n  swap2\n  swap1\n  pop\n  jump\t// out\n    /* \"#utility.yul\":928:1050   */\ntag_15:\n    /* \"#utility.yul\":1001:1025   */\n  tag_31\n    /* \"#utility.yul\":1019:1024   */\n  dup2\n    /* \"#utility.yul\":1001:1025   */\n  tag_14\n  jump\t// in\ntag_31:\n    /* \"#utility.yul\":994:999   */\n  dup2\n    /* \"#utility.yul\":991:1026   */\n  eq\n    /* \"#utility.yul\":981:1044   */\n  tag_32\n  jumpi\n    /* \"#utility.yul\":1040:1041   */\n  0x00\n    /* \"#utility.yul\":1037:1038   */\n  dup1\n    /* \"#utility.yul\":1030:1042   */\n  revert\n    /* \"#utility.yul\":981:1044   */\ntag_32:\n    /* \"#utility.yul\":928:1050   */\n  pop\n  jump\t// out\n    /* \"#utility.yul\":1056:1199   */\ntag_16:\n    /* \"#utility.yul\":1113:1118   */\n  0x00\n    /* \"#utility.yul\":1144:1150   */\n  dup2\n    /* \"#utility.yul\":1138:1151   */\n  mload\n    /* \"#utility.yul\":1129:1151   */\n  swap1\n  pop\n    /* \"#utility.yul\":1160:1193   */\n  tag_34\n    /* \"#utility.yul\":1187:1192   */\n  dup2\n    /* \"#utility.yul\":1160:1193   */\n  tag_15\n  jump\t// in\ntag_34:\n    /* \"#utility.yul\":1056:1199   */\n  swap3\n  swap2\n  pop\n  pop\n  jump\t// out\n    /* \"#utility.yul\":1205:1712   */\ntag_3:\n    /* \"#utility.yul\":1284:1290   */\n  0x00\n    /* \"#utility.yul\":1292:1298   */\n  dup1\n    /* \"#utility.yul\":1341:1343   */\n  0x40\n    /* \"#utility.yul\":1329:1338   */\n  dup4\n    /* \"#utility.yul\":1320:1327   */\n  dup6\n    /* \"#utility.yul\":1316:1339   */\n  sub\n    /* \"#utility.yul\":1312:1344   */\n  slt\n    /* \"#utility.yul\":1309:1428   */\n  iszero\n  tag_36\n  jumpi\n    /* \"#utility.yul\":1347:1426   */\n  tag_37\n  tag_8\n  jump\t// in\ntag_37:\n    /* \"#utility.yul\":1309:1428   */\ntag_36:\n    /* \"#utility.yul\":1467:1468   */\n  0x00\n    /* \"#utility.yul\":1492:1556   */\n  tag_38\n    /* \"#utility.yul\":1548:1555   */\n  dup6\n    /* \"#utility.yul\":1539:1545   */\n  dup3\n    /* \"#utility.yul\":1528:1537   */\n  dup7\n    /* \"#utility.yul\":1524:1546   */\n  add\n    /* \"#utility.yul\":1492:1556   */\n  tag_13\n  jump\t// in\ntag_38:\n    /* \"#utility.yul\":1482:1556   */\n  swap3\n  pop\n    /* \"#utility.yul\":1438:1566   */\n  pop\n    /* \"#utility.yul\":1605:1607   */\n  0x20\n    /* \"#utility.yul\":1631:1695   */\n  tag_39\n    /* \"#utility.yul\":1687:1694   */\n  dup6\n    /* \"#utility.yul\":1678:1684   */\n  dup3\n    /* \"#utility.yul\":1667:1676   */\n  dup7\n    /* \"#utility.yul\":1663:1685   */\n  add\n    /* \"#utility.yul\":1631:1695   */\n  tag_16\n  jump\t// in\ntag_39:\n    /* \"#utility.yul\":1621:1695   */\n  swap2\n  pop\n    /* \"#utility.yul\":1576:1705   */\n  pop\n    /* \"#utility.yul\":1205:1712   */\n  swap3\n  pop\n  swap3\n  swap1\n  pop\n  jump\t// out\n    /* \"FundTheCourse/Main.sol\":136:1653  contract FundTheCourse {... */\ntag_6:\n  dataSize(sub_0)\n  dup1\n  dataOffset(sub_0)\n  0x00\n  codecopy\n  0x00\n  return\nstop\n\nsub_0: assembly {\n        /* \"FundTheCourse/Main.sol\":136:1653  contract FundTheCourse {... */\n      mstore(0x40, 0x80)\n      jumpi(tag_1, lt(calldatasize, 0x04))\n      shr(0xe0, calldataload(0x00))\n      dup1\n      0x0400ebce\n      eq\n      tag_2\n      jumpi\n      dup1\n      0x05ded61e\n      eq\n      tag_3\n      jumpi\n      dup1\n      0x3d65ab73\n      eq\n      tag_4\n      jumpi\n      dup1\n      0x6221f9b3\n      eq\n      tag_5\n      jumpi\n      dup1\n      0x66d55c46\n      eq\n      tag_6\n      jumpi\n      dup1\n      0xe4b96982\n      eq\n      tag_7\n      jumpi\n    tag_1:\n      0x00\n      dup1\n      revert\n        /* \"FundTheCourse/Main.sol\":503:558  mapping(address => CourseFund[]) public fundsByReceiver */\n    tag_2:\n      callvalue\n      dup1\n      iszero\n      tag_8\n      jumpi\n      0x00\n      dup1\n      revert\n    tag_8:\n      pop\n      tag_9\n      0x04\n      dup1\n      calldatasize\n      sub\n      dup2\n      add\n      swap1\n      tag_10\n      swap2\n      swap1\n      tag_11\n      jump\t// in\n    tag_10:\n      tag_12\n      jump\t// in\n    tag_9:\n      mload(0x40)\n      tag_13\n      swap5\n      swap4\n      swap3\n      swap2\n      swap1\n      tag_14\n      jump\t// in\n    tag_13:\n      mload(0x40)\n      dup1\n      swap2\n      sub\n      swap1\n      return\n        /* \"FundTheCourse/Main.sol\":311:337  uint256 public amountQuota */\n    tag_3:\n      callvalue\n      dup1\n      iszero\n      tag_15\n      jumpi\n      0x00\n      dup1\n      revert\n    tag_15:\n      pop\n      tag_16\n      tag_17\n      jump\t// in\n    tag_16:\n      mload(0x40)\n      tag_18\n      swap2\n      swap1\n      tag_19\n      jump\t// in\n    tag_18:\n      mload(0x40)\n      dup1\n      swap2\n      sub\n      swap1\n      return\n        /* \"FundTheCourse/Main.sol\":344:371  address public fundingOwner */\n    tag_4:\n      callvalue\n      dup1\n      iszero\n      tag_20\n      jumpi\n      0x00\n      dup1\n      revert\n    tag_20:\n      pop\n      tag_21\n      tag_22\n      jump\t// in\n    tag_21:\n      mload(0x40)\n      tag_23\n      swap2\n      swap1\n      tag_24\n      jump\t// in\n    tag_23:\n      mload(0x40)\n      dup1\n      swap2\n      sub\n      swap1\n      return\n        /* \"FundTheCourse/Main.sol\":1129:1368  function getFundDetails(address _receiver, uint256 index) external view returns (CourseFund memory) {... */\n    tag_5:\n      callvalue\n      dup1\n      iszero\n      tag_25\n      jumpi\n      0x00\n      dup1\n      revert\n    tag_25:\n      pop\n      tag_26\n      0x04\n      dup1\n      calldatasize\n      sub\n      dup2\n      add\n      swap1\n      tag_27\n      swap2\n      swap1\n      tag_11\n      jump\t// in\n    tag_27:\n      tag_28\n      jump\t// in\n    tag_26:\n      mload(0x40)\n      tag_29\n      swap2\n      swap1\n      tag_30\n      jump\t// in\n    tag_29:\n      mload(0x40)\n      dup1\n      swap2\n      sub\n      swap1\n      return\n        /* \"FundTheCourse/Main.sol\":1376:1650  function getTotalFundsByReceiver(address _receiver) external view returns (uint256 total) {... */\n    tag_6:\n      callvalue\n      dup1\n      iszero\n      tag_31\n      jumpi\n      0x00\n      dup1\n      revert\n    tag_31:\n      pop\n      tag_32\n      0x04\n      dup1\n      calldatasize\n      sub\n      dup2\n      add\n      swap1\n      tag_33\n      swap2\n      swap1\n      tag_34\n      jump\t// in\n    tag_33:\n      tag_35\n      jump\t// in\n    tag_32:\n      mload(0x40)\n      tag_36\n      swap2\n      swap1\n      tag_19\n      jump\t// in\n    tag_36:\n      mload(0x40)\n      dup1\n      swap2\n      sub\n      swap1\n      return\n        /* \"FundTheCourse/Main.sol\":567:1121  function createFund(address _receiver, string calldata _courseName) external payable {... */\n    tag_7:\n      tag_37\n      0x04\n      dup1\n      calldatasize\n      sub\n      dup2\n      add\n      swap1\n      tag_38\n      swap2\n      swap1\n      tag_39\n      jump\t// in\n    tag_38:\n      tag_40\n      jump\t// in\n    tag_37:\n      stop\n        /* \"FundTheCourse/Main.sol\":503:558  mapping(address => CourseFund[]) public fundsByReceiver */\n    tag_12:\n      mstore(0x20, 0x02)\n      dup2\n      0x00\n      mstore\n      keccak256(0x00, 0x40)\n      dup2\n      dup2\n      sload\n      dup2\n      lt\n      tag_41\n      jumpi\n      0x00\n      dup1\n      revert\n    tag_41:\n      swap1\n      0x00\n      mstore\n      keccak256(0x00, 0x20)\n      swap1\n      0x04\n      mul\n      add\n      0x00\n      swap2\n      pop\n      swap2\n      pop\n      pop\n      dup1\n      0x00\n      add\n      dup1\n      sload\n      tag_43\n      swap1\n      tag_44\n      jump\t// in\n    tag_43:\n      dup1\n      0x1f\n      add\n      0x20\n      dup1\n      swap2\n      div\n      mul\n      0x20\n      add\n      mload(0x40)\n      swap1\n      dup2\n      add\n      0x40\n      mstore\n      dup1\n      swap3\n      swap2\n      swap1\n      dup2\n      dup2\n      mstore\n      0x20\n      add\n      dup3\n      dup1\n      sload\n      tag_45\n      swap1\n      tag_44\n      jump\t// in\n    tag_45:\n      dup1\n      iszero\n      tag_46\n      jumpi\n      dup1\n      0x1f\n      lt\n      tag_47\n      jumpi\n      0x0100\n      dup1\n      dup4\n      sload\n      div\n      mul\n      dup4\n      mstore\n      swap2\n      0x20\n      add\n      swap2\n      jump(tag_46)\n    tag_47:\n      dup3\n      add\n      swap2\n      swap1\n      0x00\n      mstore\n      keccak256(0x00, 0x20)\n      swap1\n    tag_48:\n      dup2\n      sload\n      dup2\n      mstore\n      swap1\n      0x01\n      add\n      swap1\n      0x20\n      add\n      dup1\n      dup4\n      gt\n      tag_48\n      jumpi\n      dup3\n      swap1\n      sub\n      0x1f\n      and\n      dup3\n      add\n      swap2\n    tag_46:\n      pop\n      pop\n      pop\n      pop\n      pop\n      swap1\n      dup1\n      0x01\n      add\n      0x00\n      swap1\n      sload\n      swap1\n      0x0100\n      exp\n      swap1\n      div\n      0xffffffffffffffffffffffffffffffffffffffff\n      and\n      swap1\n      dup1\n      0x02\n      add\n      sload\n      swap1\n      dup1\n      0x03\n      add\n      0x00\n      swap1\n      sload\n      swap1\n      0x0100\n      exp\n      swap1\n      div\n      0xffffffffffffffffffffffffffffffffffffffff\n      and\n      swap1\n      pop\n      dup5\n      jump\t// out\n        /* \"FundTheCourse/Main.sol\":311:337  uint256 public amountQuota */\n    tag_17:\n      sload(0x00)\n      dup2\n      jump\t// out\n        /* \"FundTheCourse/Main.sol\":344:371  address public fundingOwner */\n    tag_22:\n      0x01\n      0x00\n      swap1\n      sload\n      swap1\n      0x0100\n      exp\n      swap1\n      div\n      0xffffffffffffffffffffffffffffffffffffffff\n      and\n      dup2\n      jump\t// out\n        /* \"FundTheCourse/Main.sol\":1129:1368  function getFundDetails(address _receiver, uint256 index) external view returns (CourseFund memory) {... */\n    tag_28:\n        /* \"FundTheCourse/Main.sol\":1210:1227  CourseFund memory */\n      tag_49\n      tag_50\n      jump\t// in\n    tag_49:\n        /* \"FundTheCourse/Main.sol\":1253:1268  fundsByReceiver */\n      0x02\n        /* \"FundTheCourse/Main.sol\":1253:1279  fundsByReceiver[_receiver] */\n      0x00\n        /* \"FundTheCourse/Main.sol\":1269:1278  _receiver */\n      dup5\n        /* \"FundTheCourse/Main.sol\":1253:1279  fundsByReceiver[_receiver] */\n      0xffffffffffffffffffffffffffffffffffffffff\n      and\n      0xffffffffffffffffffffffffffffffffffffffff\n      and\n      dup2\n      mstore\n      0x20\n      add\n      swap1\n      dup2\n      mstore\n      0x20\n      add\n      0x00\n      keccak256\n        /* \"FundTheCourse/Main.sol\":1253:1286  fundsByReceiver[_receiver].length */\n      dup1\n      sload\n      swap1\n      pop\n        /* \"FundTheCourse/Main.sol\":1244:1249  index */\n      dup3\n        /* \"FundTheCourse/Main.sol\":1244:1286  index >= fundsByReceiver[_receiver].length */\n      lt\n        /* \"FundTheCourse/Main.sol\":1240:1309  if (index >= fundsByReceiver[_receiver].length) revert InvalidIndex() */\n      tag_52\n      jumpi\n        /* \"FundTheCourse/Main.sol\":1295:1309  InvalidIndex() */\n      mload(0x40)\n      0x63df817100000000000000000000000000000000000000000000000000000000\n      dup2\n      mstore\n      0x04\n      add\n      mload(0x40)\n      dup1\n      swap2\n      sub\n      swap1\n      revert\n        /* \"FundTheCourse/Main.sol\":1240:1309  if (index >= fundsByReceiver[_receiver].length) revert InvalidIndex() */\n    tag_52:\n        /* \"FundTheCourse/Main.sol\":1327:1342  fundsByReceiver */\n      0x02\n        /* \"FundTheCourse/Main.sol\":1327:1353  fundsByReceiver[_receiver] */\n      0x00\n        /* \"FundTheCourse/Main.sol\":1343:1352  _receiver */\n      dup5\n        /* \"FundTheCourse/Main.sol\":1327:1353  fundsByReceiver[_receiver] */\n      0xffffffffffffffffffffffffffffffffffffffff\n      and\n      0xffffffffffffffffffffffffffffffffffffffff\n      and\n      dup2\n      mstore\n      0x20\n      add\n      swap1\n      dup2\n      mstore\n      0x20\n      add\n      0x00\n      keccak256\n        /* \"FundTheCourse/Main.sol\":1354:1359  index */\n      dup3\n        /* \"FundTheCourse/Main.sol\":1327:1360  fundsByReceiver[_receiver][index] */\n      dup2\n      sload\n      dup2\n      lt\n      tag_53\n      jumpi\n      tag_54\n      tag_55\n      jump\t// in\n    tag_54:\n    tag_53:\n      swap1\n      0x00\n      mstore\n      keccak256(0x00, 0x20)\n      swap1\n      0x04\n      mul\n      add\n        /* \"FundTheCourse/Main.sol\":1320:1360  return fundsByReceiver[_receiver][index] */\n      mload(0x40)\n      dup1\n      0x80\n      add\n      0x40\n      mstore\n      swap1\n      dup2\n      0x00\n      dup3\n      add\n      dup1\n      sload\n      tag_57\n      swap1\n      tag_44\n      jump\t// in\n    tag_57:\n      dup1\n      0x1f\n      add\n      0x20\n      dup1\n      swap2\n      div\n      mul\n      0x20\n      add\n      mload(0x40)\n      swap1\n      dup2\n      add\n      0x40\n      mstore\n      dup1\n      swap3\n      swap2\n      swap1\n      dup2\n      dup2\n      mstore\n      0x20\n      add\n      dup3\n      dup1\n      sload\n      tag_58\n      swap1\n      tag_44\n      jump\t// in\n    tag_58:\n      dup1\n      iszero\n      tag_59\n      jumpi\n      dup1\n      0x1f\n      lt\n      tag_60\n      jumpi\n      0x0100\n      dup1\n      dup4\n      sload\n      div\n      mul\n      dup4\n      mstore\n      swap2\n      0x20\n      add\n      swap2\n      jump(tag_59)\n    tag_60:\n      dup3\n      add\n      swap2\n      swap1\n      0x00\n      mstore\n      keccak256(0x00, 0x20)\n      swap1\n    tag_61:\n      dup2\n      sload\n      dup2\n      mstore\n      swap1\n      0x01\n      add\n      swap1\n      0x20\n      add\n      dup1\n      dup4\n      gt\n      tag_61\n      jumpi\n      dup3\n      swap1\n      sub\n      0x1f\n      and\n      dup3\n      add\n      swap2\n    tag_59:\n      pop\n      pop\n      pop\n      pop\n      pop\n      dup2\n      mstore\n      0x20\n      add\n      0x01\n      dup3\n      add\n      0x00\n      swap1\n      sload\n      swap1\n      0x0100\n      exp\n      swap1\n      div\n      0xffffffffffffffffffffffffffffffffffffffff\n      and\n      0xffffffffffffffffffffffffffffffffffffffff\n      and\n      0xffffffffffffffffffffffffffffffffffffffff\n      and\n      dup2\n      mstore\n      0x20\n      add\n      0x02\n      dup3\n      add\n      sload\n      dup2\n      mstore\n      0x20\n      add\n      0x03\n      dup3\n      add\n      0x00\n      swap1\n      sload\n      swap1\n      0x0100\n      exp\n      swap1\n      div\n      0xffffffffffffffffffffffffffffffffffffffff\n      and\n      0xffffffffffffffffffffffffffffffffffffffff\n      and\n      0xffffffffffffffffffffffffffffffffffffffff\n      and\n      dup2\n      mstore\n      pop\n      pop\n      swap1\n      pop\n        /* \"FundTheCourse/Main.sol\":1129:1368  function getFundDetails(address _receiver, uint256 index) external view returns (CourseFund memory) {... */\n      swap3\n      swap2\n      pop\n      pop\n      jump\t// out\n        /* \"FundTheCourse/Main.sol\":1376:1650  function getTotalFundsByReceiver(address _receiver) external view returns (uint256 total) {... */\n    tag_35:\n        /* \"FundTheCourse/Main.sol\":1451:1464  uint256 total */\n      0x00\n        /* \"FundTheCourse/Main.sol\":1477:1503  CourseFund[] storage funds */\n      dup1\n        /* \"FundTheCourse/Main.sol\":1506:1521  fundsByReceiver */\n      0x02\n        /* \"FundTheCourse/Main.sol\":1506:1532  fundsByReceiver[_receiver] */\n      0x00\n        /* \"FundTheCourse/Main.sol\":1522:1531  _receiver */\n      dup5\n        /* \"FundTheCourse/Main.sol\":1506:1532  fundsByReceiver[_receiver] */\n      0xffffffffffffffffffffffffffffffffffffffff\n      and\n      0xffffffffffffffffffffffffffffffffffffffff\n      and\n      dup2\n      mstore\n      0x20\n      add\n      swap1\n      dup2\n      mstore\n      0x20\n      add\n      0x00\n      keccak256\n        /* \"FundTheCourse/Main.sol\":1477:1532  CourseFund[] storage funds = fundsByReceiver[_receiver] */\n      swap1\n      pop\n        /* \"FundTheCourse/Main.sol\":1548:1557  uint256 i */\n      0x00\n        /* \"FundTheCourse/Main.sol\":1543:1643  for (uint256 i = 0; i < funds.length; i++) {... */\n    tag_63:\n        /* \"FundTheCourse/Main.sol\":1567:1572  funds */\n      dup2\n        /* \"FundTheCourse/Main.sol\":1567:1579  funds.length */\n      dup1\n      sload\n      swap1\n      pop\n        /* \"FundTheCourse/Main.sol\":1563:1564  i */\n      dup2\n        /* \"FundTheCourse/Main.sol\":1563:1579  i < funds.length */\n      lt\n        /* \"FundTheCourse/Main.sol\":1543:1643  for (uint256 i = 0; i < funds.length; i++) {... */\n      iszero\n      tag_64\n      jumpi\n        /* \"FundTheCourse/Main.sol\":1610:1615  funds */\n      dup2\n        /* \"FundTheCourse/Main.sol\":1616:1617  i */\n      dup2\n        /* \"FundTheCourse/Main.sol\":1610:1618  funds[i] */\n      dup2\n      sload\n      dup2\n      lt\n      tag_66\n      jumpi\n      tag_67\n      tag_55\n      jump\t// in\n    tag_67:\n    tag_66:\n      swap1\n      0x00\n      mstore\n      keccak256(0x00, 0x20)\n      swap1\n      0x04\n      mul\n      add\n        /* \"FundTheCourse/Main.sol\":1610:1631  funds[i].amountFunded */\n      0x02\n      add\n      sload\n        /* \"FundTheCourse/Main.sol\":1601:1631  total += funds[i].amountFunded */\n      dup4\n      tag_69\n      swap2\n      swap1\n      tag_70\n      jump\t// in\n    tag_69:\n      swap3\n      pop\n        /* \"FundTheCourse/Main.sol\":1581:1584  i++ */\n      dup1\n      dup1\n      tag_71\n      swap1\n      tag_72\n      jump\t// in\n    tag_71:\n      swap2\n      pop\n      pop\n        /* \"FundTheCourse/Main.sol\":1543:1643  for (uint256 i = 0; i < funds.length; i++) {... */\n      jump(tag_63)\n    tag_64:\n      pop\n        /* \"FundTheCourse/Main.sol\":1466:1650  {... */\n      pop\n        /* \"FundTheCourse/Main.sol\":1376:1650  function getTotalFundsByReceiver(address _receiver) external view returns (uint256 total) {... */\n      swap2\n      swap1\n      pop\n      jump\t// out\n        /* \"FundTheCourse/Main.sol\":567:1121  function createFund(address _receiver, string calldata _courseName) external payable {... */\n    tag_40:\n        /* \"FundTheCourse/Main.sol\":681:690  _receiver */\n      dup3\n        /* \"FundTheCourse/Main.sol\":667:690  msg.sender == _receiver */\n      0xffffffffffffffffffffffffffffffffffffffff\n      and\n        /* \"FundTheCourse/Main.sol\":667:677  msg.sender */\n      caller\n        /* \"FundTheCourse/Main.sol\":667:690  msg.sender == _receiver */\n      0xffffffffffffffffffffffffffffffffffffffff\n      and\n      sub\n        /* \"FundTheCourse/Main.sol\":663:715  if (msg.sender == _receiver) revert CannotFundSelf() */\n      tag_74\n      jumpi\n        /* \"FundTheCourse/Main.sol\":699:715  CannotFundSelf() */\n      mload(0x40)\n      0x9f513f6e00000000000000000000000000000000000000000000000000000000\n      dup2\n      mstore\n      0x04\n      add\n      mload(0x40)\n      dup1\n      swap2\n      sub\n      swap1\n      revert\n        /* \"FundTheCourse/Main.sol\":663:715  if (msg.sender == _receiver) revert CannotFundSelf() */\n    tag_74:\n        /* \"FundTheCourse/Main.sol\":766:777  amountQuota */\n      sload(0x00)\n        /* \"FundTheCourse/Main.sol\":754:763  msg.value */\n      callvalue\n        /* \"FundTheCourse/Main.sol\":730:751  address(this).balance */\n      selfbalance\n        /* \"FundTheCourse/Main.sol\":730:763  address(this).balance + msg.value */\n      tag_75\n      swap2\n      swap1\n      tag_70\n      jump\t// in\n    tag_75:\n        /* \"FundTheCourse/Main.sol\":730:777  address(this).balance + msg.value > amountQuota */\n      gt\n        /* \"FundTheCourse/Main.sol\":726:802  if (address(this).balance + msg.value > amountQuota) revert AmountExceeded() */\n      iszero\n      tag_76\n      jumpi\n        /* \"FundTheCourse/Main.sol\":786:802  AmountExceeded() */\n      mload(0x40)\n      0x6e04825300000000000000000000000000000000000000000000000000000000\n      dup2\n      mstore\n      0x04\n      add\n      mload(0x40)\n      dup1\n      swap2\n      sub\n      swap1\n      revert\n        /* \"FundTheCourse/Main.sol\":726:802  if (address(this).balance + msg.value > amountQuota) revert AmountExceeded() */\n    tag_76:\n        /* \"FundTheCourse/Main.sol\":815:840  CourseFund memory newFund */\n      0x00\n        /* \"FundTheCourse/Main.sol\":843:1009  CourseFund({... */\n      mload(0x40)\n      dup1\n      0x80\n      add\n      0x40\n      mstore\n      dup1\n        /* \"FundTheCourse/Main.sol\":881:892  _courseName */\n      dup5\n      dup5\n        /* \"FundTheCourse/Main.sol\":843:1009  CourseFund({... */\n      dup1\n      dup1\n      0x1f\n      add\n      0x20\n      dup1\n      swap2\n      div\n      mul\n      0x20\n      add\n      mload(0x40)\n      swap1\n      dup2\n      add\n      0x40\n      mstore\n      dup1\n      swap4\n      swap3\n      swap2\n      swap1\n      dup2\n      dup2\n      mstore\n      0x20\n      add\n      dup4\n      dup4\n      dup1\n      dup3\n      dup5\n      calldatacopy\n      0x00\n      dup2\n      dup5\n      add\n      mstore\n      not(0x1f)\n      0x1f\n      dup3\n      add\n      and\n      swap1\n      pop\n      dup1\n      dup4\n      add\n      swap3\n      pop\n      pop\n      pop\n      pop\n      pop\n      pop\n      pop\n      dup2\n      mstore\n      0x20\n      add\n        /* \"FundTheCourse/Main.sol\":917:926  _receiver */\n      dup6\n        /* \"FundTheCourse/Main.sol\":843:1009  CourseFund({... */\n      0xffffffffffffffffffffffffffffffffffffffff\n      and\n      dup2\n      mstore\n      0x20\n      add\n        /* \"FundTheCourse/Main.sol\":955:964  msg.value */\n      callvalue\n        /* \"FundTheCourse/Main.sol\":843:1009  CourseFund({... */\n      dup2\n      mstore\n      0x20\n      add\n        /* \"FundTheCourse/Main.sol\":987:997  msg.sender */\n      caller\n        /* \"FundTheCourse/Main.sol\":843:1009  CourseFund({... */\n      0xffffffffffffffffffffffffffffffffffffffff\n      and\n      dup2\n      mstore\n      pop\n        /* \"FundTheCourse/Main.sol\":815:1009  CourseFund memory newFund = CourseFund({... */\n      swap1\n      pop\n        /* \"FundTheCourse/Main.sol\":1022:1037  fundsByReceiver */\n      0x02\n        /* \"FundTheCourse/Main.sol\":1022:1048  fundsByReceiver[_receiver] */\n      0x00\n        /* \"FundTheCourse/Main.sol\":1038:1047  _receiver */\n      dup6\n        /* \"FundTheCourse/Main.sol\":1022:1048  fundsByReceiver[_receiver] */\n      0xffffffffffffffffffffffffffffffffffffffff\n      and\n      0xffffffffffffffffffffffffffffffffffffffff\n      and\n      dup2\n      mstore\n      0x20\n      add\n      swap1\n      dup2\n      mstore\n      0x20\n      add\n      0x00\n      keccak256\n        /* \"FundTheCourse/Main.sol\":1054:1061  newFund */\n      dup2\n        /* \"FundTheCourse/Main.sol\":1022:1062  fundsByReceiver[_receiver].push(newFund) */\n      swap1\n      dup1\n      0x01\n      dup2\n      sload\n      add\n      dup1\n      dup3\n      sstore\n      dup1\n      swap2\n      pop\n      pop\n      0x01\n      swap1\n      sub\n      swap1\n      0x00\n      mstore\n      keccak256(0x00, 0x20)\n      swap1\n      0x04\n      mul\n      add\n      0x00\n      swap1\n      swap2\n      swap1\n      swap2\n      swap1\n      swap2\n      pop\n      0x00\n      dup3\n      add\n      mload\n      dup2\n      0x00\n      add\n      swap1\n      dup2\n      tag_78\n      swap2\n      swap1\n      tag_79\n      jump\t// in\n    tag_78:\n      pop\n      0x20\n      dup3\n      add\n      mload\n      dup2\n      0x01\n      add\n      exp(0x0100, 0x00)\n      dup2\n      sload\n      dup2\n      0xffffffffffffffffffffffffffffffffffffffff\n      mul\n      not\n      and\n      swap1\n      dup4\n      0xffffffffffffffffffffffffffffffffffffffff\n      and\n      mul\n      or\n      swap1\n      sstore\n      pop\n      0x40\n      dup3\n      add\n      mload\n      dup2\n      0x02\n      add\n      sstore\n      0x60\n      dup3\n      add\n      mload\n      dup2\n      0x03\n      add\n      exp(0x0100, 0x00)\n      dup2\n      sload\n      dup2\n      0xffffffffffffffffffffffffffffffffffffffff\n      mul\n      not\n      and\n      swap1\n      dup4\n      0xffffffffffffffffffffffffffffffffffffffff\n      and\n      mul\n      or\n      swap1\n      sstore\n      pop\n      pop\n      pop\n        /* \"FundTheCourse/Main.sol\":1083:1092  _receiver */\n      dup4\n        /* \"FundTheCourse/Main.sol\":1075:1102  payable(_receiver).transfer */\n      0xffffffffffffffffffffffffffffffffffffffff\n      and\n        /* \"FundTheCourse/Main.sol\":1075:1113  payable(_receiver).transfer(msg.value) */\n      0x08fc\n        /* \"FundTheCourse/Main.sol\":1103:1112  msg.value */\n      callvalue\n        /* \"FundTheCourse/Main.sol\":1075:1113  payable(_receiver).transfer(msg.value) */\n      swap1\n      dup2\n      iszero\n      mul\n      swap1\n      mload(0x40)\n      0x00\n      mload(0x40)\n      dup1\n      dup4\n      sub\n      dup2\n      dup6\n      dup9\n      dup9\n      call\n      swap4\n      pop\n      pop\n      pop\n      pop\n      iszero\n      dup1\n      iszero\n      tag_81\n      jumpi\n      returndatasize\n      0x00\n      dup1\n      returndatacopy\n      revert(0x00, returndatasize)\n    tag_81:\n      pop\n        /* \"FundTheCourse/Main.sol\":652:1121  {... */\n      pop\n        /* \"FundTheCourse/Main.sol\":567:1121  function createFund(address _receiver, string calldata _courseName) external payable {... */\n      pop\n      pop\n      pop\n      jump\t// out\n    tag_50:\n      mload(0x40)\n      dup1\n      0x80\n      add\n      0x40\n      mstore\n      dup1\n      0x60\n      dup2\n      mstore\n      0x20\n      add\n      and(0xffffffffffffffffffffffffffffffffffffffff, 0x00)\n      dup2\n      mstore\n      0x20\n      add\n      0x00\n      dup2\n      mstore\n      0x20\n      add\n      and(0xffffffffffffffffffffffffffffffffffffffff, 0x00)\n      dup2\n      mstore\n      pop\n      swap1\n      jump\t// out\n        /* \"#utility.yul\":88:205   */\n    tag_83:\n        /* \"#utility.yul\":197:198   */\n      0x00\n        /* \"#utility.yul\":194:195   */\n      dup1\n        /* \"#utility.yul\":187:199   */\n      revert\n        /* \"#utility.yul\":211:328   */\n    tag_84:\n        /* \"#utility.yul\":320:321   */\n      0x00\n        /* \"#utility.yul\":317:318   */\n      dup1\n        /* \"#utility.yul\":310:322   */\n      revert\n        /* \"#utility.yul\":334:460   */\n    tag_85:\n        /* \"#utility.yul\":371:378   */\n      0x00\n        /* \"#utility.yul\":411:453   */\n      0xffffffffffffffffffffffffffffffffffffffff\n        /* \"#utility.yul\":404:409   */\n      dup3\n        /* \"#utility.yul\":400:454   */\n      and\n        /* \"#utility.yul\":389:454   */\n      swap1\n      pop\n        /* \"#utility.yul\":334:460   */\n      swap2\n      swap1\n      pop\n      jump\t// out\n        /* \"#utility.yul\":466:562   */\n    tag_86:\n        /* \"#utility.yul\":503:510   */\n      0x00\n        /* \"#utility.yul\":532:556   */\n      tag_132\n        /* \"#utility.yul\":550:555   */\n      dup3\n        /* \"#utility.yul\":532:556   */\n      tag_85\n      jump\t// in\n    tag_132:\n        /* \"#utility.yul\":521:556   */\n      swap1\n      pop\n        /* \"#utility.yul\":466:562   */\n      swap2\n      swap1\n      pop\n      jump\t// out\n        /* \"#utility.yul\":568:690   */\n    tag_87:\n        /* \"#utility.yul\":641:665   */\n      tag_134\n        /* \"#utility.yul\":659:664   */\n      dup2\n        /* \"#utility.yul\":641:665   */\n      tag_86\n      jump\t// in\n    tag_134:\n        /* \"#utility.yul\":634:639   */\n      dup2\n        /* \"#utility.yul\":631:666   */\n      eq\n        /* \"#utility.yul\":621:684   */\n      tag_135\n      jumpi\n        /* \"#utility.yul\":680:681   */\n      0x00\n        /* \"#utility.yul\":677:678   */\n      dup1\n        /* \"#utility.yul\":670:682   */\n      revert\n        /* \"#utility.yul\":621:684   */\n    tag_135:\n        /* \"#utility.yul\":568:690   */\n      pop\n      jump\t// out\n        /* \"#utility.yul\":696:835   */\n    tag_88:\n        /* \"#utility.yul\":742:747   */\n      0x00\n        /* \"#utility.yul\":780:786   */\n      dup2\n        /* \"#utility.yul\":767:787   */\n      calldataload\n        /* \"#utility.yul\":758:787   */\n      swap1\n      pop\n        /* \"#utility.yul\":796:829   */\n      tag_137\n        /* \"#utility.yul\":823:828   */\n      dup2\n        /* \"#utility.yul\":796:829   */\n      tag_87\n      jump\t// in\n    tag_137:\n        /* \"#utility.yul\":696:835   */\n      swap3\n      swap2\n      pop\n      pop\n      jump\t// out\n        /* \"#utility.yul\":841:918   */\n    tag_89:\n        /* \"#utility.yul\":878:885   */\n      0x00\n        /* \"#utility.yul\":907:912   */\n      dup2\n        /* \"#utility.yul\":896:912   */\n      swap1\n      pop\n        /* \"#utility.yul\":841:918   */\n      swap2\n      swap1\n      pop\n      jump\t// out\n        /* \"#utility.yul\":924:1046   */\n    tag_90:\n        /* \"#utility.yul\":997:1021   */\n      tag_140\n        /* \"#utility.yul\":1015:1020   */\n      dup2\n        /* \"#utility.yul\":997:1021   */\n      tag_89\n      jump\t// in\n    tag_140:\n        /* \"#utility.yul\":990:995   */\n      dup2\n        /* \"#utility.yul\":987:1022   */\n      eq\n        /* \"#utility.yul\":977:1040   */\n      tag_141\n      jumpi\n        /* \"#utility.yul\":1036:1037   */\n      0x00\n        /* \"#utility.yul\":1033:1034   */\n      dup1\n        /* \"#utility.yul\":1026:1038   */\n      revert\n        /* \"#utility.yul\":977:1040   */\n    tag_141:\n        /* \"#utility.yul\":924:1046   */\n      pop\n      jump\t// out\n        /* \"#utility.yul\":1052:1191   */\n    tag_91:\n        /* \"#utility.yul\":1098:1103   */\n      0x00\n        /* \"#utility.yul\":1136:1142   */\n      dup2\n        /* \"#utility.yul\":1123:1143   */\n      calldataload\n        /* \"#utility.yul\":1114:1143   */\n      swap1\n      pop\n        /* \"#utility.yul\":1152:1185   */\n      tag_143\n        /* \"#utility.yul\":1179:1184   */\n      dup2\n        /* \"#utility.yul\":1152:1185   */\n      tag_90\n      jump\t// in\n    tag_143:\n        /* \"#utility.yul\":1052:1191   */\n      swap3\n      swap2\n      pop\n      pop\n      jump\t// out\n        /* \"#utility.yul\":1197:1671   */\n    tag_11:\n        /* \"#utility.yul\":1265:1271   */\n      0x00\n        /* \"#utility.yul\":1273:1279   */\n      dup1\n        /* \"#utility.yul\":1322:1324   */\n      0x40\n        /* \"#utility.yul\":1310:1319   */\n      dup4\n        /* \"#utility.yul\":1301:1308   */\n      dup6\n        /* \"#utility.yul\":1297:1320   */\n      sub\n        /* \"#utility.yul\":1293:1325   */\n      slt\n        /* \"#utility.yul\":1290:1409   */\n      iszero\n      tag_145\n      jumpi\n        /* \"#utility.yul\":1328:1407   */\n      tag_146\n      tag_83\n      jump\t// in\n    tag_146:\n        /* \"#utility.yul\":1290:1409   */\n    tag_145:\n        /* \"#utility.yul\":1448:1449   */\n      0x00\n        /* \"#utility.yul\":1473:1526   */\n      tag_147\n        /* \"#utility.yul\":1518:1525   */\n      dup6\n        /* \"#utility.yul\":1509:1515   */\n      dup3\n        /* \"#utility.yul\":1498:1507   */\n      dup7\n        /* \"#utility.yul\":1494:1516   */\n      add\n        /* \"#utility.yul\":1473:1526   */\n      tag_88\n      jump\t// in\n    tag_147:\n        /* \"#utility.yul\":1463:1526   */\n      swap3\n      pop\n        /* \"#utility.yul\":1419:1536   */\n      pop\n        /* \"#utility.yul\":1575:1577   */\n      0x20\n        /* \"#utility.yul\":1601:1654   */\n      tag_148\n        /* \"#utility.yul\":1646:1653   */\n      dup6\n        /* \"#utility.yul\":1637:1643   */\n      dup3\n        /* \"#utility.yul\":1626:1635   */\n      dup7\n        /* \"#utility.yul\":1622:1644   */\n      add\n        /* \"#utility.yul\":1601:1654   */\n      tag_91\n      jump\t// in\n    tag_148:\n        /* \"#utility.yul\":1591:1654   */\n      swap2\n      pop\n        /* \"#utility.yul\":1546:1664   */\n      pop\n        /* \"#utility.yul\":1197:1671   */\n      swap3\n      pop\n      swap3\n      swap1\n      pop\n      jump\t// out\n        /* \"#utility.yul\":1677:1776   */\n    tag_92:\n        /* \"#utility.yul\":1729:1735   */\n      0x00\n        /* \"#utility.yul\":1763:1768   */\n      dup2\n        /* \"#utility.yul\":1757:1769   */\n      mload\n        /* \"#utility.yul\":1747:1769   */\n      swap1\n      pop\n        /* \"#utility.yul\":1677:1776   */\n      swap2\n      swap1\n      pop\n      jump\t// out\n        /* \"#utility.yul\":1782:1951   */\n    tag_93:\n        /* \"#utility.yul\":1866:1877   */\n      0x00\n        /* \"#utility.yul\":1900:1906   */\n      dup3\n        /* \"#utility.yul\":1895:1898   */\n      dup3\n        /* \"#utility.yul\":1888:1907   */\n      mstore\n        /* \"#utility.yul\":1940:1944   */\n      0x20\n        /* \"#utility.yul\":1935:1938   */\n      dup3\n        /* \"#utility.yul\":1931:1945   */\n      add\n        /* \"#utility.yul\":1916:1945   */\n      swap1\n      pop\n        /* \"#utility.yul\":1782:1951   */\n      swap3\n      swap2\n      pop\n      pop\n      jump\t// out\n        /* \"#utility.yul\":1957:2203   */\n    tag_94:\n        /* \"#utility.yul\":2038:2039   */\n      0x00\n        /* \"#utility.yul\":2048:2161   */\n    tag_152:\n        /* \"#utility.yul\":2062:2068   */\n      dup4\n        /* \"#utility.yul\":2059:2060   */\n      dup2\n        /* \"#utility.yul\":2056:2069   */\n      lt\n        /* \"#utility.yul\":2048:2161   */\n      iszero\n      tag_154\n      jumpi\n        /* \"#utility.yul\":2147:2148   */\n      dup1\n        /* \"#utility.yul\":2142:2145   */\n      dup3\n        /* \"#utility.yul\":2138:2149   */\n      add\n        /* \"#utility.yul\":2132:2150   */\n      mload\n        /* \"#utility.yul\":2128:2129   */\n      dup2\n        /* \"#utility.yul\":2123:2126   */\n      dup5\n        /* \"#utility.yul\":2119:2130   */\n      add\n        /* \"#utility.yul\":2112:2151   */\n      mstore\n        /* \"#utility.yul\":2084:2086   */\n      0x20\n        /* \"#utility.yul\":2081:2082   */\n      dup2\n        /* \"#utility.yul\":2077:2087   */\n      add\n        /* \"#utility.yul\":2072:2087   */\n      swap1\n      pop\n        /* \"#utility.yul\":2048:2161   */\n      jump(tag_152)\n    tag_154:\n        /* \"#utility.yul\":2195:2196   */\n      0x00\n        /* \"#utility.yul\":2186:2192   */\n      dup5\n        /* \"#utility.yul\":2181:2184   */\n      dup5\n        /* \"#utility.yul\":2177:2193   */\n      add\n        /* \"#utility.yul\":2170:2197   */\n      mstore\n        /* \"#utility.yul\":2019:2203   */\n      pop\n        /* \"#utility.yul\":1957:2203   */\n      pop\n      pop\n      pop\n      jump\t// out\n        /* \"#utility.yul\":2209:2311   */\n    tag_95:\n        /* \"#utility.yul\":2250:2256   */\n      0x00\n        /* \"#utility.yul\":2301:2303   */\n      0x1f\n        /* \"#utility.yul\":2297:2304   */\n      not\n        /* \"#utility.yul\":2292:2294   */\n      0x1f\n        /* \"#utility.yul\":2285:2290   */\n      dup4\n        /* \"#utility.yul\":2281:2295   */\n      add\n        /* \"#utility.yul\":2277:2305   */\n      and\n        /* \"#utility.yul\":2267:2305   */\n      swap1\n      pop\n        /* \"#utility.yul\":2209:2311   */\n      swap2\n      swap1\n      pop\n      jump\t// out\n        /* \"#utility.yul\":2317:2694   */\n    tag_96:\n        /* \"#utility.yul\":2405:2408   */\n      0x00\n        /* \"#utility.yul\":2433:2472   */\n      tag_157\n        /* \"#utility.yul\":2466:2471   */\n      dup3\n        /* \"#utility.yul\":2433:2472   */\n      tag_92\n      jump\t// in\n    tag_157:\n        /* \"#utility.yul\":2488:2559   */\n      tag_158\n        /* \"#utility.yul\":2552:2558   */\n      dup2\n        /* \"#utility.yul\":2547:2550   */\n      dup6\n        /* \"#utility.yul\":2488:2559   */\n      tag_93\n      jump\t// in\n    tag_158:\n        /* \"#utility.yul\":2481:2559   */\n      swap4\n      pop\n        /* \"#utility.yul\":2568:2633   */\n      tag_159\n        /* \"#utility.yul\":2626:2632   */\n      dup2\n        /* \"#utility.yul\":2621:2624   */\n      dup6\n        /* \"#utility.yul\":2614:2618   */\n      0x20\n        /* \"#utility.yul\":2607:2612   */\n      dup7\n        /* \"#utility.yul\":2603:2619   */\n      add\n        /* \"#utility.yul\":2568:2633   */\n      tag_94\n      jump\t// in\n    tag_159:\n        /* \"#utility.yul\":2658:2687   */\n      tag_160\n        /* \"#utility.yul\":2680:2686   */\n      dup2\n        /* \"#utility.yul\":2658:2687   */\n      tag_95\n      jump\t// in\n    tag_160:\n        /* \"#utility.yul\":2653:2656   */\n      dup5\n        /* \"#utility.yul\":2649:2688   */\n      add\n        /* \"#utility.yul\":2642:2688   */\n      swap2\n      pop\n        /* \"#utility.yul\":2409:2694   */\n      pop\n        /* \"#utility.yul\":2317:2694   */\n      swap3\n      swap2\n      pop\n      pop\n      jump\t// out\n        /* \"#utility.yul\":2700:2818   */\n    tag_97:\n        /* \"#utility.yul\":2787:2811   */\n      tag_162\n        /* \"#utility.yul\":2805:2810   */\n      dup2\n        /* \"#utility.yul\":2787:2811   */\n      tag_86\n      jump\t// in\n    tag_162:\n        /* \"#utility.yul\":2782:2785   */\n      dup3\n        /* \"#utility.yul\":2775:2812   */\n      mstore\n        /* \"#utility.yul\":2700:2818   */\n      pop\n      pop\n      jump\t// out\n        /* \"#utility.yul\":2824:2942   */\n    tag_98:\n        /* \"#utility.yul\":2911:2935   */\n      tag_164\n        /* \"#utility.yul\":2929:2934   */\n      dup2\n        /* \"#utility.yul\":2911:2935   */\n      tag_89\n      jump\t// in\n    tag_164:\n        /* \"#utility.yul\":2906:2909   */\n      dup3\n        /* \"#utility.yul\":2899:2936   */\n      mstore\n        /* \"#utility.yul\":2824:2942   */\n      pop\n      pop\n      jump\t// out\n        /* \"#utility.yul\":2948:3592   */\n    tag_14:\n        /* \"#utility.yul\":3145:3149   */\n      0x00\n        /* \"#utility.yul\":3183:3186   */\n      0x80\n        /* \"#utility.yul\":3172:3181   */\n      dup3\n        /* \"#utility.yul\":3168:3187   */\n      add\n        /* \"#utility.yul\":3160:3187   */\n      swap1\n      pop\n        /* \"#utility.yul\":3233:3242   */\n      dup2\n        /* \"#utility.yul\":3227:3231   */\n      dup2\n        /* \"#utility.yul\":3223:3243   */\n      sub\n        /* \"#utility.yul\":3219:3220   */\n      0x00\n        /* \"#utility.yul\":3208:3217   */\n      dup4\n        /* \"#utility.yul\":3204:3221   */\n      add\n        /* \"#utility.yul\":3197:3244   */\n      mstore\n        /* \"#utility.yul\":3261:3339   */\n      tag_166\n        /* \"#utility.yul\":3334:3338   */\n      dup2\n        /* \"#utility.yul\":3325:3331   */\n      dup8\n        /* \"#utility.yul\":3261:3339   */\n      tag_96\n      jump\t// in\n    tag_166:\n        /* \"#utility.yul\":3253:3339   */\n      swap1\n      pop\n        /* \"#utility.yul\":3349:3421   */\n      tag_167\n        /* \"#utility.yul\":3417:3419   */\n      0x20\n        /* \"#utility.yul\":3406:3415   */\n      dup4\n        /* \"#utility.yul\":3402:3420   */\n      add\n        /* \"#utility.yul\":3393:3399   */\n      dup7\n        /* \"#utility.yul\":3349:3421   */\n      tag_97\n      jump\t// in\n    tag_167:\n        /* \"#utility.yul\":3431:3503   */\n      tag_168\n        /* \"#utility.yul\":3499:3501   */\n      0x40\n        /* \"#utility.yul\":3488:3497   */\n      dup4\n        /* \"#utility.yul\":3484:3502   */\n      add\n        /* \"#utility.yul\":3475:3481   */\n      dup6\n        /* \"#utility.yul\":3431:3503   */\n      tag_98\n      jump\t// in\n    tag_168:\n        /* \"#utility.yul\":3513:3585   */\n      tag_169\n        /* \"#utility.yul\":3581:3583   */\n      0x60\n        /* \"#utility.yul\":3570:3579   */\n      dup4\n        /* \"#utility.yul\":3566:3584   */\n      add\n        /* \"#utility.yul\":3557:3563   */\n      dup5\n        /* \"#utility.yul\":3513:3585   */\n      tag_97\n      jump\t// in\n    tag_169:\n        /* \"#utility.yul\":2948:3592   */\n      swap6\n      swap5\n      pop\n      pop\n      pop\n      pop\n      pop\n      jump\t// out\n        /* \"#utility.yul\":3598:3820   */\n    tag_19:\n        /* \"#utility.yul\":3691:3695   */\n      0x00\n        /* \"#utility.yul\":3729:3731   */\n      0x20\n        /* \"#utility.yul\":3718:3727   */\n      dup3\n        /* \"#utility.yul\":3714:3732   */\n      add\n        /* \"#utility.yul\":3706:3732   */\n      swap1\n      pop\n        /* \"#utility.yul\":3742:3813   */\n      tag_171\n        /* \"#utility.yul\":3810:3811   */\n      0x00\n        /* \"#utility.yul\":3799:3808   */\n      dup4\n        /* \"#utility.yul\":3795:3812   */\n      add\n        /* \"#utility.yul\":3786:3792   */\n      dup5\n        /* \"#utility.yul\":3742:3813   */\n      tag_98\n      jump\t// in\n    tag_171:\n        /* \"#utility.yul\":3598:3820   */\n      swap3\n      swap2\n      pop\n      pop\n      jump\t// out\n        /* \"#utility.yul\":3826:4048   */\n    tag_24:\n        /* \"#utility.yul\":3919:3923   */\n      0x00\n        /* \"#utility.yul\":3957:3959   */\n      0x20\n        /* \"#utility.yul\":3946:3955   */\n      dup3\n        /* \"#utility.yul\":3942:3960   */\n      add\n        /* \"#utility.yul\":3934:3960   */\n      swap1\n      pop\n        /* \"#utility.yul\":3970:4041   */\n      tag_173\n        /* \"#utility.yul\":4038:4039   */\n      0x00\n        /* \"#utility.yul\":4027:4036   */\n      dup4\n        /* \"#utility.yul\":4023:4040   */\n      add\n        /* \"#utility.yul\":4014:4020   */\n      dup5\n        /* \"#utility.yul\":3970:4041   */\n      tag_97\n      jump\t// in\n    tag_173:\n        /* \"#utility.yul\":3826:4048   */\n      swap3\n      swap2\n      pop\n      pop\n      jump\t// out\n        /* \"#utility.yul\":4054:4213   */\n    tag_99:\n        /* \"#utility.yul\":4128:4139   */\n      0x00\n        /* \"#utility.yul\":4162:4168   */\n      dup3\n        /* \"#utility.yul\":4157:4160   */\n      dup3\n        /* \"#utility.yul\":4150:4169   */\n      mstore\n        /* \"#utility.yul\":4202:4206   */\n      0x20\n        /* \"#utility.yul\":4197:4200   */\n      dup3\n        /* \"#utility.yul\":4193:4207   */\n      add\n        /* \"#utility.yul\":4178:4207   */\n      swap1\n      pop\n        /* \"#utility.yul\":4054:4213   */\n      swap3\n      swap2\n      pop\n      pop\n      jump\t// out\n        /* \"#utility.yul\":4219:4576   */\n    tag_100:\n        /* \"#utility.yul\":4297:4300   */\n      0x00\n        /* \"#utility.yul\":4325:4364   */\n      tag_176\n        /* \"#utility.yul\":4358:4363   */\n      dup3\n        /* \"#utility.yul\":4325:4364   */\n      tag_92\n      jump\t// in\n    tag_176:\n        /* \"#utility.yul\":4380:4441   */\n      tag_177\n        /* \"#utility.yul\":4434:4440   */\n      dup2\n        /* \"#utility.yul\":4429:4432   */\n      dup6\n        /* \"#utility.yul\":4380:4441   */\n      tag_99\n      jump\t// in\n    tag_177:\n        /* \"#utility.yul\":4373:4441   */\n      swap4\n      pop\n        /* \"#utility.yul\":4450:4515   */\n      tag_178\n        /* \"#utility.yul\":4508:4514   */\n      dup2\n        /* \"#utility.yul\":4503:4506   */\n      dup6\n        /* \"#utility.yul\":4496:4500   */\n      0x20\n        /* \"#utility.yul\":4489:4494   */\n      dup7\n        /* \"#utility.yul\":4485:4501   */\n      add\n        /* \"#utility.yul\":4450:4515   */\n      tag_94\n      jump\t// in\n    tag_178:\n        /* \"#utility.yul\":4540:4569   */\n      tag_179\n        /* \"#utility.yul\":4562:4568   */\n      dup2\n        /* \"#utility.yul\":4540:4569   */\n      tag_95\n      jump\t// in\n    tag_179:\n        /* \"#utility.yul\":4535:4538   */\n      dup5\n        /* \"#utility.yul\":4531:4570   */\n      add\n        /* \"#utility.yul\":4524:4570   */\n      swap2\n      pop\n        /* \"#utility.yul\":4301:4576   */\n      pop\n        /* \"#utility.yul\":4219:4576   */\n      swap3\n      swap2\n      pop\n      pop\n      jump\t// out\n        /* \"#utility.yul\":4582:4690   */\n    tag_101:\n        /* \"#utility.yul\":4659:4683   */\n      tag_181\n        /* \"#utility.yul\":4677:4682   */\n      dup2\n        /* \"#utility.yul\":4659:4683   */\n      tag_86\n      jump\t// in\n    tag_181:\n        /* \"#utility.yul\":4654:4657   */\n      dup3\n        /* \"#utility.yul\":4647:4684   */\n      mstore\n        /* \"#utility.yul\":4582:4690   */\n      pop\n      pop\n      jump\t// out\n        /* \"#utility.yul\":4696:4804   */\n    tag_102:\n        /* \"#utility.yul\":4773:4797   */\n      tag_183\n        /* \"#utility.yul\":4791:4796   */\n      dup2\n        /* \"#utility.yul\":4773:4797   */\n      tag_89\n      jump\t// in\n    tag_183:\n        /* \"#utility.yul\":4768:4771   */\n      dup3\n        /* \"#utility.yul\":4761:4798   */\n      mstore\n        /* \"#utility.yul\":4696:4804   */\n      pop\n      pop\n      jump\t// out\n        /* \"#utility.yul\":4884:5860   */\n    tag_103:\n        /* \"#utility.yul\":5005:5008   */\n      0x00\n        /* \"#utility.yul\":5041:5045   */\n      0x80\n        /* \"#utility.yul\":5036:5039   */\n      dup4\n        /* \"#utility.yul\":5032:5046   */\n      add\n        /* \"#utility.yul\":5134:5138   */\n      0x00\n        /* \"#utility.yul\":5127:5132   */\n      dup4\n        /* \"#utility.yul\":5123:5139   */\n      add\n        /* \"#utility.yul\":5117:5140   */\n      mload\n        /* \"#utility.yul\":5187:5190   */\n      dup5\n        /* \"#utility.yul\":5181:5185   */\n      dup3\n        /* \"#utility.yul\":5177:5191   */\n      sub\n        /* \"#utility.yul\":5170:5174   */\n      0x00\n        /* \"#utility.yul\":5165:5168   */\n      dup7\n        /* \"#utility.yul\":5161:5175   */\n      add\n        /* \"#utility.yul\":5154:5192   */\n      mstore\n        /* \"#utility.yul\":5213:5286   */\n      tag_185\n        /* \"#utility.yul\":5281:5285   */\n      dup3\n        /* \"#utility.yul\":5267:5279   */\n      dup3\n        /* \"#utility.yul\":5213:5286   */\n      tag_100\n      jump\t// in\n    tag_185:\n        /* \"#utility.yul\":5205:5286   */\n      swap2\n      pop\n        /* \"#utility.yul\":5056:5297   */\n      pop\n        /* \"#utility.yul\":5383:5387   */\n      0x20\n        /* \"#utility.yul\":5376:5381   */\n      dup4\n        /* \"#utility.yul\":5372:5388   */\n      add\n        /* \"#utility.yul\":5366:5389   */\n      mload\n        /* \"#utility.yul\":5402:5465   */\n      tag_186\n        /* \"#utility.yul\":5459:5463   */\n      0x20\n        /* \"#utility.yul\":5454:5457   */\n      dup7\n        /* \"#utility.yul\":5450:5464   */\n      add\n        /* \"#utility.yul\":5436:5448   */\n      dup3\n        /* \"#utility.yul\":5402:5465   */\n      tag_101\n      jump\t// in\n    tag_186:\n        /* \"#utility.yul\":5307:5475   */\n      pop\n        /* \"#utility.yul\":5565:5569   */\n      0x40\n        /* \"#utility.yul\":5558:5563   */\n      dup4\n        /* \"#utility.yul\":5554:5570   */\n      add\n        /* \"#utility.yul\":5548:5571   */\n      mload\n        /* \"#utility.yul\":5584:5647   */\n      tag_187\n        /* \"#utility.yul\":5641:5645   */\n      0x40\n        /* \"#utility.yul\":5636:5639   */\n      dup7\n        /* \"#utility.yul\":5632:5646   */\n      add\n        /* \"#utility.yul\":5618:5630   */\n      dup3\n        /* \"#utility.yul\":5584:5647   */\n      tag_102\n      jump\t// in\n    tag_187:\n        /* \"#utility.yul\":5485:5657   */\n      pop\n        /* \"#utility.yul\":5741:5745   */\n      0x60\n        /* \"#utility.yul\":5734:5739   */\n      dup4\n        /* \"#utility.yul\":5730:5746   */\n      add\n        /* \"#utility.yul\":5724:5747   */\n      mload\n        /* \"#utility.yul\":5760:5823   */\n      tag_188\n        /* \"#utility.yul\":5817:5821   */\n      0x60\n        /* \"#utility.yul\":5812:5815   */\n      dup7\n        /* \"#utility.yul\":5808:5822   */\n      add\n        /* \"#utility.yul\":5794:5806   */\n      dup3\n        /* \"#utility.yul\":5760:5823   */\n      tag_101\n      jump\t// in\n    tag_188:\n        /* \"#utility.yul\":5667:5833   */\n      pop\n        /* \"#utility.yul\":5850:5854   */\n      dup1\n        /* \"#utility.yul\":5843:5854   */\n      swap2\n      pop\n        /* \"#utility.yul\":5010:5860   */\n      pop\n        /* \"#utility.yul\":4884:5860   */\n      swap3\n      swap2\n      pop\n      pop\n      jump\t// out\n        /* \"#utility.yul\":5866:6243   */\n    tag_30:\n        /* \"#utility.yul\":6011:6015   */\n      0x00\n        /* \"#utility.yul\":6049:6051   */\n      0x20\n        /* \"#utility.yul\":6038:6047   */\n      dup3\n        /* \"#utility.yul\":6034:6052   */\n      add\n        /* \"#utility.yul\":6026:6052   */\n      swap1\n      pop\n        /* \"#utility.yul\":6098:6107   */\n      dup2\n        /* \"#utility.yul\":6092:6096   */\n      dup2\n        /* \"#utility.yul\":6088:6108   */\n      sub\n        /* \"#utility.yul\":6084:6085   */\n      0x00\n        /* \"#utility.yul\":6073:6082   */\n      dup4\n        /* \"#utility.yul\":6069:6086   */\n      add\n        /* \"#utility.yul\":6062:6109   */\n      mstore\n        /* \"#utility.yul\":6126:6236   */\n      tag_190\n        /* \"#utility.yul\":6231:6235   */\n      dup2\n        /* \"#utility.yul\":6222:6228   */\n      dup5\n        /* \"#utility.yul\":6126:6236   */\n      tag_103\n      jump\t// in\n    tag_190:\n        /* \"#utility.yul\":6118:6236   */\n      swap1\n      pop\n        /* \"#utility.yul\":5866:6243   */\n      swap3\n      swap2\n      pop\n      pop\n      jump\t// out\n        /* \"#utility.yul\":6249:6578   */\n    tag_34:\n        /* \"#utility.yul\":6308:6314   */\n      0x00\n        /* \"#utility.yul\":6357:6359   */\n      0x20\n        /* \"#utility.yul\":6345:6354   */\n      dup3\n        /* \"#utility.yul\":6336:6343   */\n      dup5\n        /* \"#utility.yul\":6332:6355   */\n      sub\n        /* \"#utility.yul\":6328:6360   */\n      slt\n        /* \"#utility.yul\":6325:6444   */\n      iszero\n      tag_192\n      jumpi\n        /* \"#utility.yul\":6363:6442   */\n      tag_193\n      tag_83\n      jump\t// in\n    tag_193:\n        /* \"#utility.yul\":6325:6444   */\n    tag_192:\n        /* \"#utility.yul\":6483:6484   */\n      0x00\n        /* \"#utility.yul\":6508:6561   */\n      tag_194\n        /* \"#utility.yul\":6553:6560   */\n      dup5\n        /* \"#utility.yul\":6544:6550   */\n      dup3\n        /* \"#utility.yul\":6533:6542   */\n      dup6\n        /* \"#utility.yul\":6529:6551   */\n      add\n        /* \"#utility.yul\":6508:6561   */\n      tag_88\n      jump\t// in\n    tag_194:\n        /* \"#utility.yul\":6498:6561   */\n      swap2\n      pop\n        /* \"#utility.yul\":6454:6571   */\n      pop\n        /* \"#utility.yul\":6249:6578   */\n      swap3\n      swap2\n      pop\n      pop\n      jump\t// out\n        /* \"#utility.yul\":6584:6701   */\n    tag_104:\n        /* \"#utility.yul\":6693:6694   */\n      0x00\n        /* \"#utility.yul\":6690:6691   */\n      dup1\n        /* \"#utility.yul\":6683:6695   */\n      revert\n        /* \"#utility.yul\":6707:6824   */\n    tag_105:\n        /* \"#utility.yul\":6816:6817   */\n      0x00\n        /* \"#utility.yul\":6813:6814   */\n      dup1\n        /* \"#utility.yul\":6806:6818   */\n      revert\n        /* \"#utility.yul\":6830:6947   */\n    tag_106:\n        /* \"#utility.yul\":6939:6940   */\n      0x00\n        /* \"#utility.yul\":6936:6937   */\n      dup1\n        /* \"#utility.yul\":6929:6941   */\n      revert\n        /* \"#utility.yul\":6967:7520   */\n    tag_107:\n        /* \"#utility.yul\":7025:7033   */\n      0x00\n        /* \"#utility.yul\":7035:7041   */\n      dup1\n        /* \"#utility.yul\":7085:7088   */\n      dup4\n        /* \"#utility.yul\":7078:7082   */\n      0x1f\n        /* \"#utility.yul\":7070:7076   */\n      dup5\n        /* \"#utility.yul\":7066:7083   */\n      add\n        /* \"#utility.yul\":7062:7089   */\n      slt\n        /* \"#utility.yul\":7052:7174   */\n      tag_199\n      jumpi\n        /* \"#utility.yul\":7093:7172   */\n      tag_200\n      tag_104\n      jump\t// in\n    tag_200:\n        /* \"#utility.yul\":7052:7174   */\n    tag_199:\n        /* \"#utility.yul\":7206:7212   */\n      dup3\n        /* \"#utility.yul\":7193:7213   */\n      calldataload\n        /* \"#utility.yul\":7183:7213   */\n      swap1\n      pop\n        /* \"#utility.yul\":7236:7254   */\n      0xffffffffffffffff\n        /* \"#utility.yul\":7228:7234   */\n      dup2\n        /* \"#utility.yul\":7225:7255   */\n      gt\n        /* \"#utility.yul\":7222:7339   */\n      iszero\n      tag_201\n      jumpi\n        /* \"#utility.yul\":7258:7337   */\n      tag_202\n      tag_105\n      jump\t// in\n    tag_202:\n        /* \"#utility.yul\":7222:7339   */\n    tag_201:\n        /* \"#utility.yul\":7372:7376   */\n      0x20\n        /* \"#utility.yul\":7364:7370   */\n      dup4\n        /* \"#utility.yul\":7360:7377   */\n      add\n        /* \"#utility.yul\":7348:7377   */\n      swap2\n      pop\n        /* \"#utility.yul\":7426:7429   */\n      dup4\n        /* \"#utility.yul\":7418:7422   */\n      0x01\n        /* \"#utility.yul\":7410:7416   */\n      dup3\n        /* \"#utility.yul\":7406:7423   */\n      mul\n        /* \"#utility.yul\":7396:7404   */\n      dup4\n        /* \"#utility.yul\":7392:7424   */\n      add\n        /* \"#utility.yul\":7389:7430   */\n      gt\n        /* \"#utility.yul\":7386:7514   */\n      iszero\n      tag_203\n      jumpi\n        /* \"#utility.yul\":7433:7512   */\n      tag_204\n      tag_106\n      jump\t// in\n    tag_204:\n        /* \"#utility.yul\":7386:7514   */\n    tag_203:\n        /* \"#utility.yul\":6967:7520   */\n      swap3\n      pop\n      swap3\n      swap1\n      pop\n      jump\t// out\n        /* \"#utility.yul\":7526:8200   */\n    tag_39:\n        /* \"#utility.yul\":7606:7612   */\n      0x00\n        /* \"#utility.yul\":7614:7620   */\n      dup1\n        /* \"#utility.yul\":7622:7628   */\n      0x00\n        /* \"#utility.yul\":7671:7673   */\n      0x40\n        /* \"#utility.yul\":7659:7668   */\n      dup5\n        /* \"#utility.yul\":7650:7657   */\n      dup7\n        /* \"#utility.yul\":7646:7669   */\n      sub\n        /* \"#utility.yul\":7642:7674   */\n      slt\n        /* \"#utility.yul\":7639:7758   */\n      iszero\n      tag_206\n      jumpi\n        /* \"#utility.yul\":7677:7756   */\n      tag_207\n      tag_83\n      jump\t// in\n    tag_207:\n        /* \"#utility.yul\":7639:7758   */\n    tag_206:\n        /* \"#utility.yul\":7797:7798   */\n      0x00\n        /* \"#utility.yul\":7822:7875   */\n      tag_208\n        /* \"#utility.yul\":7867:7874   */\n      dup7\n        /* \"#utility.yul\":7858:7864   */\n      dup3\n        /* \"#utility.yul\":7847:7856   */\n      dup8\n        /* \"#utility.yul\":7843:7865   */\n      add\n        /* \"#utility.yul\":7822:7875   */\n      tag_88\n      jump\t// in\n    tag_208:\n        /* \"#utility.yul\":7812:7875   */\n      swap4\n      pop\n        /* \"#utility.yul\":7768:7885   */\n      pop\n        /* \"#utility.yul\":7952:7954   */\n      0x20\n        /* \"#utility.yul\":7941:7950   */\n      dup5\n        /* \"#utility.yul\":7937:7955   */\n      add\n        /* \"#utility.yul\":7924:7956   */\n      calldataload\n        /* \"#utility.yul\":7983:8001   */\n      0xffffffffffffffff\n        /* \"#utility.yul\":7975:7981   */\n      dup2\n        /* \"#utility.yul\":7972:8002   */\n      gt\n        /* \"#utility.yul\":7969:8086   */\n      iszero\n      tag_209\n      jumpi\n        /* \"#utility.yul\":8005:8084   */\n      tag_210\n      tag_84\n      jump\t// in\n    tag_210:\n        /* \"#utility.yul\":7969:8086   */\n    tag_209:\n        /* \"#utility.yul\":8118:8183   */\n      tag_211\n        /* \"#utility.yul\":8175:8182   */\n      dup7\n        /* \"#utility.yul\":8166:8172   */\n      dup3\n        /* \"#utility.yul\":8155:8164   */\n      dup8\n        /* \"#utility.yul\":8151:8173   */\n      add\n        /* \"#utility.yul\":8118:8183   */\n      tag_107\n      jump\t// in\n    tag_211:\n        /* \"#utility.yul\":8100:8183   */\n      swap3\n      pop\n      swap3\n      pop\n        /* \"#utility.yul\":7895:8193   */\n      pop\n        /* \"#utility.yul\":7526:8200   */\n      swap3\n      pop\n      swap3\n      pop\n      swap3\n      jump\t// out\n        /* \"#utility.yul\":8206:8386   */\n    tag_108:\n        /* \"#utility.yul\":8254:8331   */\n      0x4e487b7100000000000000000000000000000000000000000000000000000000\n        /* \"#utility.yul\":8251:8252   */\n      0x00\n        /* \"#utility.yul\":8244:8332   */\n      mstore\n        /* \"#utility.yul\":8351:8355   */\n      0x22\n        /* \"#utility.yul\":8348:8349   */\n      0x04\n        /* \"#utility.yul\":8341:8356   */\n      mstore\n        /* \"#utility.yul\":8375:8379   */\n      0x24\n        /* \"#utility.yul\":8372:8373   */\n      0x00\n        /* \"#utility.yul\":8365:8380   */\n      revert\n        /* \"#utility.yul\":8392:8712   */\n    tag_44:\n        /* \"#utility.yul\":8436:8442   */\n      0x00\n        /* \"#utility.yul\":8473:8474   */\n      0x02\n        /* \"#utility.yul\":8467:8471   */\n      dup3\n        /* \"#utility.yul\":8463:8475   */\n      div\n        /* \"#utility.yul\":8453:8475   */\n      swap1\n      pop\n        /* \"#utility.yul\":8520:8521   */\n      0x01\n        /* \"#utility.yul\":8514:8518   */\n      dup3\n        /* \"#utility.yul\":8510:8522   */\n      and\n        /* \"#utility.yul\":8541:8559   */\n      dup1\n        /* \"#utility.yul\":8531:8612   */\n      tag_214\n      jumpi\n        /* \"#utility.yul\":8597:8601   */\n      0x7f\n        /* \"#utility.yul\":8589:8595   */\n      dup3\n        /* \"#utility.yul\":8585:8602   */\n      and\n        /* \"#utility.yul\":8575:8602   */\n      swap2\n      pop\n        /* \"#utility.yul\":8531:8612   */\n    tag_214:\n        /* \"#utility.yul\":8659:8661   */\n      0x20\n        /* \"#utility.yul\":8651:8657   */\n      dup3\n        /* \"#utility.yul\":8648:8662   */\n      lt\n        /* \"#utility.yul\":8628:8646   */\n      dup2\n        /* \"#utility.yul\":8625:8663   */\n      sub\n        /* \"#utility.yul\":8622:8706   */\n      tag_215\n      jumpi\n        /* \"#utility.yul\":8678:8696   */\n      tag_216\n      tag_108\n      jump\t// in\n    tag_216:\n        /* \"#utility.yul\":8622:8706   */\n    tag_215:\n        /* \"#utility.yul\":8443:8712   */\n      pop\n        /* \"#utility.yul\":8392:8712   */\n      swap2\n      swap1\n      pop\n      jump\t// out\n        /* \"#utility.yul\":8718:8898   */\n    tag_55:\n        /* \"#utility.yul\":8766:8843   */\n      0x4e487b7100000000000000000000000000000000000000000000000000000000\n        /* \"#utility.yul\":8763:8764   */\n      0x00\n        /* \"#utility.yul\":8756:8844   */\n      mstore\n        /* \"#utility.yul\":8863:8867   */\n      0x32\n        /* \"#utility.yul\":8860:8861   */\n      0x04\n        /* \"#utility.yul\":8853:8868   */\n      mstore\n        /* \"#utility.yul\":8887:8891   */\n      0x24\n        /* \"#utility.yul\":8884:8885   */\n      0x00\n        /* \"#utility.yul\":8877:8892   */\n      revert\n        /* \"#utility.yul\":8904:9084   */\n    tag_109:\n        /* \"#utility.yul\":8952:9029   */\n      0x4e487b7100000000000000000000000000000000000000000000000000000000\n        /* \"#utility.yul\":8949:8950   */\n      0x00\n        /* \"#utility.yul\":8942:9030   */\n      mstore\n        /* \"#utility.yul\":9049:9053   */\n      0x11\n        /* \"#utility.yul\":9046:9047   */\n      0x04\n        /* \"#utility.yul\":9039:9054   */\n      mstore\n        /* \"#utility.yul\":9073:9077   */\n      0x24\n        /* \"#utility.yul\":9070:9071   */\n      0x00\n        /* \"#utility.yul\":9063:9078   */\n      revert\n        /* \"#utility.yul\":9090:9281   */\n    tag_70:\n        /* \"#utility.yul\":9130:9133   */\n      0x00\n        /* \"#utility.yul\":9149:9169   */\n      tag_220\n        /* \"#utility.yul\":9167:9168   */\n      dup3\n        /* \"#utility.yul\":9149:9169   */\n      tag_89\n      jump\t// in\n    tag_220:\n        /* \"#utility.yul\":9144:9169   */\n      swap2\n      pop\n        /* \"#utility.yul\":9183:9203   */\n      tag_221\n        /* \"#utility.yul\":9201:9202   */\n      dup4\n        /* \"#utility.yul\":9183:9203   */\n      tag_89\n      jump\t// in\n    tag_221:\n        /* \"#utility.yul\":9178:9203   */\n      swap3\n      pop\n        /* \"#utility.yul\":9226:9227   */\n      dup3\n        /* \"#utility.yul\":9223:9224   */\n      dup3\n        /* \"#utility.yul\":9219:9228   */\n      add\n        /* \"#utility.yul\":9212:9228   */\n      swap1\n      pop\n        /* \"#utility.yul\":9247:9250   */\n      dup1\n        /* \"#utility.yul\":9244:9245   */\n      dup3\n        /* \"#utility.yul\":9241:9251   */\n      gt\n        /* \"#utility.yul\":9238:9274   */\n      iszero\n      tag_222\n      jumpi\n        /* \"#utility.yul\":9254:9272   */\n      tag_223\n      tag_109\n      jump\t// in\n    tag_223:\n        /* \"#utility.yul\":9238:9274   */\n    tag_222:\n        /* \"#utility.yul\":9090:9281   */\n      swap3\n      swap2\n      pop\n      pop\n      jump\t// out\n        /* \"#utility.yul\":9287:9520   */\n    tag_72:\n        /* \"#utility.yul\":9326:9329   */\n      0x00\n        /* \"#utility.yul\":9349:9373   */\n      tag_225\n        /* \"#utility.yul\":9367:9372   */\n      dup3\n        /* \"#utility.yul\":9349:9373   */\n      tag_89\n      jump\t// in\n    tag_225:\n        /* \"#utility.yul\":9340:9373   */\n      swap2\n      pop\n        /* \"#utility.yul\":9395:9461   */\n      0xffffffffffffffffffffffffffffffffffffffffffffffffffffffffffffffff\n        /* \"#utility.yul\":9388:9393   */\n      dup3\n        /* \"#utility.yul\":9385:9462   */\n      sub\n        /* \"#utility.yul\":9382:9485   */\n      tag_226\n      jumpi\n        /* \"#utility.yul\":9465:9483   */\n      tag_227\n      tag_109\n      jump\t// in\n    tag_227:\n        /* \"#utility.yul\":9382:9485   */\n    tag_226:\n        /* \"#utility.yul\":9512:9513   */\n      0x01\n        /* \"#utility.yul\":9505:9510   */\n      dup3\n        /* \"#utility.yul\":9501:9514   */\n      add\n        /* \"#utility.yul\":9494:9514   */\n      swap1\n      pop\n        /* \"#utility.yul\":9287:9520   */\n      swap2\n      swap1\n      pop\n      jump\t// out\n        /* \"#utility.yul\":9526:9706   */\n    tag_110:\n        /* \"#utility.yul\":9574:9651   */\n      0x4e487b7100000000000000000000000000000000000000000000000000000000\n        /* \"#utility.yul\":9571:9572   */\n      0x00\n        /* \"#utility.yul\":9564:9652   */\n      mstore\n        /* \"#utility.yul\":9671:9675   */\n      0x41\n        /* \"#utility.yul\":9668:9669   */\n      0x04\n        /* \"#utility.yul\":9661:9676   */\n      mstore\n        /* \"#utility.yul\":9695:9699   */\n      0x24\n        /* \"#utility.yul\":9692:9693   */\n      0x00\n        /* \"#utility.yul\":9685:9700   */\n      revert\n        /* \"#utility.yul\":9712:9853   */\n    tag_111:\n        /* \"#utility.yul\":9761:9765   */\n      0x00\n        /* \"#utility.yul\":9784:9787   */\n      dup2\n        /* \"#utility.yul\":9776:9787   */\n      swap1\n      pop\n        /* \"#utility.yul\":9807:9810   */\n      dup2\n        /* \"#utility.yul\":9804:9805   */\n      0x00\n        /* \"#utility.yul\":9797:9811   */\n      mstore\n        /* \"#utility.yul\":9841:9845   */\n      0x20\n        /* \"#utility.yul\":9838:9839   */\n      0x00\n        /* \"#utility.yul\":9828:9846   */\n      keccak256\n        /* \"#utility.yul\":9820:9846   */\n      swap1\n      pop\n        /* \"#utility.yul\":9712:9853   */\n      swap2\n      swap1\n      pop\n      jump\t// out\n        /* \"#utility.yul\":9859:9952   */\n    tag_112:\n        /* \"#utility.yul\":9896:9902   */\n      0x00\n        /* \"#utility.yul\":9943:9945   */\n      0x20\n        /* \"#utility.yul\":9938:9940   */\n      0x1f\n        /* \"#utility.yul\":9931:9936   */\n      dup4\n        /* \"#utility.yul\":9927:9941   */\n      add\n        /* \"#utility.yul\":9923:9946   */\n      div\n        /* \"#utility.yul\":9913:9946   */\n      swap1\n      pop\n        /* \"#utility.yul\":9859:9952   */\n      swap2\n      swap1\n      pop\n      jump\t// out\n        /* \"#utility.yul\":9958:10065   */\n    tag_113:\n        /* \"#utility.yul\":10002:10010   */\n      0x00\n        /* \"#utility.yul\":10052:10057   */\n      dup3\n        /* \"#utility.yul\":10046:10050   */\n      dup3\n        /* \"#utility.yul\":10042:10058   */\n      shl\n        /* \"#utility.yul\":10021:10058   */\n      swap1\n      pop\n        /* \"#utility.yul\":9958:10065   */\n      swap3\n      swap2\n      pop\n      pop\n      jump\t// out\n        /* \"#utility.yul\":10071:10464   */\n    tag_114:\n        /* \"#utility.yul\":10140:10146   */\n      0x00\n        /* \"#utility.yul\":10190:10191   */\n      0x08\n        /* \"#utility.yul\":10178:10188   */\n      dup4\n        /* \"#utility.yul\":10174:10192   */\n      mul\n        /* \"#utility.yul\":10213:10310   */\n      tag_233\n        /* \"#utility.yul\":10243:10309   */\n      0xffffffffffffffffffffffffffffffffffffffffffffffffffffffffffffffff\n        /* \"#utility.yul\":10232:10241   */\n      dup3\n        /* \"#utility.yul\":10213:10310   */\n      tag_113\n      jump\t// in\n    tag_233:\n        /* \"#utility.yul\":10331:10370   */\n      tag_234\n        /* \"#utility.yul\":10361:10369   */\n      dup7\n        /* \"#utility.yul\":10350:10359   */\n      dup4\n        /* \"#utility.yul\":10331:10370   */\n      tag_113\n      jump\t// in\n    tag_234:\n        /* \"#utility.yul\":10319:10370   */\n      swap6\n      pop\n        /* \"#utility.yul\":10403:10407   */\n      dup1\n        /* \"#utility.yul\":10399:10408   */\n      not\n        /* \"#utility.yul\":10392:10397   */\n      dup5\n        /* \"#utility.yul\":10388:10409   */\n      and\n        /* \"#utility.yul\":10379:10409   */\n      swap4\n      pop\n        /* \"#utility.yul\":10452:10456   */\n      dup1\n        /* \"#utility.yul\":10442:10450   */\n      dup7\n        /* \"#utility.yul\":10438:10457   */\n      and\n        /* \"#utility.yul\":10431:10436   */\n      dup5\n        /* \"#utility.yul\":10428:10458   */\n      or\n        /* \"#utility.yul\":10418:10458   */\n      swap3\n      pop\n        /* \"#utility.yul\":10147:10464   */\n      pop\n      pop\n        /* \"#utility.yul\":10071:10464   */\n      swap4\n      swap3\n      pop\n      pop\n      pop\n      jump\t// out\n        /* \"#utility.yul\":10470:10530   */\n    tag_115:\n        /* \"#utility.yul\":10498:10501   */\n      0x00\n        /* \"#utility.yul\":10519:10524   */\n      dup2\n        /* \"#utility.yul\":10512:10524   */\n      swap1\n      pop\n        /* \"#utility.yul\":10470:10530   */\n      swap2\n      swap1\n      pop\n      jump\t// out\n        /* \"#utility.yul\":10536:10678   */\n    tag_116:\n        /* \"#utility.yul\":10586:10595   */\n      0x00\n        /* \"#utility.yul\":10619:10672   */\n      tag_237\n        /* \"#utility.yul\":10637:10671   */\n      tag_238\n        /* \"#utility.yul\":10646:10670   */\n      tag_239\n        /* \"#utility.yul\":10664:10669   */\n      dup5\n        /* \"#utility.yul\":10646:10670   */\n      tag_89\n      jump\t// in\n    tag_239:\n        /* \"#utility.yul\":10637:10671   */\n      tag_115\n      jump\t// in\n    tag_238:\n        /* \"#utility.yul\":10619:10672   */\n      tag_89\n      jump\t// in\n    tag_237:\n        /* \"#utility.yul\":10606:10672   */\n      swap1\n      pop\n        /* \"#utility.yul\":10536:10678   */\n      swap2\n      swap1\n      pop\n      jump\t// out\n        /* \"#utility.yul\":10684:10759   */\n    tag_117:\n        /* \"#utility.yul\":10727:10730   */\n      0x00\n        /* \"#utility.yul\":10748:10753   */\n      dup2\n        /* \"#utility.yul\":10741:10753   */\n      swap1\n      pop\n        /* \"#utility.yul\":10684:10759   */\n      swap2\n      swap1\n      pop\n      jump\t// out\n        /* \"#utility.yul\":10765:11034   */\n    tag_118:\n        /* \"#utility.yul\":10875:10914   */\n      tag_242\n        /* \"#utility.yul\":10906:10913   */\n      dup4\n        /* \"#utility.yul\":10875:10914   */\n      tag_116\n      jump\t// in\n    tag_242:\n        /* \"#utility.yul\":10936:11027   */\n      tag_243\n        /* \"#utility.yul\":10985:11026   */\n      tag_244\n        /* \"#utility.yul\":11009:11025   */\n      dup3\n        /* \"#utility.yul\":10985:11026   */\n      tag_117\n      jump\t// in\n    tag_244:\n        /* \"#utility.yul\":10977:10983   */\n      dup5\n        /* \"#utility.yul\":10970:10974   */\n      dup5\n        /* \"#utility.yul\":10964:10975   */\n      sload\n        /* \"#utility.yul\":10936:11027   */\n      tag_114\n      jump\t// in\n    tag_243:\n        /* \"#utility.yul\":10930:10934   */\n      dup3\n        /* \"#utility.yul\":10923:11028   */\n      sstore\n        /* \"#utility.yul\":10841:11034   */\n      pop\n        /* \"#utility.yul\":10765:11034   */\n      pop\n      pop\n      pop\n      jump\t// out\n        /* \"#utility.yul\":11040:11113   */\n    tag_119:\n        /* \"#utility.yul\":11085:11088   */\n      0x00\n        /* \"#utility.yul\":11040:11113   */\n      swap1\n      jump\t// out\n        /* \"#utility.yul\":11119:11308   */\n    tag_120:\n        /* \"#utility.yul\":11196:11228   */\n      tag_247\n      tag_119\n      jump\t// in\n    tag_247:\n        /* \"#utility.yul\":11237:11302   */\n      tag_248\n        /* \"#utility.yul\":11295:11301   */\n      dup2\n        /* \"#utility.yul\":11287:11293   */\n      dup5\n        /* \"#utility.yul\":11281:11285   */\n      dup5\n        /* \"#utility.yul\":11237:11302   */\n      tag_118\n      jump\t// in\n    tag_248:\n        /* \"#utility.yul\":11172:11308   */\n      pop\n        /* \"#utility.yul\":11119:11308   */\n      pop\n      pop\n      jump\t// out\n        /* \"#utility.yul\":11314:11500   */\n    tag_121:\n        /* \"#utility.yul\":11374:11494   */\n    tag_250:\n        /* \"#utility.yul\":11391:11394   */\n      dup2\n        /* \"#utility.yul\":11384:11389   */\n      dup2\n        /* \"#utility.yul\":11381:11395   */\n      lt\n        /* \"#utility.yul\":11374:11494   */\n      iszero\n      tag_252\n      jumpi\n        /* \"#utility.yul\":11445:11484   */\n      tag_253\n        /* \"#utility.yul\":11482:11483   */\n      0x00\n        /* \"#utility.yul\":11475:11480   */\n      dup3\n        /* \"#utility.yul\":11445:11484   */\n      tag_120\n      jump\t// in\n    tag_253:\n        /* \"#utility.yul\":11418:11419   */\n      0x01\n        /* \"#utility.yul\":11411:11416   */\n      dup2\n        /* \"#utility.yul\":11407:11420   */\n      add\n        /* \"#utility.yul\":11398:11420   */\n      swap1\n      pop\n        /* \"#utility.yul\":11374:11494   */\n      jump(tag_250)\n    tag_252:\n        /* \"#utility.yul\":11314:11500   */\n      pop\n      pop\n      jump\t// out\n        /* \"#utility.yul\":11506:12049   */\n    tag_122:\n        /* \"#utility.yul\":11607:11609   */\n      0x1f\n        /* \"#utility.yul\":11602:11605   */\n      dup3\n        /* \"#utility.yul\":11599:11610   */\n      gt\n        /* \"#utility.yul\":11596:12042   */\n      iszero\n      tag_255\n      jumpi\n        /* \"#utility.yul\":11641:11679   */\n      tag_256\n        /* \"#utility.yul\":11673:11678   */\n      dup2\n        /* \"#utility.yul\":11641:11679   */\n      tag_111\n      jump\t// in\n    tag_256:\n        /* \"#utility.yul\":11725:11754   */\n      tag_257\n        /* \"#utility.yul\":11743:11753   */\n      dup5\n        /* \"#utility.yul\":11725:11754   */\n      tag_112\n      jump\t// in\n    tag_257:\n        /* \"#utility.yul\":11715:11723   */\n      dup2\n        /* \"#utility.yul\":11711:11755   */\n      add\n        /* \"#utility.yul\":11908:11910   */\n      0x20\n        /* \"#utility.yul\":11896:11906   */\n      dup6\n        /* \"#utility.yul\":11893:11911   */\n      lt\n        /* \"#utility.yul\":11890:11939   */\n      iszero\n      tag_258\n      jumpi\n        /* \"#utility.yul\":11929:11937   */\n      dup2\n        /* \"#utility.yul\":11914:11937   */\n      swap1\n      pop\n        /* \"#utility.yul\":11890:11939   */\n    tag_258:\n        /* \"#utility.yul\":11952:12032   */\n      tag_259\n        /* \"#utility.yul\":12008:12030   */\n      tag_260\n        /* \"#utility.yul\":12026:12029   */\n      dup6\n        /* \"#utility.yul\":12008:12030   */\n      tag_112\n      jump\t// in\n    tag_260:\n        /* \"#utility.yul\":11998:12006   */\n      dup4\n        /* \"#utility.yul\":11994:12031   */\n      add\n        /* \"#utility.yul\":11981:11992   */\n      dup3\n        /* \"#utility.yul\":11952:12032   */\n      tag_121\n      jump\t// in\n    tag_259:\n        /* \"#utility.yul\":11611:12042   */\n      pop\n      pop\n        /* \"#utility.yul\":11596:12042   */\n    tag_255:\n        /* \"#utility.yul\":11506:12049   */\n      pop\n      pop\n      pop\n      jump\t// out\n        /* \"#utility.yul\":12055:12172   */\n    tag_123:\n        /* \"#utility.yul\":12109:12117   */\n      0x00\n        /* \"#utility.yul\":12159:12164   */\n      dup3\n        /* \"#utility.yul\":12153:12157   */\n      dup3\n        /* \"#utility.yul\":12149:12165   */\n      shr\n        /* \"#utility.yul\":12128:12165   */\n      swap1\n      pop\n        /* \"#utility.yul\":12055:12172   */\n      swap3\n      swap2\n      pop\n      pop\n      jump\t// out\n        /* \"#utility.yul\":12178:12347   */\n    tag_124:\n        /* \"#utility.yul\":12222:12228   */\n      0x00\n        /* \"#utility.yul\":12255:12306   */\n      tag_263\n        /* \"#utility.yul\":12303:12304   */\n      0x00\n        /* \"#utility.yul\":12299:12305   */\n      not\n        /* \"#utility.yul\":12291:12296   */\n      dup5\n        /* \"#utility.yul\":12288:12289   */\n      0x08\n        /* \"#utility.yul\":12284:12297   */\n      mul\n        /* \"#utility.yul\":12255:12306   */\n      tag_123\n      jump\t// in\n    tag_263:\n        /* \"#utility.yul\":12251:12307   */\n      not\n        /* \"#utility.yul\":12336:12340   */\n      dup1\n        /* \"#utility.yul\":12330:12334   */\n      dup4\n        /* \"#utility.yul\":12326:12341   */\n      and\n        /* \"#utility.yul\":12316:12341   */\n      swap2\n      pop\n        /* \"#utility.yul\":12229:12347   */\n      pop\n        /* \"#utility.yul\":12178:12347   */\n      swap3\n      swap2\n      pop\n      pop\n      jump\t// out\n        /* \"#utility.yul\":12352:12647   */\n    tag_125:\n        /* \"#utility.yul\":12428:12432   */\n      0x00\n        /* \"#utility.yul\":12574:12603   */\n      tag_265\n        /* \"#utility.yul\":12599:12602   */\n      dup4\n        /* \"#utility.yul\":12593:12597   */\n      dup4\n        /* \"#utility.yul\":12574:12603   */\n      tag_124\n      jump\t// in\n    tag_265:\n        /* \"#utility.yul\":12566:12603   */\n      swap2\n      pop\n        /* \"#utility.yul\":12636:12639   */\n      dup3\n        /* \"#utility.yul\":12633:12634   */\n      0x02\n        /* \"#utility.yul\":12629:12640   */\n      mul\n        /* \"#utility.yul\":12623:12627   */\n      dup3\n        /* \"#utility.yul\":12620:12641   */\n      or\n        /* \"#utility.yul\":12612:12641   */\n      swap1\n      pop\n        /* \"#utility.yul\":12352:12647   */\n      swap3\n      swap2\n      pop\n      pop\n      jump\t// out\n        /* \"#utility.yul\":12652:14047   */\n    tag_79:\n        /* \"#utility.yul\":12769:12806   */\n      tag_267\n        /* \"#utility.yul\":12802:12805   */\n      dup3\n        /* \"#utility.yul\":12769:12806   */\n      tag_92\n      jump\t// in\n    tag_267:\n        /* \"#utility.yul\":12871:12889   */\n      0xffffffffffffffff\n        /* \"#utility.yul\":12863:12869   */\n      dup2\n        /* \"#utility.yul\":12860:12890   */\n      gt\n        /* \"#utility.yul\":12857:12913   */\n      iszero\n      tag_268\n      jumpi\n        /* \"#utility.yul\":12893:12911   */\n      tag_269\n      tag_110\n      jump\t// in\n    tag_269:\n        /* \"#utility.yul\":12857:12913   */\n    tag_268:\n        /* \"#utility.yul\":12937:12975   */\n      tag_270\n        /* \"#utility.yul\":12969:12973   */\n      dup3\n        /* \"#utility.yul\":12963:12974   */\n      sload\n        /* \"#utility.yul\":12937:12975   */\n      tag_44\n      jump\t// in\n    tag_270:\n        /* \"#utility.yul\":13022:13089   */\n      tag_271\n        /* \"#utility.yul\":13082:13088   */\n      dup3\n        /* \"#utility.yul\":13074:13080   */\n      dup3\n        /* \"#utility.yul\":13068:13072   */\n      dup6\n        /* \"#utility.yul\":13022:13089   */\n      tag_122\n      jump\t// in\n    tag_271:\n        /* \"#utility.yul\":13116:13117   */\n      0x00\n        /* \"#utility.yul\":13140:13144   */\n      0x20\n        /* \"#utility.yul\":13127:13144   */\n      swap1\n      pop\n        /* \"#utility.yul\":13172:13174   */\n      0x1f\n        /* \"#utility.yul\":13164:13170   */\n      dup4\n        /* \"#utility.yul\":13161:13175   */\n      gt\n        /* \"#utility.yul\":13189:13190   */\n      0x01\n        /* \"#utility.yul\":13184:13802   */\n      dup2\n      eq\n      tag_273\n      jumpi\n        /* \"#utility.yul\":13846:13847   */\n      0x00\n        /* \"#utility.yul\":13863:13869   */\n      dup5\n        /* \"#utility.yul\":13860:13937   */\n      iszero\n      tag_274\n      jumpi\n        /* \"#utility.yul\":13912:13921   */\n      dup3\n        /* \"#utility.yul\":13907:13910   */\n      dup8\n        /* \"#utility.yul\":13903:13922   */\n      add\n        /* \"#utility.yul\":13897:13923   */\n      mload\n        /* \"#utility.yul\":13888:13923   */\n      swap1\n      pop\n        /* \"#utility.yul\":13860:13937   */\n    tag_274:\n        /* \"#utility.yul\":13963:14030   */\n      tag_275\n        /* \"#utility.yul\":14023:14029   */\n      dup6\n        /* \"#utility.yul\":14016:14021   */\n      dup3\n        /* \"#utility.yul\":13963:14030   */\n      tag_125\n      jump\t// in\n    tag_275:\n        /* \"#utility.yul\":13957:13961   */\n      dup7\n        /* \"#utility.yul\":13950:14031   */\n      sstore\n        /* \"#utility.yul\":13819:14041   */\n      pop\n        /* \"#utility.yul\":13154:14041   */\n      jump(tag_272)\n        /* \"#utility.yul\":13184:13802   */\n    tag_273:\n        /* \"#utility.yul\":13236:13240   */\n      0x1f\n        /* \"#utility.yul\":13232:13241   */\n      not\n        /* \"#utility.yul\":13224:13230   */\n      dup5\n        /* \"#utility.yul\":13220:13242   */\n      and\n        /* \"#utility.yul\":13270:13307   */\n      tag_276\n        /* \"#utility.yul\":13302:13306   */\n      dup7\n        /* \"#utility.yul\":13270:13307   */\n      tag_111\n      jump\t// in\n    tag_276:\n        /* \"#utility.yul\":13329:13330   */\n      0x00\n        /* \"#utility.yul\":13343:13551   */\n    tag_277:\n        /* \"#utility.yul\":13357:13364   */\n      dup3\n        /* \"#utility.yul\":13354:13355   */\n      dup2\n        /* \"#utility.yul\":13351:13365   */\n      lt\n        /* \"#utility.yul\":13343:13551   */\n      iszero\n      tag_279\n      jumpi\n        /* \"#utility.yul\":13436:13445   */\n      dup5\n        /* \"#utility.yul\":13431:13434   */\n      dup10\n        /* \"#utility.yul\":13427:13446   */\n      add\n        /* \"#utility.yul\":13421:13447   */\n      mload\n        /* \"#utility.yul\":13413:13419   */\n      dup3\n        /* \"#utility.yul\":13406:13448   */\n      sstore\n        /* \"#utility.yul\":13487:13488   */\n      0x01\n        /* \"#utility.yul\":13479:13485   */\n      dup3\n        /* \"#utility.yul\":13475:13489   */\n      add\n        /* \"#utility.yul\":13465:13489   */\n      swap2\n      pop\n        /* \"#utility.yul\":13534:13536   */\n      0x20\n        /* \"#utility.yul\":13523:13532   */\n      dup6\n        /* \"#utility.yul\":13519:13537   */\n      add\n        /* \"#utility.yul\":13506:13537   */\n      swap5\n      pop\n        /* \"#utility.yul\":13380:13384   */\n      0x20\n        /* \"#utility.yul\":13377:13378   */\n      dup2\n        /* \"#utility.yul\":13373:13385   */\n      add\n        /* \"#utility.yul\":13368:13385   */\n      swap1\n      pop\n        /* \"#utility.yul\":13343:13551   */\n      jump(tag_277)\n    tag_279:\n        /* \"#utility.yul\":13579:13585   */\n      dup7\n        /* \"#utility.yul\":13570:13577   */\n      dup4\n        /* \"#utility.yul\":13567:13586   */\n      lt\n        /* \"#utility.yul\":13564:13743   */\n      iszero\n      tag_280\n      jumpi\n        /* \"#utility.yul\":13637:13646   */\n      dup5\n        /* \"#utility.yul\":13632:13635   */\n      dup10\n        /* \"#utility.yul\":13628:13647   */\n      add\n        /* \"#utility.yul\":13622:13648   */\n      mload\n        /* \"#utility.yul\":13680:13728   */\n      tag_281\n        /* \"#utility.yul\":13722:13726   */\n      0x1f\n        /* \"#utility.yul\":13714:13720   */\n      dup10\n        /* \"#utility.yul\":13710:13727   */\n      and\n        /* \"#utility.yul\":13699:13708   */\n      dup3\n        /* \"#utility.yul\":13680:13728   */\n      tag_124\n      jump\t// in\n    tag_281:\n        /* \"#utility.yul\":13672:13678   */\n      dup4\n        /* \"#utility.yul\":13665:13729   */\n      sstore\n        /* \"#utility.yul\":13587:13743   */\n      pop\n        /* \"#utility.yul\":13564:13743   */\n    tag_280:\n        /* \"#utility.yul\":13789:13790   */\n      0x01\n        /* \"#utility.yul\":13785:13786   */\n      0x02\n        /* \"#utility.yul\":13777:13783   */\n      dup9\n        /* \"#utility.yul\":13773:13787   */\n      mul\n        /* \"#utility.yul\":13769:13791   */\n      add\n        /* \"#utility.yul\":13763:13767   */\n      dup9\n        /* \"#utility.yul\":13756:13792   */\n      sstore\n        /* \"#utility.yul\":13191:13802   */\n      pop\n      pop\n      pop\n        /* \"#utility.yul\":13154:14041   */\n    tag_272:\n      pop\n        /* \"#utility.yul\":12744:14047   */\n      pop\n      pop\n      pop\n        /* \"#utility.yul\":12652:14047   */\n      pop\n      pop\n      jump\t// out\n\n    auxdata: 0xa264697066735822122028d94995726f38ed23023780abbca108a10ede230123481d442f0db4544e374264736f6c63430008130033\n}\n",
				"bytecode": {
					"linkReferences": {},
					"object": "60806040523480156200001157600080fd5b506040516200122b3803806200122b83398181016040528101906200003791906200012c565b81600160006101000a81548173ffffffffffffffffffffffffffffffffffffffff021916908373ffffffffffffffffffffffffffffffffffffffff16021790555080600081905550505062000173565b600080fd5b600073ffffffffffffffffffffffffffffffffffffffff82169050919050565b6000620000b9826200008c565b9050919050565b620000cb81620000ac565b8114620000d757600080fd5b50565b600081519050620000eb81620000c0565b92915050565b6000819050919050565b6200010681620000f1565b81146200011257600080fd5b50565b6000815190506200012681620000fb565b92915050565b6000806040838503121562000146576200014562000087565b5b60006200015685828601620000da565b9250506020620001698582860162000115565b9150509250929050565b6110a880620001836000396000f3fe6080604052600436106100555760003560e01c80630400ebce1461005a57806305ded61e1461009a5780633d65ab73146100c55780636221f9b3146100f057806366d55c461461012d578063e4b969821461016a575b600080fd5b34801561006657600080fd5b50610081600480360381019061007c919061093c565b610186565b6040516100919493929190610a2a565b60405180910390f35b3480156100a657600080fd5b506100af61029b565b6040516100bc9190610a76565b60405180910390f35b3480156100d157600080fd5b506100da6102a1565b6040516100e79190610a91565b60405180910390f35b3480156100fc57600080fd5b506101176004803603810190610112919061093c565b6102c7565b6040516101249190610b77565b60405180910390f35b34801561013957600080fd5b50610154600480360381019061014f9190610b99565b610504565b6040516101619190610a76565b60405180910390f35b610184600480360381019061017f9190610c2b565b6105a3565b005b600260205281600052604060002081815481106101a257600080fd5b9060005260206000209060040201600091509150508060000180546101c690610cba565b80601f01602080910402602001604051908101604052809291908181526020018280546101f290610cba565b801561023f5780601f106102145761010080835404028352916020019161023f565b820191906000526020600020905b81548152906001019060200180831161022257829003601f168201915b5050505050908060010160009054906101000a900473ffffffffffffffffffffffffffffffffffffffff16908060020154908060030160009054906101000a900473ffffffffffffffffffffffffffffffffffffffff16905084565b60005481565b600160009054906101000a900473ffffffffffffffffffffffffffffffffffffffff1681565b6102cf61084a565b600260008473ffffffffffffffffffffffffffffffffffffffff1673ffffffffffffffffffffffffffffffffffffffff16815260200190815260200160002080549050821061034a576040517f63df817100000000000000000000000000000000000000000000000000000000815260040160405180910390fd5b600260008473ffffffffffffffffffffffffffffffffffffffff1673ffffffffffffffffffffffffffffffffffffffff168152602001908152602001600020828154811061039b5761039a610ceb565b5b90600052602060002090600402016040518060800160405290816000820180546103c490610cba565b80601f01602080910402602001604051908101604052809291908181526020018280546103f090610cba565b801561043d5780601f106104125761010080835404028352916020019161043d565b820191906000526020600020905b81548152906001019060200180831161042057829003601f168201915b505050505081526020016001820160009054906101000a900473ffffffffffffffffffffffffffffffffffffffff1673ffffffffffffffffffffffffffffffffffffffff1673ffffffffffffffffffffffffffffffffffffffff168152602001600282015481526020016003820160009054906101000a900473ffffffffffffffffffffffffffffffffffffffff1673ffffffffffffffffffffffffffffffffffffffff1673ffffffffffffffffffffffffffffffffffffffff1681525050905092915050565b600080600260008473ffffffffffffffffffffffffffffffffffffffff1673ffffffffffffffffffffffffffffffffffffffff168152602001908152602001600020905060005b818054905081101561059c5781818154811061056a57610569610ceb565b5b906000526020600020906004020160020154836105879190610d49565b9250808061059490610d7d565b91505061054b565b5050919050565b8273ffffffffffffffffffffffffffffffffffffffff163373ffffffffffffffffffffffffffffffffffffffff1603610608576040517f9f513f6e00000000000000000000000000000000000000000000000000000000815260040160405180910390fd5b60005434476106179190610d49565b111561064f576040517f6e04825300000000000000000000000000000000000000000000000000000000815260040160405180910390fd5b6000604051806080016040528084848080601f016020809104026020016040519081016040528093929190818152602001838380828437600081840152601f19601f8201169050808301925050505050505081526020018573ffffffffffffffffffffffffffffffffffffffff1681526020013481526020013373ffffffffffffffffffffffffffffffffffffffff168152509050600260008573ffffffffffffffffffffffffffffffffffffffff1673ffffffffffffffffffffffffffffffffffffffff16815260200190815260200160002081908060018154018082558091505060019003906000526020600020906004020160009091909190915060008201518160000190816107629190610fa0565b5060208201518160010160006101000a81548173ffffffffffffffffffffffffffffffffffffffff021916908373ffffffffffffffffffffffffffffffffffffffff1602179055506040820151816002015560608201518160030160006101000a81548173ffffffffffffffffffffffffffffffffffffffff021916908373ffffffffffffffffffffffffffffffffffffffff16021790555050508373ffffffffffffffffffffffffffffffffffffffff166108fc349081150290604051600060405180830381858888f19350505050158015610843573d6000803e3d6000fd5b5050505050565b604051806080016040528060608152602001600073ffffffffffffffffffffffffffffffffffffffff16815260200160008152602001600073ffffffffffffffffffffffffffffffffffffffff1681525090565b600080fd5b600080fd5b600073ffffffffffffffffffffffffffffffffffffffff82169050919050565b60006108d3826108a8565b9050919050565b6108e3816108c8565b81146108ee57600080fd5b50565b600081359050610900816108da565b92915050565b6000819050919050565b61091981610906565b811461092457600080fd5b50565b60008135905061093681610910565b92915050565b600080604083850312156109535761095261089e565b5b6000610961858286016108f1565b925050602061097285828601610927565b9150509250929050565b600081519050919050565b600082825260208201905092915050565b60005b838110156109b657808201518184015260208101905061099b565b60008484015250505050565b6000601f19601f8301169050919050565b60006109de8261097c565b6109e88185610987565b93506109f8818560208601610998565b610a01816109c2565b840191505092915050565b610a15816108c8565b82525050565b610a2481610906565b82525050565b60006080820190508181036000830152610a4481876109d3565b9050610a536020830186610a0c565b610a606040830185610a1b565b610a6d6060830184610a0c565b95945050505050565b6000602082019050610a8b6000830184610a1b565b92915050565b6000602082019050610aa66000830184610a0c565b92915050565b600082825260208201905092915050565b6000610ac88261097c565b610ad28185610aac565b9350610ae2818560208601610998565b610aeb816109c2565b840191505092915050565b610aff816108c8565b82525050565b610b0e81610906565b82525050565b60006080830160008301518482036000860152610b318282610abd565b9150506020830151610b466020860182610af6565b506040830151610b596040860182610b05565b506060830151610b6c6060860182610af6565b508091505092915050565b60006020820190508181036000830152610b918184610b14565b905092915050565b600060208284031215610baf57610bae61089e565b5b6000610bbd848285016108f1565b91505092915050565b600080fd5b600080fd5b600080fd5b60008083601f840112610beb57610bea610bc6565b5b8235905067ffffffffffffffff811115610c0857610c07610bcb565b5b602083019150836001820283011115610c2457610c23610bd0565b5b9250929050565b600080600060408486031215610c4457610c4361089e565b5b6000610c52868287016108f1565b935050602084013567ffffffffffffffff811115610c7357610c726108a3565b5b610c7f86828701610bd5565b92509250509250925092565b7f4e487b7100000000000000000000000000000000000000000000000000000000600052602260045260246000fd5b60006002820490506001821680610cd257607f821691505b602082108103610ce557610ce4610c8b565b5b50919050565b7f4e487b7100000000000000000000000000000000000000000000000000000000600052603260045260246000fd5b7f4e487b7100000000000000000000000000000000000000000000000000000000600052601160045260246000fd5b6000610d5482610906565b9150610d5f83610906565b9250828201905080821115610d7757610d76610d1a565b5b92915050565b6000610d8882610906565b91507fffffffffffffffffffffffffffffffffffffffffffffffffffffffffffffffff8203610dba57610db9610d1a565b5b600182019050919050565b7f4e487b7100000000000000000000000000000000000000000000000000000000600052604160045260246000fd5b60008190508160005260206000209050919050565b60006020601f8301049050919050565b600082821b905092915050565b600060088302610e567fffffffffffffffffffffffffffffffffffffffffffffffffffffffffffffffff82610e19565b610e608683610e19565b95508019841693508086168417925050509392505050565b6000819050919050565b6000610e9d610e98610e9384610906565b610e78565b610906565b9050919050565b6000819050919050565b610eb783610e82565b610ecb610ec382610ea4565b848454610e26565b825550505050565b600090565b610ee0610ed3565b610eeb818484610eae565b505050565b5b81811015610f0f57610f04600082610ed8565b600181019050610ef1565b5050565b601f821115610f5457610f2581610df4565b610f2e84610e09565b81016020851015610f3d578190505b610f51610f4985610e09565b830182610ef0565b50505b505050565b600082821c905092915050565b6000610f7760001984600802610f59565b1980831691505092915050565b6000610f908383610f66565b9150826002028217905092915050565b610fa98261097c565b67ffffffffffffffff811115610fc257610fc1610dc5565b5b610fcc8254610cba565b610fd7828285610f13565b600060209050601f83116001811461100a5760008415610ff8578287015190505b6110028582610f84565b86555061106a565b601f19841661101886610df4565b60005b828110156110405784890151825560018201915060208501945060208101905061101b565b8683101561105d5784890151611059601f891682610f66565b8355505b6001600288020188555050505b50505050505056fea264697066735822122028d94995726f38ed23023780abbca108a10ede230123481d442f0db4544e374264736f6c63430008130033",
					"opcodes": "PUSH1 0x80 PUSH1 0x40 MSTORE CALLVALUE DUP1 ISZERO PUSH3 0x11 JUMPI PUSH1 0x0 DUP1 REVERT JUMPDEST POP PUSH1 0x40 MLOAD PUSH3 0x122B CODESIZE SUB DUP1 PUSH3 0x122B DUP4 CODECOPY DUP2 DUP2 ADD PUSH1 0x40 MSTORE DUP2 ADD SWAP1 PUSH3 0x37 SWAP2 SWAP1 PUSH3 0x12C JUMP JUMPDEST DUP2 PUSH1 0x1 PUSH1 0x0 PUSH2 0x100 EXP DUP2 SLOAD DUP2 PUSH20 0xFFFFFFFFFFFFFFFFFFFFFFFFFFFFFFFFFFFFFFFF MUL NOT AND SWAP1 DUP4 PUSH20 0xFFFFFFFFFFFFFFFFFFFFFFFFFFFFFFFFFFFFFFFF AND MUL OR SWAP1 SSTORE POP DUP1 PUSH1 0x0 DUP2 SWAP1 SSTORE POP POP POP PUSH3 0x173 JUMP JUMPDEST PUSH1 0x0 DUP1 REVERT JUMPDEST PUSH1 0x0 PUSH20 0xFFFFFFFFFFFFFFFFFFFFFFFFFFFFFFFFFFFFFFFF DUP3 AND SWAP1 POP SWAP2 SWAP1 POP JUMP JUMPDEST PUSH1 0x0 PUSH3 0xB9 DUP3 PUSH3 0x8C JUMP JUMPDEST SWAP1 POP SWAP2 SWAP1 POP JUMP JUMPDEST PUSH3 0xCB DUP2 PUSH3 0xAC JUMP JUMPDEST DUP2 EQ PUSH3 0xD7 JUMPI PUSH1 0x0 DUP1 REVERT JUMPDEST POP JUMP JUMPDEST PUSH1 0x0 DUP2 MLOAD SWAP1 POP PUSH3 0xEB DUP2 PUSH3 0xC0 JUMP JUMPDEST SWAP3 SWAP2 POP POP JUMP JUMPDEST PUSH1 0x0 DUP2 SWAP1 POP SWAP2 SWAP1 POP JUMP JUMPDEST PUSH3 0x106 DUP2 PUSH3 0xF1 JUMP JUMPDEST DUP2 EQ PUSH3 0x112 JUMPI PUSH1 0x0 DUP1 REVERT JUMPDEST POP JUMP JUMPDEST PUSH1 0x0 DUP2 MLOAD SWAP1 POP PUSH3 0x126 DUP2 PUSH3 0xFB JUMP JUMPDEST SWAP3 SWAP2 POP POP JUMP JUMPDEST PUSH1 0x0 DUP1 PUSH1 0x40 DUP4 DUP6 SUB SLT ISZERO PUSH3 0x146 JUMPI PUSH3 0x145 PUSH3 0x87 JUMP JUMPDEST JUMPDEST PUSH1 0x0 PUSH3 0x156 DUP6 DUP3 DUP7 ADD PUSH3 0xDA JUMP JUMPDEST SWAP3 POP POP PUSH1 0x20 PUSH3 0x169 DUP6 DUP3 DUP7 ADD PUSH3 0x115 JUMP JUMPDEST SWAP2 POP POP SWAP3 POP SWAP3 SWAP1 POP JUMP JUMPDEST PUSH2 0x10A8 DUP1 PUSH3 0x183 PUSH1 0x0 CODECOPY PUSH1 0x0 RETURN INVALID PUSH1 0x80 PUSH1 0x40 MSTORE PUSH1 0x4 CALLDATASIZE LT PUSH2 0x55 JUMPI PUSH1 0x0 CALLDATALOAD PUSH1 0xE0 SHR DUP1 PUSH4 0x400EBCE EQ PUSH2 0x5A JUMPI DUP1 PUSH4 0x5DED61E EQ PUSH2 0x9A JUMPI DUP1 PUSH4 0x3D65AB73 EQ PUSH2 0xC5 JUMPI DUP1 PUSH4 0x6221F9B3 EQ PUSH2 0xF0 JUMPI DUP1 PUSH4 0x66D55C46 EQ PUSH2 0x12D JUMPI DUP1 PUSH4 0xE4B96982 EQ PUSH2 0x16A JUMPI JUMPDEST PUSH1 0x0 DUP1 REVERT JUMPDEST CALLVALUE DUP1 ISZERO PUSH2 0x66 JUMPI PUSH1 0x0 DUP1 REVERT JUMPDEST POP PUSH2 0x81 PUSH1 0x4 DUP1 CALLDATASIZE SUB DUP2 ADD SWAP1 PUSH2 0x7C SWAP2 SWAP1 PUSH2 0x93C JUMP JUMPDEST PUSH2 0x186 JUMP JUMPDEST PUSH1 0x40 MLOAD PUSH2 0x91 SWAP5 SWAP4 SWAP3 SWAP2 SWAP1 PUSH2 0xA2A JUMP JUMPDEST PUSH1 0x40 MLOAD DUP1 SWAP2 SUB SWAP1 RETURN JUMPDEST CALLVALUE DUP1 ISZERO PUSH2 0xA6 JUMPI PUSH1 0x0 DUP1 REVERT JUMPDEST POP PUSH2 0xAF PUSH2 0x29B JUMP JUMPDEST PUSH1 0x40 MLOAD PUSH2 0xBC SWAP2 SWAP1 PUSH2 0xA76 JUMP JUMPDEST PUSH1 0x40 MLOAD DUP1 SWAP2 SUB SWAP1 RETURN JUMPDEST CALLVALUE DUP1 ISZERO PUSH2 0xD1 JUMPI PUSH1 0x0 DUP1 REVERT JUMPDEST POP PUSH2 0xDA PUSH2 0x2A1 JUMP JUMPDEST PUSH1 0x40 MLOAD PUSH2 0xE7 SWAP2 SWAP1 PUSH2 0xA91 JUMP JUMPDEST PUSH1 0x40 MLOAD DUP1 SWAP2 SUB SWAP1 RETURN JUMPDEST CALLVALUE DUP1 ISZERO PUSH2 0xFC JUMPI PUSH1 0x0 DUP1 REVERT JUMPDEST POP PUSH2 0x117 PUSH1 0x4 DUP1 CALLDATASIZE SUB DUP2 ADD SWAP1 PUSH2 0x112 SWAP2 SWAP1 PUSH2 0x93C JUMP JUMPDEST PUSH2 0x2C7 JUMP JUMPDEST PUSH1 0x40 MLOAD PUSH2 0x124 SWAP2 SWAP1 PUSH2 0xB77 JUMP JUMPDEST PUSH1 0x40 MLOAD DUP1 SWAP2 SUB SWAP1 RETURN JUMPDEST CALLVALUE DUP1 ISZERO PUSH2 0x139 JUMPI PUSH1 0x0 DUP1 REVERT JUMPDEST POP PUSH2 0x154 PUSH1 0x4 DUP1 CALLDATASIZE SUB DUP2 ADD SWAP1 PUSH2 0x14F SWAP2 SWAP1 PUSH2 0xB99 JUMP JUMPDEST PUSH2 0x504 JUMP JUMPDEST PUSH1 0x40 MLOAD PUSH2 0x161 SWAP2 SWAP1 PUSH2 0xA76 JUMP JUMPDEST PUSH1 0x40 MLOAD DUP1 SWAP2 SUB SWAP1 RETURN JUMPDEST PUSH2 0x184 PUSH1 0x4 DUP1 CALLDATASIZE SUB DUP2 ADD SWAP1 PUSH2 0x17F SWAP2 SWAP1 PUSH2 0xC2B JUMP JUMPDEST PUSH2 0x5A3 JUMP JUMPDEST STOP JUMPDEST PUSH1 0x2 PUSH1 0x20 MSTORE DUP2 PUSH1 0x0 MSTORE PUSH1 0x40 PUSH1 0x0 KECCAK256 DUP2 DUP2 SLOAD DUP2 LT PUSH2 0x1A2 JUMPI PUSH1 0x0 DUP1 REVERT JUMPDEST SWAP1 PUSH1 0x0 MSTORE PUSH1 0x20 PUSH1 0x0 KECCAK256 SWAP1 PUSH1 0x4 MUL ADD PUSH1 0x0 SWAP2 POP SWAP2 POP POP DUP1 PUSH1 0x0 ADD DUP1 SLOAD PUSH2 0x1C6 SWAP1 PUSH2 0xCBA JUMP JUMPDEST DUP1 PUSH1 0x1F ADD PUSH1 0x20 DUP1 SWAP2 DIV MUL PUSH1 0x20 ADD PUSH1 0x40 MLOAD SWAP1 DUP2 ADD PUSH1 0x40 MSTORE DUP1 SWAP3 SWAP2 SWAP1 DUP2 DUP2 MSTORE PUSH1 0x20 ADD DUP3 DUP1 SLOAD PUSH2 0x1F2 SWAP1 PUSH2 0xCBA JUMP JUMPDEST DUP1 ISZERO PUSH2 0x23F JUMPI DUP1 PUSH1 0x1F LT PUSH2 0x214 JUMPI PUSH2 0x100 DUP1 DUP4 SLOAD DIV MUL DUP4 MSTORE SWAP2 PUSH1 0x20 ADD SWAP2 PUSH2 0x23F JUMP JUMPDEST DUP3 ADD SWAP2 SWAP1 PUSH1 0x0 MSTORE PUSH1 0x20 PUSH1 0x0 KECCAK256 SWAP1 JUMPDEST DUP2 SLOAD DUP2 MSTORE SWAP1 PUSH1 0x1 ADD SWAP1 PUSH1 0x20 ADD DUP1 DUP4 GT PUSH2 0x222 JUMPI DUP3 SWAP1 SUB PUSH1 0x1F AND DUP3 ADD SWAP2 JUMPDEST POP POP POP POP POP SWAP1 DUP1 PUSH1 0x1 ADD PUSH1 0x0 SWAP1 SLOAD SWAP1 PUSH2 0x100 EXP SWAP1 DIV PUSH20 0xFFFFFFFFFFFFFFFFFFFFFFFFFFFFFFFFFFFFFFFF AND SWAP1 DUP1 PUSH1 0x2 ADD SLOAD SWAP1 DUP1 PUSH1 0x3 ADD PUSH1 0x0 SWAP1 SLOAD SWAP1 PUSH2 0x100 EXP SWAP1 DIV PUSH20 0xFFFFFFFFFFFFFFFFFFFFFFFFFFFFFFFFFFFFFFFF AND SWAP1 POP DUP5 JUMP JUMPDEST PUSH1 0x0 SLOAD DUP2 JUMP JUMPDEST PUSH1 0x1 PUSH1 0x0 SWAP1 SLOAD SWAP1 PUSH2 0x100 EXP SWAP1 DIV PUSH20 0xFFFFFFFFFFFFFFFFFFFFFFFFFFFFFFFFFFFFFFFF AND DUP2 JUMP JUMPDEST PUSH2 0x2CF PUSH2 0x84A JUMP JUMPDEST PUSH1 0x2 PUSH1 0x0 DUP5 PUSH20 0xFFFFFFFFFFFFFFFFFFFFFFFFFFFFFFFFFFFFFFFF AND PUSH20 0xFFFFFFFFFFFFFFFFFFFFFFFFFFFFFFFFFFFFFFFF AND DUP2 MSTORE PUSH1 0x20 ADD SWAP1 DUP2 MSTORE PUSH1 0x20 ADD PUSH1 0x0 KECCAK256 DUP1 SLOAD SWAP1 POP DUP3 LT PUSH2 0x34A JUMPI PUSH1 0x40 MLOAD PUSH32 0x63DF817100000000000000000000000000000000000000000000000000000000 DUP2 MSTORE PUSH1 0x4 ADD PUSH1 0x40 MLOAD DUP1 SWAP2 SUB SWAP1 REVERT JUMPDEST PUSH1 0x2 PUSH1 0x0 DUP5 PUSH20 0xFFFFFFFFFFFFFFFFFFFFFFFFFFFFFFFFFFFFFFFF AND PUSH20 0xFFFFFFFFFFFFFFFFFFFFFFFFFFFFFFFFFFFFFFFF AND DUP2 MSTORE PUSH1 0x20 ADD SWAP1 DUP2 MSTORE PUSH1 0x20 ADD PUSH1 0x0 KECCAK256 DUP3 DUP2 SLOAD DUP2 LT PUSH2 0x39B JUMPI PUSH2 0x39A PUSH2 0xCEB JUMP JUMPDEST JUMPDEST SWAP1 PUSH1 0x0 MSTORE PUSH1 0x20 PUSH1 0x0 KECCAK256 SWAP1 PUSH1 0x4 MUL ADD PUSH1 0x40 MLOAD DUP1 PUSH1 0x80 ADD PUSH1 0x40 MSTORE SWAP1 DUP2 PUSH1 0x0 DUP3 ADD DUP1 SLOAD PUSH2 0x3C4 SWAP1 PUSH2 0xCBA JUMP JUMPDEST DUP1 PUSH1 0x1F ADD PUSH1 0x20 DUP1 SWAP2 DIV MUL PUSH1 0x20 ADD PUSH1 0x40 MLOAD SWAP1 DUP2 ADD PUSH1 0x40 MSTORE DUP1 SWAP3 SWAP2 SWAP1 DUP2 DUP2 MSTORE PUSH1 0x20 ADD DUP3 DUP1 SLOAD PUSH2 0x3F0 SWAP1 PUSH2 0xCBA JUMP JUMPDEST DUP1 ISZERO PUSH2 0x43D JUMPI DUP1 PUSH1 0x1F LT PUSH2 0x412 JUMPI PUSH2 0x100 DUP1 DUP4 SLOAD DIV MUL DUP4 MSTORE SWAP2 PUSH1 0x20 ADD SWAP2 PUSH2 0x43D JUMP JUMPDEST DUP3 ADD SWAP2 SWAP1 PUSH1 0x0 MSTORE PUSH1 0x20 PUSH1 0x0 KECCAK256 SWAP1 JUMPDEST DUP2 SLOAD DUP2 MSTORE SWAP1 PUSH1 0x1 ADD SWAP1 PUSH1 0x20 ADD DUP1 DUP4 GT PUSH2 0x420 JUMPI DUP3 SWAP1 SUB PUSH1 0x1F AND DUP3 ADD SWAP2 JUMPDEST POP POP POP POP POP DUP2 MSTORE PUSH1 0x20 ADD PUSH1 0x1 DUP3 ADD PUSH1 0x0 SWAP1 SLOAD SWAP1 PUSH2 0x100 EXP SWAP1 DIV PUSH20 0xFFFFFFFFFFFFFFFFFFFFFFFFFFFFFFFFFFFFFFFF AND PUSH20 0xFFFFFFFFFFFFFFFFFFFFFFFFFFFFFFFFFFFFFFFF AND PUSH20 0xFFFFFFFFFFFFFFFFFFFFFFFFFFFFFFFFFFFFFFFF AND DUP2 MSTORE PUSH1 0x20 ADD PUSH1 0x2 DUP3 ADD SLOAD DUP2 MSTORE PUSH1 0x20 ADD PUSH1 0x3 DUP3 ADD PUSH1 0x0 SWAP1 SLOAD SWAP1 PUSH2 0x100 EXP SWAP1 DIV PUSH20 0xFFFFFFFFFFFFFFFFFFFFFFFFFFFFFFFFFFFFFFFF AND PUSH20 0xFFFFFFFFFFFFFFFFFFFFFFFFFFFFFFFFFFFFFFFF AND PUSH20 0xFFFFFFFFFFFFFFFFFFFFFFFFFFFFFFFFFFFFFFFF AND DUP2 MSTORE POP POP SWAP1 POP SWAP3 SWAP2 POP POP JUMP JUMPDEST PUSH1 0x0 DUP1 PUSH1 0x2 PUSH1 0x0 DUP5 PUSH20 0xFFFFFFFFFFFFFFFFFFFFFFFFFFFFFFFFFFFFFFFF AND PUSH20 0xFFFFFFFFFFFFFFFFFFFFFFFFFFFFFFFFFFFFFFFF AND DUP2 MSTORE PUSH1 0x20 ADD SWAP1 DUP2 MSTORE PUSH1 0x20 ADD PUSH1 0x0 KECCAK256 SWAP1 POP PUSH1 0x0 JUMPDEST DUP2 DUP1 SLOAD SWAP1 POP DUP2 LT ISZERO PUSH2 0x59C JUMPI DUP2 DUP2 DUP2 SLOAD DUP2 LT PUSH2 0x56A JUMPI PUSH2 0x569 PUSH2 0xCEB JUMP JUMPDEST JUMPDEST SWAP1 PUSH1 0x0 MSTORE PUSH1 0x20 PUSH1 0x0 KECCAK256 SWAP1 PUSH1 0x4 MUL ADD PUSH1 0x2 ADD SLOAD DUP4 PUSH2 0x587 SWAP2 SWAP1 PUSH2 0xD49 JUMP JUMPDEST SWAP3 POP DUP1 DUP1 PUSH2 0x594 SWAP1 PUSH2 0xD7D JUMP JUMPDEST SWAP2 POP POP PUSH2 0x54B JUMP JUMPDEST POP POP SWAP2 SWAP1 POP JUMP JUMPDEST DUP3 PUSH20 0xFFFFFFFFFFFFFFFFFFFFFFFFFFFFFFFFFFFFFFFF AND CALLER PUSH20 0xFFFFFFFFFFFFFFFFFFFFFFFFFFFFFFFFFFFFFFFF AND SUB PUSH2 0x608 JUMPI PUSH1 0x40 MLOAD PUSH32 0x9F513F6E00000000000000000000000000000000000000000000000000000000 DUP2 MSTORE PUSH1 0x4 ADD PUSH1 0x40 MLOAD DUP1 SWAP2 SUB SWAP1 REVERT JUMPDEST PUSH1 0x0 SLOAD CALLVALUE SELFBALANCE PUSH2 0x617 SWAP2 SWAP1 PUSH2 0xD49 JUMP JUMPDEST GT ISZERO PUSH2 0x64F JUMPI PUSH1 0x40 MLOAD PUSH32 0x6E04825300000000000000000000000000000000000000000000000000000000 DUP2 MSTORE PUSH1 0x4 ADD PUSH1 0x40 MLOAD DUP1 SWAP2 SUB SWAP1 REVERT JUMPDEST PUSH1 0x0 PUSH1 0x40 MLOAD DUP1 PUSH1 0x80 ADD PUSH1 0x40 MSTORE DUP1 DUP5 DUP5 DUP1 DUP1 PUSH1 0x1F ADD PUSH1 0x20 DUP1 SWAP2 DIV MUL PUSH1 0x20 ADD PUSH1 0x40 MLOAD SWAP1 DUP2 ADD PUSH1 0x40 MSTORE DUP1 SWAP4 SWAP3 SWAP2 SWAP1 DUP2 DUP2 MSTORE PUSH1 0x20 ADD DUP4 DUP4 DUP1 DUP3 DUP5 CALLDATACOPY PUSH1 0x0 DUP2 DUP5 ADD MSTORE PUSH1 0x1F NOT PUSH1 0x1F DUP3 ADD AND SWAP1 POP DUP1 DUP4 ADD SWAP3 POP POP POP POP POP POP POP DUP2 MSTORE PUSH1 0x20 ADD DUP6 PUSH20 0xFFFFFFFFFFFFFFFFFFFFFFFFFFFFFFFFFFFFFFFF AND DUP2 MSTORE PUSH1 0x20 ADD CALLVALUE DUP2 MSTORE PUSH1 0x20 ADD CALLER PUSH20 0xFFFFFFFFFFFFFFFFFFFFFFFFFFFFFFFFFFFFFFFF AND DUP2 MSTORE POP SWAP1 POP PUSH1 0x2 PUSH1 0x0 DUP6 PUSH20 0xFFFFFFFFFFFFFFFFFFFFFFFFFFFFFFFFFFFFFFFF AND PUSH20 0xFFFFFFFFFFFFFFFFFFFFFFFFFFFFFFFFFFFFFFFF AND DUP2 MSTORE PUSH1 0x20 ADD SWAP1 DUP2 MSTORE PUSH1 0x20 ADD PUSH1 0x0 KECCAK256 DUP2 SWAP1 DUP1 PUSH1 0x1 DUP2 SLOAD ADD DUP1 DUP3 SSTORE DUP1 SWAP2 POP POP PUSH1 0x1 SWAP1 SUB SWAP1 PUSH1 0x0 MSTORE PUSH1 0x20 PUSH1 0x0 KECCAK256 SWAP1 PUSH1 0x4 MUL ADD PUSH1 0x0 SWAP1 SWAP2 SWAP1 SWAP2 SWAP1 SWAP2 POP PUSH1 0x0 DUP3 ADD MLOAD DUP2 PUSH1 0x0 ADD SWAP1 DUP2 PUSH2 0x762 SWAP2 SWAP1 PUSH2 0xFA0 JUMP JUMPDEST POP PUSH1 0x20 DUP3 ADD MLOAD DUP2 PUSH1 0x1 ADD PUSH1 0x0 PUSH2 0x100 EXP DUP2 SLOAD DUP2 PUSH20 0xFFFFFFFFFFFFFFFFFFFFFFFFFFFFFFFFFFFFFFFF MUL NOT AND SWAP1 DUP4 PUSH20 0xFFFFFFFFFFFFFFFFFFFFFFFFFFFFFFFFFFFFFFFF AND MUL OR SWAP1 SSTORE POP PUSH1 0x40 DUP3 ADD MLOAD DUP2 PUSH1 0x2 ADD SSTORE PUSH1 0x60 DUP3 ADD MLOAD DUP2 PUSH1 0x3 ADD PUSH1 0x0 PUSH2 0x100 EXP DUP2 SLOAD DUP2 PUSH20 0xFFFFFFFFFFFFFFFFFFFFFFFFFFFFFFFFFFFFFFFF MUL NOT AND SWAP1 DUP4 PUSH20 0xFFFFFFFFFFFFFFFFFFFFFFFFFFFFFFFFFFFFFFFF AND MUL OR SWAP1 SSTORE POP POP POP DUP4 PUSH20 0xFFFFFFFFFFFFFFFFFFFFFFFFFFFFFFFFFFFFFFFF AND PUSH2 0x8FC CALLVALUE SWAP1 DUP2 ISZERO MUL SWAP1 PUSH1 0x40 MLOAD PUSH1 0x0 PUSH1 0x40 MLOAD DUP1 DUP4 SUB DUP2 DUP6 DUP9 DUP9 CALL SWAP4 POP POP POP POP ISZERO DUP1 ISZERO PUSH2 0x843 JUMPI RETURNDATASIZE PUSH1 0x0 DUP1 RETURNDATACOPY RETURNDATASIZE PUSH1 0x0 REVERT JUMPDEST POP POP POP POP POP JUMP JUMPDEST PUSH1 0x40 MLOAD DUP1 PUSH1 0x80 ADD PUSH1 0x40 MSTORE DUP1 PUSH1 0x60 DUP2 MSTORE PUSH1 0x20 ADD PUSH1 0x0 PUSH20 0xFFFFFFFFFFFFFFFFFFFFFFFFFFFFFFFFFFFFFFFF AND DUP2 MSTORE PUSH1 0x20 ADD PUSH1 0x0 DUP2 MSTORE PUSH1 0x20 ADD PUSH1 0x0 PUSH20 0xFFFFFFFFFFFFFFFFFFFFFFFFFFFFFFFFFFFFFFFF AND DUP2 MSTORE POP SWAP1 JUMP JUMPDEST PUSH1 0x0 DUP1 REVERT JUMPDEST PUSH1 0x0 DUP1 REVERT JUMPDEST PUSH1 0x0 PUSH20 0xFFFFFFFFFFFFFFFFFFFFFFFFFFFFFFFFFFFFFFFF DUP3 AND SWAP1 POP SWAP2 SWAP1 POP JUMP JUMPDEST PUSH1 0x0 PUSH2 0x8D3 DUP3 PUSH2 0x8A8 JUMP JUMPDEST SWAP1 POP SWAP2 SWAP1 POP JUMP JUMPDEST PUSH2 0x8E3 DUP2 PUSH2 0x8C8 JUMP JUMPDEST DUP2 EQ PUSH2 0x8EE JUMPI PUSH1 0x0 DUP1 REVERT JUMPDEST POP JUMP JUMPDEST PUSH1 0x0 DUP2 CALLDATALOAD SWAP1 POP PUSH2 0x900 DUP2 PUSH2 0x8DA JUMP JUMPDEST SWAP3 SWAP2 POP POP JUMP JUMPDEST PUSH1 0x0 DUP2 SWAP1 POP SWAP2 SWAP1 POP JUMP JUMPDEST PUSH2 0x919 DUP2 PUSH2 0x906 JUMP JUMPDEST DUP2 EQ PUSH2 0x924 JUMPI PUSH1 0x0 DUP1 REVERT JUMPDEST POP JUMP JUMPDEST PUSH1 0x0 DUP2 CALLDATALOAD SWAP1 POP PUSH2 0x936 DUP2 PUSH2 0x910 JUMP JUMPDEST SWAP3 SWAP2 POP POP JUMP JUMPDEST PUSH1 0x0 DUP1 PUSH1 0x40 DUP4 DUP6 SUB SLT ISZERO PUSH2 0x953 JUMPI PUSH2 0x952 PUSH2 0x89E JUMP JUMPDEST JUMPDEST PUSH1 0x0 PUSH2 0x961 DUP6 DUP3 DUP7 ADD PUSH2 0x8F1 JUMP JUMPDEST SWAP3 POP POP PUSH1 0x20 PUSH2 0x972 DUP6 DUP3 DUP7 ADD PUSH2 0x927 JUMP JUMPDEST SWAP2 POP POP SWAP3 POP SWAP3 SWAP1 POP JUMP JUMPDEST PUSH1 0x0 DUP2 MLOAD SWAP1 POP SWAP2 SWAP1 POP JUMP JUMPDEST PUSH1 0x0 DUP3 DUP3 MSTORE PUSH1 0x20 DUP3 ADD SWAP1 POP SWAP3 SWAP2 POP POP JUMP JUMPDEST PUSH1 0x0 JUMPDEST DUP4 DUP2 LT ISZERO PUSH2 0x9B6 JUMPI DUP1 DUP3 ADD MLOAD DUP2 DUP5 ADD MSTORE PUSH1 0x20 DUP2 ADD SWAP1 POP PUSH2 0x99B JUMP JUMPDEST PUSH1 0x0 DUP5 DUP5 ADD MSTORE POP POP POP POP JUMP JUMPDEST PUSH1 0x0 PUSH1 0x1F NOT PUSH1 0x1F DUP4 ADD AND SWAP1 POP SWAP2 SWAP1 POP JUMP JUMPDEST PUSH1 0x0 PUSH2 0x9DE DUP3 PUSH2 0x97C JUMP JUMPDEST PUSH2 0x9E8 DUP2 DUP6 PUSH2 0x987 JUMP JUMPDEST SWAP4 POP PUSH2 0x9F8 DUP2 DUP6 PUSH1 0x20 DUP7 ADD PUSH2 0x998 JUMP JUMPDEST PUSH2 0xA01 DUP2 PUSH2 0x9C2 JUMP JUMPDEST DUP5 ADD SWAP2 POP POP SWAP3 SWAP2 POP POP JUMP JUMPDEST PUSH2 0xA15 DUP2 PUSH2 0x8C8 JUMP JUMPDEST DUP3 MSTORE POP POP JUMP JUMPDEST PUSH2 0xA24 DUP2 PUSH2 0x906 JUMP JUMPDEST DUP3 MSTORE POP POP JUMP JUMPDEST PUSH1 0x0 PUSH1 0x80 DUP3 ADD SWAP1 POP DUP2 DUP2 SUB PUSH1 0x0 DUP4 ADD MSTORE PUSH2 0xA44 DUP2 DUP8 PUSH2 0x9D3 JUMP JUMPDEST SWAP1 POP PUSH2 0xA53 PUSH1 0x20 DUP4 ADD DUP7 PUSH2 0xA0C JUMP JUMPDEST PUSH2 0xA60 PUSH1 0x40 DUP4 ADD DUP6 PUSH2 0xA1B JUMP JUMPDEST PUSH2 0xA6D PUSH1 0x60 DUP4 ADD DUP5 PUSH2 0xA0C JUMP JUMPDEST SWAP6 SWAP5 POP POP POP POP POP JUMP JUMPDEST PUSH1 0x0 PUSH1 0x20 DUP3 ADD SWAP1 POP PUSH2 0xA8B PUSH1 0x0 DUP4 ADD DUP5 PUSH2 0xA1B JUMP JUMPDEST SWAP3 SWAP2 POP POP JUMP JUMPDEST PUSH1 0x0 PUSH1 0x20 DUP3 ADD SWAP1 POP PUSH2 0xAA6 PUSH1 0x0 DUP4 ADD DUP5 PUSH2 0xA0C JUMP JUMPDEST SWAP3 SWAP2 POP POP JUMP JUMPDEST PUSH1 0x0 DUP3 DUP3 MSTORE PUSH1 0x20 DUP3 ADD SWAP1 POP SWAP3 SWAP2 POP POP JUMP JUMPDEST PUSH1 0x0 PUSH2 0xAC8 DUP3 PUSH2 0x97C JUMP JUMPDEST PUSH2 0xAD2 DUP2 DUP6 PUSH2 0xAAC JUMP JUMPDEST SWAP4 POP PUSH2 0xAE2 DUP2 DUP6 PUSH1 0x20 DUP7 ADD PUSH2 0x998 JUMP JUMPDEST PUSH2 0xAEB DUP2 PUSH2 0x9C2 JUMP JUMPDEST DUP5 ADD SWAP2 POP POP SWAP3 SWAP2 POP POP JUMP JUMPDEST PUSH2 0xAFF DUP2 PUSH2 0x8C8 JUMP JUMPDEST DUP3 MSTORE POP POP JUMP JUMPDEST PUSH2 0xB0E DUP2 PUSH2 0x906 JUMP JUMPDEST DUP3 MSTORE POP POP JUMP JUMPDEST PUSH1 0x0 PUSH1 0x80 DUP4 ADD PUSH1 0x0 DUP4 ADD MLOAD DUP5 DUP3 SUB PUSH1 0x0 DUP7 ADD MSTORE PUSH2 0xB31 DUP3 DUP3 PUSH2 0xABD JUMP JUMPDEST SWAP2 POP POP PUSH1 0x20 DUP4 ADD MLOAD PUSH2 0xB46 PUSH1 0x20 DUP7 ADD DUP3 PUSH2 0xAF6 JUMP JUMPDEST POP PUSH1 0x40 DUP4 ADD MLOAD PUSH2 0xB59 PUSH1 0x40 DUP7 ADD DUP3 PUSH2 0xB05 JUMP JUMPDEST POP PUSH1 0x60 DUP4 ADD MLOAD PUSH2 0xB6C PUSH1 0x60 DUP7 ADD DUP3 PUSH2 0xAF6 JUMP JUMPDEST POP DUP1 SWAP2 POP POP SWAP3 SWAP2 POP POP JUMP JUMPDEST PUSH1 0x0 PUSH1 0x20 DUP3 ADD SWAP1 POP DUP2 DUP2 SUB PUSH1 0x0 DUP4 ADD MSTORE PUSH2 0xB91 DUP2 DUP5 PUSH2 0xB14 JUMP JUMPDEST SWAP1 POP SWAP3 SWAP2 POP POP JUMP JUMPDEST PUSH1 0x0 PUSH1 0x20 DUP3 DUP5 SUB SLT ISZERO PUSH2 0xBAF JUMPI PUSH2 0xBAE PUSH2 0x89E JUMP JUMPDEST JUMPDEST PUSH1 0x0 PUSH2 0xBBD DUP5 DUP3 DUP6 ADD PUSH2 0x8F1 JUMP JUMPDEST SWAP2 POP POP SWAP3 SWAP2 POP POP JUMP JUMPDEST PUSH1 0x0 DUP1 REVERT JUMPDEST PUSH1 0x0 DUP1 REVERT JUMPDEST PUSH1 0x0 DUP1 REVERT JUMPDEST PUSH1 0x0 DUP1 DUP4 PUSH1 0x1F DUP5 ADD SLT PUSH2 0xBEB JUMPI PUSH2 0xBEA PUSH2 0xBC6 JUMP JUMPDEST JUMPDEST DUP3 CALLDATALOAD SWAP1 POP PUSH8 0xFFFFFFFFFFFFFFFF DUP2 GT ISZERO PUSH2 0xC08 JUMPI PUSH2 0xC07 PUSH2 0xBCB JUMP JUMPDEST JUMPDEST PUSH1 0x20 DUP4 ADD SWAP2 POP DUP4 PUSH1 0x1 DUP3 MUL DUP4 ADD GT ISZERO PUSH2 0xC24 JUMPI PUSH2 0xC23 PUSH2 0xBD0 JUMP JUMPDEST JUMPDEST SWAP3 POP SWAP3 SWAP1 POP JUMP JUMPDEST PUSH1 0x0 DUP1 PUSH1 0x0 PUSH1 0x40 DUP5 DUP7 SUB SLT ISZERO PUSH2 0xC44 JUMPI PUSH2 0xC43 PUSH2 0x89E JUMP JUMPDEST JUMPDEST PUSH1 0x0 PUSH2 0xC52 DUP7 DUP3 DUP8 ADD PUSH2 0x8F1 JUMP JUMPDEST SWAP4 POP POP PUSH1 0x20 DUP5 ADD CALLDATALOAD PUSH8 0xFFFFFFFFFFFFFFFF DUP2 GT ISZERO PUSH2 0xC73 JUMPI PUSH2 0xC72 PUSH2 0x8A3 JUMP JUMPDEST JUMPDEST PUSH2 0xC7F DUP7 DUP3 DUP8 ADD PUSH2 0xBD5 JUMP JUMPDEST SWAP3 POP SWAP3 POP POP SWAP3 POP SWAP3 POP SWAP3 JUMP JUMPDEST PUSH32 0x4E487B7100000000000000000000000000000000000000000000000000000000 PUSH1 0x0 MSTORE PUSH1 0x22 PUSH1 0x4 MSTORE PUSH1 0x24 PUSH1 0x0 REVERT JUMPDEST PUSH1 0x0 PUSH1 0x2 DUP3 DIV SWAP1 POP PUSH1 0x1 DUP3 AND DUP1 PUSH2 0xCD2 JUMPI PUSH1 0x7F DUP3 AND SWAP2 POP JUMPDEST PUSH1 0x20 DUP3 LT DUP2 SUB PUSH2 0xCE5 JUMPI PUSH2 0xCE4 PUSH2 0xC8B JUMP JUMPDEST JUMPDEST POP SWAP2 SWAP1 POP JUMP JUMPDEST PUSH32 0x4E487B7100000000000000000000000000000000000000000000000000000000 PUSH1 0x0 MSTORE PUSH1 0x32 PUSH1 0x4 MSTORE PUSH1 0x24 PUSH1 0x0 REVERT JUMPDEST PUSH32 0x4E487B7100000000000000000000000000000000000000000000000000000000 PUSH1 0x0 MSTORE PUSH1 0x11 PUSH1 0x4 MSTORE PUSH1 0x24 PUSH1 0x0 REVERT JUMPDEST PUSH1 0x0 PUSH2 0xD54 DUP3 PUSH2 0x906 JUMP JUMPDEST SWAP2 POP PUSH2 0xD5F DUP4 PUSH2 0x906 JUMP JUMPDEST SWAP3 POP DUP3 DUP3 ADD SWAP1 POP DUP1 DUP3 GT ISZERO PUSH2 0xD77 JUMPI PUSH2 0xD76 PUSH2 0xD1A JUMP JUMPDEST JUMPDEST SWAP3 SWAP2 POP POP JUMP JUMPDEST PUSH1 0x0 PUSH2 0xD88 DUP3 PUSH2 0x906 JUMP JUMPDEST SWAP2 POP PUSH32 0xFFFFFFFFFFFFFFFFFFFFFFFFFFFFFFFFFFFFFFFFFFFFFFFFFFFFFFFFFFFFFFFF DUP3 SUB PUSH2 0xDBA JUMPI PUSH2 0xDB9 PUSH2 0xD1A JUMP JUMPDEST JUMPDEST PUSH1 0x1 DUP3 ADD SWAP1 POP SWAP2 SWAP1 POP JUMP JUMPDEST PUSH32 0x4E487B7100000000000000000000000000000000000000000000000000000000 PUSH1 0x0 MSTORE PUSH1 0x41 PUSH1 0x4 MSTORE PUSH1 0x24 PUSH1 0x0 REVERT JUMPDEST PUSH1 0x0 DUP2 SWAP1 POP DUP2 PUSH1 0x0 MSTORE PUSH1 0x20 PUSH1 0x0 KECCAK256 SWAP1 POP SWAP2 SWAP1 POP JUMP JUMPDEST PUSH1 0x0 PUSH1 0x20 PUSH1 0x1F DUP4 ADD DIV SWAP1 POP SWAP2 SWAP1 POP JUMP JUMPDEST PUSH1 0x0 DUP3 DUP3 SHL SWAP1 POP SWAP3 SWAP2 POP POP JUMP JUMPDEST PUSH1 0x0 PUSH1 0x8 DUP4 MUL PUSH2 0xE56 PUSH32 0xFFFFFFFFFFFFFFFFFFFFFFFFFFFFFFFFFFFFFFFFFFFFFFFFFFFFFFFFFFFFFFFF DUP3 PUSH2 0xE19 JUMP JUMPDEST PUSH2 0xE60 DUP7 DUP4 PUSH2 0xE19 JUMP JUMPDEST SWAP6 POP DUP1 NOT DUP5 AND SWAP4 POP DUP1 DUP7 AND DUP5 OR SWAP3 POP POP POP SWAP4 SWAP3 POP POP POP JUMP JUMPDEST PUSH1 0x0 DUP2 SWAP1 POP SWAP2 SWAP1 POP JUMP JUMPDEST PUSH1 0x0 PUSH2 0xE9D PUSH2 0xE98 PUSH2 0xE93 DUP5 PUSH2 0x906 JUMP JUMPDEST PUSH2 0xE78 JUMP JUMPDEST PUSH2 0x906 JUMP JUMPDEST SWAP1 POP SWAP2 SWAP1 POP JUMP JUMPDEST PUSH1 0x0 DUP2 SWAP1 POP SWAP2 SWAP1 POP JUMP JUMPDEST PUSH2 0xEB7 DUP4 PUSH2 0xE82 JUMP JUMPDEST PUSH2 0xECB PUSH2 0xEC3 DUP3 PUSH2 0xEA4 JUMP JUMPDEST DUP5 DUP5 SLOAD PUSH2 0xE26 JUMP JUMPDEST DUP3 SSTORE POP POP POP POP JUMP JUMPDEST PUSH1 0x0 SWAP1 JUMP JUMPDEST PUSH2 0xEE0 PUSH2 0xED3 JUMP JUMPDEST PUSH2 0xEEB DUP2 DUP5 DUP5 PUSH2 0xEAE JUMP JUMPDEST POP POP POP JUMP JUMPDEST JUMPDEST DUP2 DUP2 LT ISZERO PUSH2 0xF0F JUMPI PUSH2 0xF04 PUSH1 0x0 DUP3 PUSH2 0xED8 JUMP JUMPDEST PUSH1 0x1 DUP2 ADD SWAP1 POP PUSH2 0xEF1 JUMP JUMPDEST POP POP JUMP JUMPDEST PUSH1 0x1F DUP3 GT ISZERO PUSH2 0xF54 JUMPI PUSH2 0xF25 DUP2 PUSH2 0xDF4 JUMP JUMPDEST PUSH2 0xF2E DUP5 PUSH2 0xE09 JUMP JUMPDEST DUP2 ADD PUSH1 0x20 DUP6 LT ISZERO PUSH2 0xF3D JUMPI DUP2 SWAP1 POP JUMPDEST PUSH2 0xF51 PUSH2 0xF49 DUP6 PUSH2 0xE09 JUMP JUMPDEST DUP4 ADD DUP3 PUSH2 0xEF0 JUMP JUMPDEST POP POP JUMPDEST POP POP POP JUMP JUMPDEST PUSH1 0x0 DUP3 DUP3 SHR SWAP1 POP SWAP3 SWAP2 POP POP JUMP JUMPDEST PUSH1 0x0 PUSH2 0xF77 PUSH1 0x0 NOT DUP5 PUSH1 0x8 MUL PUSH2 0xF59 JUMP JUMPDEST NOT DUP1 DUP4 AND SWAP2 POP POP SWAP3 SWAP2 POP POP JUMP JUMPDEST PUSH1 0x0 PUSH2 0xF90 DUP4 DUP4 PUSH2 0xF66 JUMP JUMPDEST SWAP2 POP DUP3 PUSH1 0x2 MUL DUP3 OR SWAP1 POP SWAP3 SWAP2 POP POP JUMP JUMPDEST PUSH2 0xFA9 DUP3 PUSH2 0x97C JUMP JUMPDEST PUSH8 0xFFFFFFFFFFFFFFFF DUP2 GT ISZERO PUSH2 0xFC2 JUMPI PUSH2 0xFC1 PUSH2 0xDC5 JUMP JUMPDEST JUMPDEST PUSH2 0xFCC DUP3 SLOAD PUSH2 0xCBA JUMP JUMPDEST PUSH2 0xFD7 DUP3 DUP3 DUP6 PUSH2 0xF13 JUMP JUMPDEST PUSH1 0x0 PUSH1 0x20 SWAP1 POP PUSH1 0x1F DUP4 GT PUSH1 0x1 DUP2 EQ PUSH2 0x100A JUMPI PUSH1 0x0 DUP5 ISZERO PUSH2 0xFF8 JUMPI DUP3 DUP8 ADD MLOAD SWAP1 POP JUMPDEST PUSH2 0x1002 DUP6 DUP3 PUSH2 0xF84 JUMP JUMPDEST DUP7 SSTORE POP PUSH2 0x106A JUMP JUMPDEST PUSH1 0x1F NOT DUP5 AND PUSH2 0x1018 DUP7 PUSH2 0xDF4 JUMP JUMPDEST PUSH1 0x0 JUMPDEST DUP3 DUP2 LT ISZERO PUSH2 0x1040 JUMPI DUP5 DUP10 ADD MLOAD DUP3 SSTORE PUSH1 0x1 DUP3 ADD SWAP2 POP PUSH1 0x20 DUP6 ADD SWAP5 POP PUSH1 0x20 DUP2 ADD SWAP1 POP PUSH2 0x101B JUMP JUMPDEST DUP7 DUP4 LT ISZERO PUSH2 0x105D JUMPI DUP5 DUP10 ADD MLOAD PUSH2 0x1059 PUSH1 0x1F DUP10 AND DUP3 PUSH2 0xF66 JUMP JUMPDEST DUP4 SSTORE POP JUMPDEST PUSH1 0x1 PUSH1 0x2 DUP9 MUL ADD DUP9 SSTORE POP POP POP JUMPDEST POP POP POP POP POP POP JUMP INVALID LOG2 PUSH5 0x6970667358 0x22 SLT KECCAK256 0x28 0xD9 0x49 SWAP6 PUSH19 0x6F38ED23023780ABBCA108A10EDE230123481D PREVRANDAO 0x2F 0xD 0xB4 SLOAD 0x4E CALLDATACOPY TIMESTAMP PUSH5 0x736F6C6343 STOP ADDMOD SGT STOP CALLER "
				},
				"gasEstimates": {
					"creation": {
						"codeDepositCost": "852800",
						"executionCost": "infinite",
						"totalCost": "infinite"
					},
					"external": {
						"amountQuota()": "2429",
						"createFund(address,string)": "infinite",
						"fundingOwner()": "2536",
						"fundsByReceiver(address,uint256)": "infinite",
						"getFundDetails(address,uint256)": "infinite",
						"getTotalFundsByReceiver(address)": "infinite"
					}
				},
				"methodIdentifiers": {
					"amountQuota()": "05ded61e",
					"createFund(address,string)": "e4b96982",
					"fundingOwner()": "3d65ab73",
					"fundsByReceiver(address,uint256)": "0400ebce",
					"getFundDetails(address,uint256)": "6221f9b3",
					"getTotalFundsByReceiver(address)": "66d55c46"
				}
			},
			"storageLayout": {
				"storage": [
					{
						"astId": 18,
						"contract": "FundTheCourse/Main.sol:FundTheCourse",
						"label": "amountQuota",
						"offset": 0,
						"slot": "0",
						"type": "t_uint256"
					},
					{
						"astId": 20,
						"contract": "FundTheCourse/Main.sol:FundTheCourse",
						"label": "fundingOwner",
						"offset": 0,
						"slot": "1",
						"type": "t_address"
					},
					{
						"astId": 42,
						"contract": "FundTheCourse/Main.sol:FundTheCourse",
						"label": "fundsByReceiver",
						"offset": 0,
						"slot": "2",
						"type": "t_mapping(t_address,t_array(t_struct(CourseFund)16_storage)dyn_storage)"
					}
				],
				"types": {
					"t_address": {
						"encoding": "inplace",
						"label": "address",
						"numberOfBytes": "20"
					},
					"t_array(t_struct(CourseFund)16_storage)dyn_storage": {
						"base": "t_struct(CourseFund)16_storage",
						"encoding": "dynamic_array",
						"label": "struct FundTheCourse.CourseFund[]",
						"numberOfBytes": "32"
					},
					"t_mapping(t_address,t_array(t_struct(CourseFund)16_storage)dyn_storage)": {
						"encoding": "mapping",
						"key": "t_address",
						"label": "mapping(address => struct FundTheCourse.CourseFund[])",
						"numberOfBytes": "32",
						"value": "t_array(t_struct(CourseFund)16_storage)dyn_storage"
					},
					"t_string_storage": {
						"encoding": "bytes",
						"label": "string",
						"numberOfBytes": "32"
					},
					"t_struct(CourseFund)16_storage": {
						"encoding": "inplace",
						"label": "struct FundTheCourse.CourseFund",
						"members": [
							{
								"astId": 9,
								"contract": "FundTheCourse/Main.sol:FundTheCourse",
								"label": "courseName",
								"offset": 0,
								"slot": "0",
								"type": "t_string_storage"
							},
							{
								"astId": 11,
								"contract": "FundTheCourse/Main.sol:FundTheCourse",
								"label": "receiver",
								"offset": 0,
								"slot": "1",
								"type": "t_address"
							},
							{
								"astId": 13,
								"contract": "FundTheCourse/Main.sol:FundTheCourse",
								"label": "amountFunded",
								"offset": 0,
								"slot": "2",
								"type": "t_uint256"
							},
							{
								"astId": 15,
								"contract": "FundTheCourse/Main.sol:FundTheCourse",
								"label": "funder",
								"offset": 0,
								"slot": "3",
								"type": "t_address"
							}
						],
						"numberOfBytes": "128"
					},
					"t_uint256": {
						"encoding": "inplace",
						"label": "uint256",
						"numberOfBytes": "32"
					}
				}
			},
			"userdoc": {
				"kind": "user",
				"methods": {},
				"version": 1
			}
		}
	}
}