{
	"FundTheCourse/Subordinate.sol": {
		"ExtendWallet": {
			"abi": [
				{
					"inputs": [
						{
							"internalType": "address",
							"name": "_courseInstance",
							"type": "address"
						}
					],
					"stateMutability": "nonpayable",
					"type": "constructor"
				},
				{
					"stateMutability": "payable",
					"type": "fallback"
				},
				{
					"inputs": [],
					"name": "courseInstance",
					"outputs": [
						{
							"internalType": "contract FundTheCourse",
							"name": "",
							"type": "address"
						}
					],
					"stateMutability": "view",
					"type": "function"
				},
				{
					"inputs": [
						{
							"internalType": "address",
							"name": "_receiver",
							"type": "address"
						},
						{
							"internalType": "string",
							"name": "_courseName",
							"type": "string"
						}
					],
					"name": "createCallback",
					"outputs": [],
					"stateMutability": "payable",
					"type": "function"
				},
				{
					"inputs": [],
					"name": "getBalance",
					"outputs": [
						{
							"internalType": "uint256",
							"name": "",
							"type": "uint256"
						}
					],
					"stateMutability": "view",
					"type": "function"
				},
				{
					"stateMutability": "payable",
					"type": "receive"
				}
			],
			"devdoc": {
				"kind": "dev",
				"methods": {},
				"version": 1
			},
			"evm": {
				"assembly": "    /* \"FundTheCourse/Subordinate.sol\":106:1079  contract ExtendWallet {... */\n  mstore(0x40, 0x80)\n    /* \"FundTheCourse/Subordinate.sol\":179:282  constructor(address _courseInstance) {... */\n  callvalue\n  dup1\n  iszero\n  tag_1\n  jumpi\n  0x00\n  dup1\n  revert\ntag_1:\n  pop\n  mload(0x40)\n  sub(codesize, bytecodeSize)\n  dup1\n  bytecodeSize\n  dup4\n  codecopy\n  dup2\n  dup2\n  add\n  0x40\n  mstore\n  dup2\n  add\n  swap1\n  tag_2\n  swap2\n  swap1\n  tag_3\n  jump\t// in\ntag_2:\n    /* \"FundTheCourse/Subordinate.sol\":258:273  _courseInstance */\n  dup1\n    /* \"FundTheCourse/Subordinate.sol\":227:241  courseInstance */\n  0x00\n  dup1\n    /* \"FundTheCourse/Subordinate.sol\":227:274  courseInstance = FundTheCourse(_courseInstance) */\n  0x0100\n  exp\n  dup2\n  sload\n  dup2\n  0xffffffffffffffffffffffffffffffffffffffff\n  mul\n  not\n  and\n  swap1\n  dup4\n  0xffffffffffffffffffffffffffffffffffffffff\n  and\n  mul\n  or\n  swap1\n  sstore\n  pop\n    /* \"FundTheCourse/Subordinate.sol\":179:282  constructor(address _courseInstance) {... */\n  pop\n    /* \"FundTheCourse/Subordinate.sol\":106:1079  contract ExtendWallet {... */\n  jump(tag_6)\n    /* \"#utility.yul\":88:205   */\ntag_8:\n    /* \"#utility.yul\":197:198   */\n  0x00\n    /* \"#utility.yul\":194:195   */\n  dup1\n    /* \"#utility.yul\":187:199   */\n  revert\n    /* \"#utility.yul\":334:460   */\ntag_10:\n    /* \"#utility.yul\":371:378   */\n  0x00\n    /* \"#utility.yul\":411:453   */\n  0xffffffffffffffffffffffffffffffffffffffff\n    /* \"#utility.yul\":404:409   */\n  dup3\n    /* \"#utility.yul\":400:454   */\n  and\n    /* \"#utility.yul\":389:454   */\n  swap1\n  pop\n    /* \"#utility.yul\":334:460   */\n  swap2\n  swap1\n  pop\n  jump\t// out\n    /* \"#utility.yul\":466:562   */\ntag_11:\n    /* \"#utility.yul\":503:510   */\n  0x00\n    /* \"#utility.yul\":532:556   */\n  tag_20\n    /* \"#utility.yul\":550:555   */\n  dup3\n    /* \"#utility.yul\":532:556   */\n  tag_10\n  jump\t// in\ntag_20:\n    /* \"#utility.yul\":521:556   */\n  swap1\n  pop\n    /* \"#utility.yul\":466:562   */\n  swap2\n  swap1\n  pop\n  jump\t// out\n    /* \"#utility.yul\":568:690   */\ntag_12:\n    /* \"#utility.yul\":641:665   */\n  tag_22\n    /* \"#utility.yul\":659:664   */\n  dup2\n    /* \"#utility.yul\":641:665   */\n  tag_11\n  jump\t// in\ntag_22:\n    /* \"#utility.yul\":634:639   */\n  dup2\n    /* \"#utility.yul\":631:666   */\n  eq\n    /* \"#utility.yul\":621:684   */\n  tag_23\n  jumpi\n    /* \"#utility.yul\":680:681   */\n  0x00\n    /* \"#utility.yul\":677:678   */\n  dup1\n    /* \"#utility.yul\":670:682   */\n  revert\n    /* \"#utility.yul\":621:684   */\ntag_23:\n    /* \"#utility.yul\":568:690   */\n  pop\n  jump\t// out\n    /* \"#utility.yul\":696:839   */\ntag_13:\n    /* \"#utility.yul\":753:758   */\n  0x00\n    /* \"#utility.yul\":784:790   */\n  dup2\n    /* \"#utility.yul\":778:791   */\n  mload\n    /* \"#utility.yul\":769:791   */\n  swap1\n  pop\n    /* \"#utility.yul\":800:833   */\n  tag_25\n    /* \"#utility.yul\":827:832   */\n  dup2\n    /* \"#utility.yul\":800:833   */\n  tag_12\n  jump\t// in\ntag_25:\n    /* \"#utility.yul\":696:839   */\n  swap3\n  swap2\n  pop\n  pop\n  jump\t// out\n    /* \"#utility.yul\":845:1196   */\ntag_3:\n    /* \"#utility.yul\":915:921   */\n  0x00\n    /* \"#utility.yul\":964:966   */\n  0x20\n    /* \"#utility.yul\":952:961   */\n  dup3\n    /* \"#utility.yul\":943:950   */\n  dup5\n    /* \"#utility.yul\":939:962   */\n  sub\n    /* \"#utility.yul\":935:967   */\n  slt\n    /* \"#utility.yul\":932:1051   */\n  iszero\n  tag_27\n  jumpi\n    /* \"#utility.yul\":970:1049   */\n  tag_28\n  tag_8\n  jump\t// in\ntag_28:\n    /* \"#utility.yul\":932:1051   */\ntag_27:\n    /* \"#utility.yul\":1090:1091   */\n  0x00\n    /* \"#utility.yul\":1115:1179   */\n  tag_29\n    /* \"#utility.yul\":1171:1178   */\n  dup5\n    /* \"#utility.yul\":1162:1168   */\n  dup3\n    /* \"#utility.yul\":1151:1160   */\n  dup6\n    /* \"#utility.yul\":1147:1169   */\n  add\n    /* \"#utility.yul\":1115:1179   */\n  tag_13\n  jump\t// in\ntag_29:\n    /* \"#utility.yul\":1105:1179   */\n  swap2\n  pop\n    /* \"#utility.yul\":1061:1189   */\n  pop\n    /* \"#utility.yul\":845:1196   */\n  swap3\n  swap2\n  pop\n  pop\n  jump\t// out\n    /* \"FundTheCourse/Subordinate.sol\":106:1079  contract ExtendWallet {... */\ntag_6:\n  dataSize(sub_0)\n  dup1\n  dataOffset(sub_0)\n  0x00\n  codecopy\n  0x00\n  return\nstop\n\nsub_0: assembly {\n        /* \"FundTheCourse/Subordinate.sol\":106:1079  contract ExtendWallet {... */\n      mstore(0x40, 0x80)\n      jumpi(tag_1, lt(calldatasize, 0x04))\n      shr(0xe0, calldataload(0x00))\n      dup1\n      0x12065fe0\n      eq\n      tag_3\n      jumpi\n      dup1\n      0x8a2ff44e\n      eq\n      tag_4\n      jumpi\n      dup1\n      0xfa06cec5\n      eq\n      tag_5\n      jumpi\n      jump(tag_2)\n    tag_1:\n      jumpi(tag_2, calldatasize)\n      stop\n    tag_2:\n      stop\n        /* \"FundTheCourse/Subordinate.sol\":975:1076  function getBalance() external view returns (uint256) {... */\n    tag_3:\n      callvalue\n      dup1\n      iszero\n      tag_10\n      jumpi\n      0x00\n      dup1\n      revert\n    tag_10:\n      pop\n      tag_11\n      tag_12\n      jump\t// in\n    tag_11:\n      mload(0x40)\n      tag_13\n      swap2\n      swap1\n      tag_14\n      jump\t// in\n    tag_13:\n      mload(0x40)\n      dup1\n      swap2\n      sub\n      swap1\n      return\n        /* \"FundTheCourse/Subordinate.sol\":761:936  function createCallback(address _receiver, string calldata _courseName) external payable {... */\n    tag_4:\n      tag_15\n      0x04\n      dup1\n      calldatasize\n      sub\n      dup2\n      add\n      swap1\n      tag_16\n      swap2\n      swap1\n      tag_17\n      jump\t// in\n    tag_16:\n      tag_18\n      jump\t// in\n    tag_15:\n      stop\n        /* \"FundTheCourse/Subordinate.sol\":135:170  FundTheCourse public courseInstance */\n    tag_5:\n      callvalue\n      dup1\n      iszero\n      tag_19\n      jumpi\n      0x00\n      dup1\n      revert\n    tag_19:\n      pop\n      tag_20\n      tag_21\n      jump\t// in\n    tag_20:\n      mload(0x40)\n      tag_22\n      swap2\n      swap1\n      tag_23\n      jump\t// in\n    tag_22:\n      mload(0x40)\n      dup1\n      swap2\n      sub\n      swap1\n      return\n        /* \"FundTheCourse/Subordinate.sol\":975:1076  function getBalance() external view returns (uint256) {... */\n    tag_12:\n        /* \"FundTheCourse/Subordinate.sol\":1020:1027  uint256 */\n      0x00\n        /* \"FundTheCourse/Subordinate.sol\":1047:1068  address(this).balance */\n      selfbalance\n        /* \"FundTheCourse/Subordinate.sol\":1040:1068  return address(this).balance */\n      swap1\n      pop\n        /* \"FundTheCourse/Subordinate.sol\":975:1076  function getBalance() external view returns (uint256) {... */\n      swap1\n      jump\t// out\n        /* \"FundTheCourse/Subordinate.sol\":761:936  function createCallback(address _receiver, string calldata _courseName) external payable {... */\n    tag_18:\n        /* \"FundTheCourse/Subordinate.sol\":861:875  courseInstance */\n      0x00\n      dup1\n      sload\n      swap1\n      0x0100\n      exp\n      swap1\n      div\n      0xffffffffffffffffffffffffffffffffffffffff\n      and\n        /* \"FundTheCourse/Subordinate.sol\":861:886  courseInstance.createFund */\n      0xffffffffffffffffffffffffffffffffffffffff\n      and\n      0xe4b96982\n        /* \"FundTheCourse/Subordinate.sol\":894:903  msg.value */\n      callvalue\n        /* \"FundTheCourse/Subordinate.sol\":905:914  _receiver */\n      dup6\n        /* \"FundTheCourse/Subordinate.sol\":916:927  _courseName */\n      dup6\n      dup6\n        /* \"FundTheCourse/Subordinate.sol\":861:928  courseInstance.createFund{value: msg.value}(_receiver, _courseName) */\n      mload(0x40)\n      dup6\n      0xffffffff\n      and\n      0xe0\n      shl\n      dup2\n      mstore\n      0x04\n      add\n      tag_26\n      swap4\n      swap3\n      swap2\n      swap1\n      tag_27\n      jump\t// in\n    tag_26:\n      0x00\n      mload(0x40)\n      dup1\n      dup4\n      sub\n      dup2\n      dup6\n      dup9\n      dup1\n      extcodesize\n      iszero\n      dup1\n      iszero\n      tag_28\n      jumpi\n      0x00\n      dup1\n      revert\n    tag_28:\n      pop\n      gas\n      call\n      iszero\n      dup1\n      iszero\n      tag_30\n      jumpi\n      returndatasize\n      0x00\n      dup1\n      returndatacopy\n      revert(0x00, returndatasize)\n    tag_30:\n      pop\n      pop\n      pop\n      pop\n      pop\n        /* \"FundTheCourse/Subordinate.sol\":761:936  function createCallback(address _receiver, string calldata _courseName) external payable {... */\n      pop\n      pop\n      pop\n      jump\t// out\n        /* \"FundTheCourse/Subordinate.sol\":135:170  FundTheCourse public courseInstance */\n    tag_21:\n      0x00\n      dup1\n      sload\n      swap1\n      0x0100\n      exp\n      swap1\n      div\n      0xffffffffffffffffffffffffffffffffffffffff\n      and\n      dup2\n      jump\t// out\n        /* \"#utility.yul\":7:84   */\n    tag_31:\n        /* \"#utility.yul\":44:51   */\n      0x00\n        /* \"#utility.yul\":73:78   */\n      dup2\n        /* \"#utility.yul\":62:78   */\n      swap1\n      pop\n        /* \"#utility.yul\":7:84   */\n      swap2\n      swap1\n      pop\n      jump\t// out\n        /* \"#utility.yul\":90:208   */\n    tag_32:\n        /* \"#utility.yul\":177:201   */\n      tag_57\n        /* \"#utility.yul\":195:200   */\n      dup2\n        /* \"#utility.yul\":177:201   */\n      tag_31\n      jump\t// in\n    tag_57:\n        /* \"#utility.yul\":172:175   */\n      dup3\n        /* \"#utility.yul\":165:202   */\n      mstore\n        /* \"#utility.yul\":90:208   */\n      pop\n      pop\n      jump\t// out\n        /* \"#utility.yul\":214:436   */\n    tag_14:\n        /* \"#utility.yul\":307:311   */\n      0x00\n        /* \"#utility.yul\":345:347   */\n      0x20\n        /* \"#utility.yul\":334:343   */\n      dup3\n        /* \"#utility.yul\":330:348   */\n      add\n        /* \"#utility.yul\":322:348   */\n      swap1\n      pop\n        /* \"#utility.yul\":358:429   */\n      tag_59\n        /* \"#utility.yul\":426:427   */\n      0x00\n        /* \"#utility.yul\":415:424   */\n      dup4\n        /* \"#utility.yul\":411:428   */\n      add\n        /* \"#utility.yul\":402:408   */\n      dup5\n        /* \"#utility.yul\":358:429   */\n      tag_32\n      jump\t// in\n    tag_59:\n        /* \"#utility.yul\":214:436   */\n      swap3\n      swap2\n      pop\n      pop\n      jump\t// out\n        /* \"#utility.yul\":523:640   */\n    tag_34:\n        /* \"#utility.yul\":632:633   */\n      0x00\n        /* \"#utility.yul\":629:630   */\n      dup1\n        /* \"#utility.yul\":622:634   */\n      revert\n        /* \"#utility.yul\":646:763   */\n    tag_35:\n        /* \"#utility.yul\":755:756   */\n      0x00\n        /* \"#utility.yul\":752:753   */\n      dup1\n        /* \"#utility.yul\":745:757   */\n      revert\n        /* \"#utility.yul\":769:895   */\n    tag_36:\n        /* \"#utility.yul\":806:813   */\n      0x00\n        /* \"#utility.yul\":846:888   */\n      0xffffffffffffffffffffffffffffffffffffffff\n        /* \"#utility.yul\":839:844   */\n      dup3\n        /* \"#utility.yul\":835:889   */\n      and\n        /* \"#utility.yul\":824:889   */\n      swap1\n      pop\n        /* \"#utility.yul\":769:895   */\n      swap2\n      swap1\n      pop\n      jump\t// out\n        /* \"#utility.yul\":901:997   */\n    tag_37:\n        /* \"#utility.yul\":938:945   */\n      0x00\n        /* \"#utility.yul\":967:991   */\n      tag_65\n        /* \"#utility.yul\":985:990   */\n      dup3\n        /* \"#utility.yul\":967:991   */\n      tag_36\n      jump\t// in\n    tag_65:\n        /* \"#utility.yul\":956:991   */\n      swap1\n      pop\n        /* \"#utility.yul\":901:997   */\n      swap2\n      swap1\n      pop\n      jump\t// out\n        /* \"#utility.yul\":1003:1125   */\n    tag_38:\n        /* \"#utility.yul\":1076:1100   */\n      tag_67\n        /* \"#utility.yul\":1094:1099   */\n      dup2\n        /* \"#utility.yul\":1076:1100   */\n      tag_37\n      jump\t// in\n    tag_67:\n        /* \"#utility.yul\":1069:1074   */\n      dup2\n        /* \"#utility.yul\":1066:1101   */\n      eq\n        /* \"#utility.yul\":1056:1119   */\n      tag_68\n      jumpi\n        /* \"#utility.yul\":1115:1116   */\n      0x00\n        /* \"#utility.yul\":1112:1113   */\n      dup1\n        /* \"#utility.yul\":1105:1117   */\n      revert\n        /* \"#utility.yul\":1056:1119   */\n    tag_68:\n        /* \"#utility.yul\":1003:1125   */\n      pop\n      jump\t// out\n        /* \"#utility.yul\":1131:1270   */\n    tag_39:\n        /* \"#utility.yul\":1177:1182   */\n      0x00\n        /* \"#utility.yul\":1215:1221   */\n      dup2\n        /* \"#utility.yul\":1202:1222   */\n      calldataload\n        /* \"#utility.yul\":1193:1222   */\n      swap1\n      pop\n        /* \"#utility.yul\":1231:1264   */\n      tag_70\n        /* \"#utility.yul\":1258:1263   */\n      dup2\n        /* \"#utility.yul\":1231:1264   */\n      tag_38\n      jump\t// in\n    tag_70:\n        /* \"#utility.yul\":1131:1270   */\n      swap3\n      swap2\n      pop\n      pop\n      jump\t// out\n        /* \"#utility.yul\":1276:1393   */\n    tag_40:\n        /* \"#utility.yul\":1385:1386   */\n      0x00\n        /* \"#utility.yul\":1382:1383   */\n      dup1\n        /* \"#utility.yul\":1375:1387   */\n      revert\n        /* \"#utility.yul\":1399:1516   */\n    tag_41:\n        /* \"#utility.yul\":1508:1509   */\n      0x00\n        /* \"#utility.yul\":1505:1506   */\n      dup1\n        /* \"#utility.yul\":1498:1510   */\n      revert\n        /* \"#utility.yul\":1522:1639   */\n    tag_42:\n        /* \"#utility.yul\":1631:1632   */\n      0x00\n        /* \"#utility.yul\":1628:1629   */\n      dup1\n        /* \"#utility.yul\":1621:1633   */\n      revert\n        /* \"#utility.yul\":1659:2212   */\n    tag_43:\n        /* \"#utility.yul\":1717:1725   */\n      0x00\n        /* \"#utility.yul\":1727:1733   */\n      dup1\n        /* \"#utility.yul\":1777:1780   */\n      dup4\n        /* \"#utility.yul\":1770:1774   */\n      0x1f\n        /* \"#utility.yul\":1762:1768   */\n      dup5\n        /* \"#utility.yul\":1758:1775   */\n      add\n        /* \"#utility.yul\":1754:1781   */\n      slt\n        /* \"#utility.yul\":1744:1866   */\n      tag_75\n      jumpi\n        /* \"#utility.yul\":1785:1864   */\n      tag_76\n      tag_40\n      jump\t// in\n    tag_76:\n        /* \"#utility.yul\":1744:1866   */\n    tag_75:\n        /* \"#utility.yul\":1898:1904   */\n      dup3\n        /* \"#utility.yul\":1885:1905   */\n      calldataload\n        /* \"#utility.yul\":1875:1905   */\n      swap1\n      pop\n        /* \"#utility.yul\":1928:1946   */\n      0xffffffffffffffff\n        /* \"#utility.yul\":1920:1926   */\n      dup2\n        /* \"#utility.yul\":1917:1947   */\n      gt\n        /* \"#utility.yul\":1914:2031   */\n      iszero\n      tag_77\n      jumpi\n        /* \"#utility.yul\":1950:2029   */\n      tag_78\n      tag_41\n      jump\t// in\n    tag_78:\n        /* \"#utility.yul\":1914:2031   */\n    tag_77:\n        /* \"#utility.yul\":2064:2068   */\n      0x20\n        /* \"#utility.yul\":2056:2062   */\n      dup4\n        /* \"#utility.yul\":2052:2069   */\n      add\n        /* \"#utility.yul\":2040:2069   */\n      swap2\n      pop\n        /* \"#utility.yul\":2118:2121   */\n      dup4\n        /* \"#utility.yul\":2110:2114   */\n      0x01\n        /* \"#utility.yul\":2102:2108   */\n      dup3\n        /* \"#utility.yul\":2098:2115   */\n      mul\n        /* \"#utility.yul\":2088:2096   */\n      dup4\n        /* \"#utility.yul\":2084:2116   */\n      add\n        /* \"#utility.yul\":2081:2122   */\n      gt\n        /* \"#utility.yul\":2078:2206   */\n      iszero\n      tag_79\n      jumpi\n        /* \"#utility.yul\":2125:2204   */\n      tag_80\n      tag_42\n      jump\t// in\n    tag_80:\n        /* \"#utility.yul\":2078:2206   */\n    tag_79:\n        /* \"#utility.yul\":1659:2212   */\n      swap3\n      pop\n      swap3\n      swap1\n      pop\n      jump\t// out\n        /* \"#utility.yul\":2218:2892   */\n    tag_17:\n        /* \"#utility.yul\":2298:2304   */\n      0x00\n        /* \"#utility.yul\":2306:2312   */\n      dup1\n        /* \"#utility.yul\":2314:2320   */\n      0x00\n        /* \"#utility.yul\":2363:2365   */\n      0x40\n        /* \"#utility.yul\":2351:2360   */\n      dup5\n        /* \"#utility.yul\":2342:2349   */\n      dup7\n        /* \"#utility.yul\":2338:2361   */\n      sub\n        /* \"#utility.yul\":2334:2366   */\n      slt\n        /* \"#utility.yul\":2331:2450   */\n      iszero\n      tag_82\n      jumpi\n        /* \"#utility.yul\":2369:2448   */\n      tag_83\n      tag_34\n      jump\t// in\n    tag_83:\n        /* \"#utility.yul\":2331:2450   */\n    tag_82:\n        /* \"#utility.yul\":2489:2490   */\n      0x00\n        /* \"#utility.yul\":2514:2567   */\n      tag_84\n        /* \"#utility.yul\":2559:2566   */\n      dup7\n        /* \"#utility.yul\":2550:2556   */\n      dup3\n        /* \"#utility.yul\":2539:2548   */\n      dup8\n        /* \"#utility.yul\":2535:2557   */\n      add\n        /* \"#utility.yul\":2514:2567   */\n      tag_39\n      jump\t// in\n    tag_84:\n        /* \"#utility.yul\":2504:2567   */\n      swap4\n      pop\n        /* \"#utility.yul\":2460:2577   */\n      pop\n        /* \"#utility.yul\":2644:2646   */\n      0x20\n        /* \"#utility.yul\":2633:2642   */\n      dup5\n        /* \"#utility.yul\":2629:2647   */\n      add\n        /* \"#utility.yul\":2616:2648   */\n      calldataload\n        /* \"#utility.yul\":2675:2693   */\n      0xffffffffffffffff\n        /* \"#utility.yul\":2667:2673   */\n      dup2\n        /* \"#utility.yul\":2664:2694   */\n      gt\n        /* \"#utility.yul\":2661:2778   */\n      iszero\n      tag_85\n      jumpi\n        /* \"#utility.yul\":2697:2776   */\n      tag_86\n      tag_35\n      jump\t// in\n    tag_86:\n        /* \"#utility.yul\":2661:2778   */\n    tag_85:\n        /* \"#utility.yul\":2810:2875   */\n      tag_87\n        /* \"#utility.yul\":2867:2874   */\n      dup7\n        /* \"#utility.yul\":2858:2864   */\n      dup3\n        /* \"#utility.yul\":2847:2856   */\n      dup8\n        /* \"#utility.yul\":2843:2865   */\n      add\n        /* \"#utility.yul\":2810:2875   */\n      tag_43\n      jump\t// in\n    tag_87:\n        /* \"#utility.yul\":2792:2875   */\n      swap3\n      pop\n      swap3\n      pop\n        /* \"#utility.yul\":2587:2885   */\n      pop\n        /* \"#utility.yul\":2218:2892   */\n      swap3\n      pop\n      swap3\n      pop\n      swap3\n      jump\t// out\n        /* \"#utility.yul\":2898:2958   */\n    tag_44:\n        /* \"#utility.yul\":2926:2929   */\n      0x00\n        /* \"#utility.yul\":2947:2952   */\n      dup2\n        /* \"#utility.yul\":2940:2952   */\n      swap1\n      pop\n        /* \"#utility.yul\":2898:2958   */\n      swap2\n      swap1\n      pop\n      jump\t// out\n        /* \"#utility.yul\":2964:3106   */\n    tag_45:\n        /* \"#utility.yul\":3014:3023   */\n      0x00\n        /* \"#utility.yul\":3047:3100   */\n      tag_90\n        /* \"#utility.yul\":3065:3099   */\n      tag_91\n        /* \"#utility.yul\":3074:3098   */\n      tag_92\n        /* \"#utility.yul\":3092:3097   */\n      dup5\n        /* \"#utility.yul\":3074:3098   */\n      tag_36\n      jump\t// in\n    tag_92:\n        /* \"#utility.yul\":3065:3099   */\n      tag_44\n      jump\t// in\n    tag_91:\n        /* \"#utility.yul\":3047:3100   */\n      tag_36\n      jump\t// in\n    tag_90:\n        /* \"#utility.yul\":3034:3100   */\n      swap1\n      pop\n        /* \"#utility.yul\":2964:3106   */\n      swap2\n      swap1\n      pop\n      jump\t// out\n        /* \"#utility.yul\":3112:3238   */\n    tag_46:\n        /* \"#utility.yul\":3162:3171   */\n      0x00\n        /* \"#utility.yul\":3195:3232   */\n      tag_94\n        /* \"#utility.yul\":3226:3231   */\n      dup3\n        /* \"#utility.yul\":3195:3232   */\n      tag_45\n      jump\t// in\n    tag_94:\n        /* \"#utility.yul\":3182:3232   */\n      swap1\n      pop\n        /* \"#utility.yul\":3112:3238   */\n      swap2\n      swap1\n      pop\n      jump\t// out\n        /* \"#utility.yul\":3244:3391   */\n    tag_47:\n        /* \"#utility.yul\":3315:3324   */\n      0x00\n        /* \"#utility.yul\":3348:3385   */\n      tag_96\n        /* \"#utility.yul\":3379:3384   */\n      dup3\n        /* \"#utility.yul\":3348:3385   */\n      tag_46\n      jump\t// in\n    tag_96:\n        /* \"#utility.yul\":3335:3385   */\n      swap1\n      pop\n        /* \"#utility.yul\":3244:3391   */\n      swap2\n      swap1\n      pop\n      jump\t// out\n        /* \"#utility.yul\":3397:3570   */\n    tag_48:\n        /* \"#utility.yul\":3505:3563   */\n      tag_98\n        /* \"#utility.yul\":3557:3562   */\n      dup2\n        /* \"#utility.yul\":3505:3563   */\n      tag_47\n      jump\t// in\n    tag_98:\n        /* \"#utility.yul\":3500:3503   */\n      dup3\n        /* \"#utility.yul\":3493:3564   */\n      mstore\n        /* \"#utility.yul\":3397:3570   */\n      pop\n      pop\n      jump\t// out\n        /* \"#utility.yul\":3576:3840   */\n    tag_23:\n        /* \"#utility.yul\":3690:3694   */\n      0x00\n        /* \"#utility.yul\":3728:3730   */\n      0x20\n        /* \"#utility.yul\":3717:3726   */\n      dup3\n        /* \"#utility.yul\":3713:3731   */\n      add\n        /* \"#utility.yul\":3705:3731   */\n      swap1\n      pop\n        /* \"#utility.yul\":3741:3833   */\n      tag_100\n        /* \"#utility.yul\":3830:3831   */\n      0x00\n        /* \"#utility.yul\":3819:3828   */\n      dup4\n        /* \"#utility.yul\":3815:3832   */\n      add\n        /* \"#utility.yul\":3806:3812   */\n      dup5\n        /* \"#utility.yul\":3741:3833   */\n      tag_48\n      jump\t// in\n    tag_100:\n        /* \"#utility.yul\":3576:3840   */\n      swap3\n      swap2\n      pop\n      pop\n      jump\t// out\n        /* \"#utility.yul\":3846:3964   */\n    tag_49:\n        /* \"#utility.yul\":3933:3957   */\n      tag_102\n        /* \"#utility.yul\":3951:3956   */\n      dup2\n        /* \"#utility.yul\":3933:3957   */\n      tag_37\n      jump\t// in\n    tag_102:\n        /* \"#utility.yul\":3928:3931   */\n      dup3\n        /* \"#utility.yul\":3921:3958   */\n      mstore\n        /* \"#utility.yul\":3846:3964   */\n      pop\n      pop\n      jump\t// out\n        /* \"#utility.yul\":3970:4139   */\n    tag_50:\n        /* \"#utility.yul\":4054:4065   */\n      0x00\n        /* \"#utility.yul\":4088:4094   */\n      dup3\n        /* \"#utility.yul\":4083:4086   */\n      dup3\n        /* \"#utility.yul\":4076:4095   */\n      mstore\n        /* \"#utility.yul\":4128:4132   */\n      0x20\n        /* \"#utility.yul\":4123:4126   */\n      dup3\n        /* \"#utility.yul\":4119:4133   */\n      add\n        /* \"#utility.yul\":4104:4133   */\n      swap1\n      pop\n        /* \"#utility.yul\":3970:4139   */\n      swap3\n      swap2\n      pop\n      pop\n      jump\t// out\n        /* \"#utility.yul\":4145:4291   */\n    tag_51:\n        /* \"#utility.yul\":4242:4248   */\n      dup3\n        /* \"#utility.yul\":4237:4240   */\n      dup2\n        /* \"#utility.yul\":4232:4235   */\n      dup4\n        /* \"#utility.yul\":4219:4249   */\n      calldatacopy\n        /* \"#utility.yul\":4283:4284   */\n      0x00\n        /* \"#utility.yul\":4274:4280   */\n      dup4\n        /* \"#utility.yul\":4269:4272   */\n      dup4\n        /* \"#utility.yul\":4265:4281   */\n      add\n        /* \"#utility.yul\":4258:4285   */\n      mstore\n        /* \"#utility.yul\":4145:4291   */\n      pop\n      pop\n      pop\n      jump\t// out\n        /* \"#utility.yul\":4297:4399   */\n    tag_52:\n        /* \"#utility.yul\":4338:4344   */\n      0x00\n        /* \"#utility.yul\":4389:4391   */\n      0x1f\n        /* \"#utility.yul\":4385:4392   */\n      not\n        /* \"#utility.yul\":4380:4382   */\n      0x1f\n        /* \"#utility.yul\":4373:4378   */\n      dup4\n        /* \"#utility.yul\":4369:4383   */\n      add\n        /* \"#utility.yul\":4365:4393   */\n      and\n        /* \"#utility.yul\":4355:4393   */\n      swap1\n      pop\n        /* \"#utility.yul\":4297:4399   */\n      swap2\n      swap1\n      pop\n      jump\t// out\n        /* \"#utility.yul\":4429:4746   */\n    tag_53:\n        /* \"#utility.yul\":4527:4530   */\n      0x00\n        /* \"#utility.yul\":4548:4619   */\n      tag_107\n        /* \"#utility.yul\":4612:4618   */\n      dup4\n        /* \"#utility.yul\":4607:4610   */\n      dup6\n        /* \"#utility.yul\":4548:4619   */\n      tag_50\n      jump\t// in\n    tag_107:\n        /* \"#utility.yul\":4541:4619   */\n      swap4\n      pop\n        /* \"#utility.yul\":4629:4685   */\n      tag_108\n        /* \"#utility.yul\":4678:4684   */\n      dup4\n        /* \"#utility.yul\":4673:4676   */\n      dup6\n        /* \"#utility.yul\":4666:4671   */\n      dup5\n        /* \"#utility.yul\":4629:4685   */\n      tag_51\n      jump\t// in\n    tag_108:\n        /* \"#utility.yul\":4710:4739   */\n      tag_109\n        /* \"#utility.yul\":4732:4738   */\n      dup4\n        /* \"#utility.yul\":4710:4739   */\n      tag_52\n      jump\t// in\n    tag_109:\n        /* \"#utility.yul\":4705:4708   */\n      dup5\n        /* \"#utility.yul\":4701:4740   */\n      add\n        /* \"#utility.yul\":4694:4740   */\n      swap1\n      pop\n        /* \"#utility.yul\":4429:4746   */\n      swap4\n      swap3\n      pop\n      pop\n      pop\n      jump\t// out\n        /* \"#utility.yul\":4752:5195   */\n    tag_27:\n        /* \"#utility.yul\":4903:4907   */\n      0x00\n        /* \"#utility.yul\":4941:4943   */\n      0x40\n        /* \"#utility.yul\":4930:4939   */\n      dup3\n        /* \"#utility.yul\":4926:4944   */\n      add\n        /* \"#utility.yul\":4918:4944   */\n      swap1\n      pop\n        /* \"#utility.yul\":4954:5025   */\n      tag_111\n        /* \"#utility.yul\":5022:5023   */\n      0x00\n        /* \"#utility.yul\":5011:5020   */\n      dup4\n        /* \"#utility.yul\":5007:5024   */\n      add\n        /* \"#utility.yul\":4998:5004   */\n      dup7\n        /* \"#utility.yul\":4954:5025   */\n      tag_49\n      jump\t// in\n    tag_111:\n        /* \"#utility.yul\":5072:5081   */\n      dup2\n        /* \"#utility.yul\":5066:5070   */\n      dup2\n        /* \"#utility.yul\":5062:5082   */\n      sub\n        /* \"#utility.yul\":5057:5059   */\n      0x20\n        /* \"#utility.yul\":5046:5055   */\n      dup4\n        /* \"#utility.yul\":5042:5060   */\n      add\n        /* \"#utility.yul\":5035:5083   */\n      mstore\n        /* \"#utility.yul\":5100:5188   */\n      tag_112\n        /* \"#utility.yul\":5183:5187   */\n      dup2\n        /* \"#utility.yul\":5174:5180   */\n      dup5\n        /* \"#utility.yul\":5166:5172   */\n      dup7\n        /* \"#utility.yul\":5100:5188   */\n      tag_53\n      jump\t// in\n    tag_112:\n        /* \"#utility.yul\":5092:5188   */\n      swap1\n      pop\n        /* \"#utility.yul\":4752:5195   */\n      swap5\n      swap4\n      pop\n      pop\n      pop\n      pop\n      jump\t// out\n\n    auxdata: 0xa2646970667358221220e9630270536e08998e20230aaeb6a40c61556a48fe56ef348139067132ae388f64736f6c63430008130033\n}\n",
				"bytecode": {
					"linkReferences": {},
					"object": "608060405234801561001057600080fd5b5060405161053b38038061053b833981810160405281019061003291906100db565b806000806101000a81548173ffffffffffffffffffffffffffffffffffffffff021916908373ffffffffffffffffffffffffffffffffffffffff16021790555050610108565b600080fd5b600073ffffffffffffffffffffffffffffffffffffffff82169050919050565b60006100a88261007d565b9050919050565b6100b88161009d565b81146100c357600080fd5b50565b6000815190506100d5816100af565b92915050565b6000602082840312156100f1576100f0610078565b5b60006100ff848285016100c6565b91505092915050565b610424806101176000396000f3fe6080604052600436106100385760003560e01c806312065fe0146100415780638a2ff44e1461006c578063fa06cec5146100885761003f565b3661003f57005b005b34801561004d57600080fd5b506100566100b3565b604051610063919061018d565b60405180910390f35b61008660048036038101906100819190610275565b6100bb565b005b34801561009457600080fd5b5061009d610150565b6040516100aa9190610334565b60405180910390f35b600047905090565b60008054906101000a900473ffffffffffffffffffffffffffffffffffffffff1673ffffffffffffffffffffffffffffffffffffffff1663e4b96982348585856040518563ffffffff1660e01b8152600401610119939291906103bc565b6000604051808303818588803b15801561013257600080fd5b505af1158015610146573d6000803e3d6000fd5b5050505050505050565b60008054906101000a900473ffffffffffffffffffffffffffffffffffffffff1681565b6000819050919050565b61018781610174565b82525050565b60006020820190506101a2600083018461017e565b92915050565b600080fd5b600080fd5b600073ffffffffffffffffffffffffffffffffffffffff82169050919050565b60006101dd826101b2565b9050919050565b6101ed816101d2565b81146101f857600080fd5b50565b60008135905061020a816101e4565b92915050565b600080fd5b600080fd5b600080fd5b60008083601f84011261023557610234610210565b5b8235905067ffffffffffffffff81111561025257610251610215565b5b60208301915083600182028301111561026e5761026d61021a565b5b9250929050565b60008060006040848603121561028e5761028d6101a8565b5b600061029c868287016101fb565b935050602084013567ffffffffffffffff8111156102bd576102bc6101ad565b5b6102c98682870161021f565b92509250509250925092565b6000819050919050565b60006102fa6102f56102f0846101b2565b6102d5565b6101b2565b9050919050565b600061030c826102df565b9050919050565b600061031e82610301565b9050919050565b61032e81610313565b82525050565b60006020820190506103496000830184610325565b92915050565b610358816101d2565b82525050565b600082825260208201905092915050565b82818337600083830152505050565b6000601f19601f8301169050919050565b600061039b838561035e565b93506103a883858461036f565b6103b18361037e565b840190509392505050565b60006040820190506103d1600083018661034f565b81810360208301526103e481848661038f565b905094935050505056fea2646970667358221220e9630270536e08998e20230aaeb6a40c61556a48fe56ef348139067132ae388f64736f6c63430008130033",
					"opcodes": "PUSH1 0x80 PUSH1 0x40 MSTORE CALLVALUE DUP1 ISZERO PUSH2 0x10 JUMPI PUSH1 0x0 DUP1 REVERT JUMPDEST POP PUSH1 0x40 MLOAD PUSH2 0x53B CODESIZE SUB DUP1 PUSH2 0x53B DUP4 CODECOPY DUP2 DUP2 ADD PUSH1 0x40 MSTORE DUP2 ADD SWAP1 PUSH2 0x32 SWAP2 SWAP1 PUSH2 0xDB JUMP JUMPDEST DUP1 PUSH1 0x0 DUP1 PUSH2 0x100 EXP DUP2 SLOAD DUP2 PUSH20 0xFFFFFFFFFFFFFFFFFFFFFFFFFFFFFFFFFFFFFFFF MUL NOT AND SWAP1 DUP4 PUSH20 0xFFFFFFFFFFFFFFFFFFFFFFFFFFFFFFFFFFFFFFFF AND MUL OR SWAP1 SSTORE POP POP PUSH2 0x108 JUMP JUMPDEST PUSH1 0x0 DUP1 REVERT JUMPDEST PUSH1 0x0 PUSH20 0xFFFFFFFFFFFFFFFFFFFFFFFFFFFFFFFFFFFFFFFF DUP3 AND SWAP1 POP SWAP2 SWAP1 POP JUMP JUMPDEST PUSH1 0x0 PUSH2 0xA8 DUP3 PUSH2 0x7D JUMP JUMPDEST SWAP1 POP SWAP2 SWAP1 POP JUMP JUMPDEST PUSH2 0xB8 DUP2 PUSH2 0x9D JUMP JUMPDEST DUP2 EQ PUSH2 0xC3 JUMPI PUSH1 0x0 DUP1 REVERT JUMPDEST POP JUMP JUMPDEST PUSH1 0x0 DUP2 MLOAD SWAP1 POP PUSH2 0xD5 DUP2 PUSH2 0xAF JUMP JUMPDEST SWAP3 SWAP2 POP POP JUMP JUMPDEST PUSH1 0x0 PUSH1 0x20 DUP3 DUP5 SUB SLT ISZERO PUSH2 0xF1 JUMPI PUSH2 0xF0 PUSH2 0x78 JUMP JUMPDEST JUMPDEST PUSH1 0x0 PUSH2 0xFF DUP5 DUP3 DUP6 ADD PUSH2 0xC6 JUMP JUMPDEST SWAP2 POP POP SWAP3 SWAP2 POP POP JUMP JUMPDEST PUSH2 0x424 DUP1 PUSH2 0x117 PUSH1 0x0 CODECOPY PUSH1 0x0 RETURN INVALID PUSH1 0x80 PUSH1 0x40 MSTORE PUSH1 0x4 CALLDATASIZE LT PUSH2 0x38 JUMPI PUSH1 0x0 CALLDATALOAD PUSH1 0xE0 SHR DUP1 PUSH4 0x12065FE0 EQ PUSH2 0x41 JUMPI DUP1 PUSH4 0x8A2FF44E EQ PUSH2 0x6C JUMPI DUP1 PUSH4 0xFA06CEC5 EQ PUSH2 0x88 JUMPI PUSH2 0x3F JUMP JUMPDEST CALLDATASIZE PUSH2 0x3F JUMPI STOP JUMPDEST STOP JUMPDEST CALLVALUE DUP1 ISZERO PUSH2 0x4D JUMPI PUSH1 0x0 DUP1 REVERT JUMPDEST POP PUSH2 0x56 PUSH2 0xB3 JUMP JUMPDEST PUSH1 0x40 MLOAD PUSH2 0x63 SWAP2 SWAP1 PUSH2 0x18D JUMP JUMPDEST PUSH1 0x40 MLOAD DUP1 SWAP2 SUB SWAP1 RETURN JUMPDEST PUSH2 0x86 PUSH1 0x4 DUP1 CALLDATASIZE SUB DUP2 ADD SWAP1 PUSH2 0x81 SWAP2 SWAP1 PUSH2 0x275 JUMP JUMPDEST PUSH2 0xBB JUMP JUMPDEST STOP JUMPDEST CALLVALUE DUP1 ISZERO PUSH2 0x94 JUMPI PUSH1 0x0 DUP1 REVERT JUMPDEST POP PUSH2 0x9D PUSH2 0x150 JUMP JUMPDEST PUSH1 0x40 MLOAD PUSH2 0xAA SWAP2 SWAP1 PUSH2 0x334 JUMP JUMPDEST PUSH1 0x40 MLOAD DUP1 SWAP2 SUB SWAP1 RETURN JUMPDEST PUSH1 0x0 SELFBALANCE SWAP1 POP SWAP1 JUMP JUMPDEST PUSH1 0x0 DUP1 SLOAD SWAP1 PUSH2 0x100 EXP SWAP1 DIV PUSH20 0xFFFFFFFFFFFFFFFFFFFFFFFFFFFFFFFFFFFFFFFF AND PUSH20 0xFFFFFFFFFFFFFFFFFFFFFFFFFFFFFFFFFFFFFFFF AND PUSH4 0xE4B96982 CALLVALUE DUP6 DUP6 DUP6 PUSH1 0x40 MLOAD DUP6 PUSH4 0xFFFFFFFF AND PUSH1 0xE0 SHL DUP2 MSTORE PUSH1 0x4 ADD PUSH2 0x119 SWAP4 SWAP3 SWAP2 SWAP1 PUSH2 0x3BC JUMP JUMPDEST PUSH1 0x0 PUSH1 0x40 MLOAD DUP1 DUP4 SUB DUP2 DUP6 DUP9 DUP1 EXTCODESIZE ISZERO DUP1 ISZERO PUSH2 0x132 JUMPI PUSH1 0x0 DUP1 REVERT JUMPDEST POP GAS CALL ISZERO DUP1 ISZERO PUSH2 0x146 JUMPI RETURNDATASIZE PUSH1 0x0 DUP1 RETURNDATACOPY RETURNDATASIZE PUSH1 0x0 REVERT JUMPDEST POP POP POP POP POP POP POP POP JUMP JUMPDEST PUSH1 0x0 DUP1 SLOAD SWAP1 PUSH2 0x100 EXP SWAP1 DIV PUSH20 0xFFFFFFFFFFFFFFFFFFFFFFFFFFFFFFFFFFFFFFFF AND DUP2 JUMP JUMPDEST PUSH1 0x0 DUP2 SWAP1 POP SWAP2 SWAP1 POP JUMP JUMPDEST PUSH2 0x187 DUP2 PUSH2 0x174 JUMP JUMPDEST DUP3 MSTORE POP POP JUMP JUMPDEST PUSH1 0x0 PUSH1 0x20 DUP3 ADD SWAP1 POP PUSH2 0x1A2 PUSH1 0x0 DUP4 ADD DUP5 PUSH2 0x17E JUMP JUMPDEST SWAP3 SWAP2 POP POP JUMP JUMPDEST PUSH1 0x0 DUP1 REVERT JUMPDEST PUSH1 0x0 DUP1 REVERT JUMPDEST PUSH1 0x0 PUSH20 0xFFFFFFFFFFFFFFFFFFFFFFFFFFFFFFFFFFFFFFFF DUP3 AND SWAP1 POP SWAP2 SWAP1 POP JUMP JUMPDEST PUSH1 0x0 PUSH2 0x1DD DUP3 PUSH2 0x1B2 JUMP JUMPDEST SWAP1 POP SWAP2 SWAP1 POP JUMP JUMPDEST PUSH2 0x1ED DUP2 PUSH2 0x1D2 JUMP JUMPDEST DUP2 EQ PUSH2 0x1F8 JUMPI PUSH1 0x0 DUP1 REVERT JUMPDEST POP JUMP JUMPDEST PUSH1 0x0 DUP2 CALLDATALOAD SWAP1 POP PUSH2 0x20A DUP2 PUSH2 0x1E4 JUMP JUMPDEST SWAP3 SWAP2 POP POP JUMP JUMPDEST PUSH1 0x0 DUP1 REVERT JUMPDEST PUSH1 0x0 DUP1 REVERT JUMPDEST PUSH1 0x0 DUP1 REVERT JUMPDEST PUSH1 0x0 DUP1 DUP4 PUSH1 0x1F DUP5 ADD SLT PUSH2 0x235 JUMPI PUSH2 0x234 PUSH2 0x210 JUMP JUMPDEST JUMPDEST DUP3 CALLDATALOAD SWAP1 POP PUSH8 0xFFFFFFFFFFFFFFFF DUP2 GT ISZERO PUSH2 0x252 JUMPI PUSH2 0x251 PUSH2 0x215 JUMP JUMPDEST JUMPDEST PUSH1 0x20 DUP4 ADD SWAP2 POP DUP4 PUSH1 0x1 DUP3 MUL DUP4 ADD GT ISZERO PUSH2 0x26E JUMPI PUSH2 0x26D PUSH2 0x21A JUMP JUMPDEST JUMPDEST SWAP3 POP SWAP3 SWAP1 POP JUMP JUMPDEST PUSH1 0x0 DUP1 PUSH1 0x0 PUSH1 0x40 DUP5 DUP7 SUB SLT ISZERO PUSH2 0x28E JUMPI PUSH2 0x28D PUSH2 0x1A8 JUMP JUMPDEST JUMPDEST PUSH1 0x0 PUSH2 0x29C DUP7 DUP3 DUP8 ADD PUSH2 0x1FB JUMP JUMPDEST SWAP4 POP POP PUSH1 0x20 DUP5 ADD CALLDATALOAD PUSH8 0xFFFFFFFFFFFFFFFF DUP2 GT ISZERO PUSH2 0x2BD JUMPI PUSH2 0x2BC PUSH2 0x1AD JUMP JUMPDEST JUMPDEST PUSH2 0x2C9 DUP7 DUP3 DUP8 ADD PUSH2 0x21F JUMP JUMPDEST SWAP3 POP SWAP3 POP POP SWAP3 POP SWAP3 POP SWAP3 JUMP JUMPDEST PUSH1 0x0 DUP2 SWAP1 POP SWAP2 SWAP1 POP JUMP JUMPDEST PUSH1 0x0 PUSH2 0x2FA PUSH2 0x2F5 PUSH2 0x2F0 DUP5 PUSH2 0x1B2 JUMP JUMPDEST PUSH2 0x2D5 JUMP JUMPDEST PUSH2 0x1B2 JUMP JUMPDEST SWAP1 POP SWAP2 SWAP1 POP JUMP JUMPDEST PUSH1 0x0 PUSH2 0x30C DUP3 PUSH2 0x2DF JUMP JUMPDEST SWAP1 POP SWAP2 SWAP1 POP JUMP JUMPDEST PUSH1 0x0 PUSH2 0x31E DUP3 PUSH2 0x301 JUMP JUMPDEST SWAP1 POP SWAP2 SWAP1 POP JUMP JUMPDEST PUSH2 0x32E DUP2 PUSH2 0x313 JUMP JUMPDEST DUP3 MSTORE POP POP JUMP JUMPDEST PUSH1 0x0 PUSH1 0x20 DUP3 ADD SWAP1 POP PUSH2 0x349 PUSH1 0x0 DUP4 ADD DUP5 PUSH2 0x325 JUMP JUMPDEST SWAP3 SWAP2 POP POP JUMP JUMPDEST PUSH2 0x358 DUP2 PUSH2 0x1D2 JUMP JUMPDEST DUP3 MSTORE POP POP JUMP JUMPDEST PUSH1 0x0 DUP3 DUP3 MSTORE PUSH1 0x20 DUP3 ADD SWAP1 POP SWAP3 SWAP2 POP POP JUMP JUMPDEST DUP3 DUP2 DUP4 CALLDATACOPY PUSH1 0x0 DUP4 DUP4 ADD MSTORE POP POP POP JUMP JUMPDEST PUSH1 0x0 PUSH1 0x1F NOT PUSH1 0x1F DUP4 ADD AND SWAP1 POP SWAP2 SWAP1 POP JUMP JUMPDEST PUSH1 0x0 PUSH2 0x39B DUP4 DUP6 PUSH2 0x35E JUMP JUMPDEST SWAP4 POP PUSH2 0x3A8 DUP4 DUP6 DUP5 PUSH2 0x36F JUMP JUMPDEST PUSH2 0x3B1 DUP4 PUSH2 0x37E JUMP JUMPDEST DUP5 ADD SWAP1 POP SWAP4 SWAP3 POP POP POP JUMP JUMPDEST PUSH1 0x0 PUSH1 0x40 DUP3 ADD SWAP1 POP PUSH2 0x3D1 PUSH1 0x0 DUP4 ADD DUP7 PUSH2 0x34F JUMP JUMPDEST DUP2 DUP2 SUB PUSH1 0x20 DUP4 ADD MSTORE PUSH2 0x3E4 DUP2 DUP5 DUP7 PUSH2 0x38F JUMP JUMPDEST SWAP1 POP SWAP5 SWAP4 POP POP POP POP JUMP INVALID LOG2 PUSH5 0x6970667358 0x22 SLT KECCAK256 0xE9 PUSH4 0x270536E ADDMOD SWAP10 DUP15 KECCAK256 0x23 EXP 0xAE 0xB6 LOG4 0xC PUSH2 0x556A BASEFEE INVALID JUMP 0xEF CALLVALUE DUP2 CODECOPY MOD PUSH18 0x32AE388F64736F6C63430008130033000000 "
				},
				"gasEstimates": {
					"creation": {
						"codeDepositCost": "212000",
						"executionCost": "infinite",
						"totalCost": "infinite"
					},
					"external": {
						"": "129",
						"courseInstance()": "infinite",
						"createCallback(address,string)": "infinite",
						"getBalance()": "317"
					}
				},
				"methodIdentifiers": {
					"courseInstance()": "fa06cec5",
					"createCallback(address,string)": "8a2ff44e",
					"getBalance()": "12065fe0"
				}
			},
			"storageLayout": {
				"storage": [
					{
						"astId": 172,
						"contract": "FundTheCourse/Subordinate.sol:ExtendWallet",
						"label": "courseInstance",
						"offset": 0,
						"slot": "0",
						"type": "t_contract(FundTheCourse)165"
					}
				],
				"types": {
					"t_contract(FundTheCourse)165": {
						"encoding": "inplace",
						"label": "contract FundTheCourse",
						"numberOfBytes": "20"
					}
				}
			},
			"userdoc": {
				"kind": "user",
				"methods": {},
				"version": 1
			}
		}
	}
}