{
	"data": {
		"bytecode": {
			"linkReferences": {},
			"object": "6080604052662386f26fc100006003553480156200001c57600080fd5b506040516200191438038062001914833981810160405281019062000042919062000148565b73feeff7c3fb57d18c5c6cdd71e45d2d0b4f9377bf6000806101000a81548173ffffffffffffffffffffffffffffffffffffffff021916908373ffffffffffffffffffffffffffffffffffffffff16021790555080600460006101000a81548173ffffffffffffffffffffffffffffffffffffffff021916908373ffffffffffffffffffffffffffffffffffffffff160217905550506200017a565b600080fd5b600073ffffffffffffffffffffffffffffffffffffffff82169050919050565b60006200011082620000e3565b9050919050565b620001228162000103565b81146200012e57600080fd5b50565b600081519050620001428162000117565b92915050565b600060208284031215620001615762000160620000de565b5b6000620001718482850162000131565b91505092915050565b61178a806200018a6000396000f3fe60806040526004361061009c5760003560e01c8063b7488ee111610064578063b7488ee114610179578063bfcd9a63146101a4578063dbe4aa89146101e4578063e85d28b91461020d578063f43b52cb1461024d578063f4b0b756146102785761009c565b80631da45e4e146100a157806331f0c91f146100de578063505dc61d146101075780638a928548146101325780638e15f4731461014e575b600080fd5b3480156100ad57600080fd5b506100c860048036038101906100c39190610c7d565b6102a3565b6040516100d59190610cc3565b60405180910390f35b3480156100ea57600080fd5b5061010560048036038101906101009190610e50565b6102bb565b005b34801561011357600080fd5b5061011c6103e4565b6040516101299190610cc3565b60405180910390f35b61014c60048036038101906101479190610ee7565b6103ea565b005b34801561015a57600080fd5b506101636105ce565b6040516101709190610f2d565b60405180910390f35b34801561018557600080fd5b5061018e61066d565b60405161019b9190610fa7565b60405180910390f35b3480156101b057600080fd5b506101cb60048036038101906101c69190610ee7565b610691565b6040516101db9493929190611050565b60405180910390f35b3480156101f057600080fd5b5061020b60048036038101906102069190610ee7565b610779565b005b34801561021957600080fd5b50610234600480360381019061022f919061109c565b6108eb565b6040516102449493929190611050565b60405180910390f35b34801561025957600080fd5b506102626109e0565b60405161026f9190610cc3565b60405180910390f35b34801561028457600080fd5b5061028d610a7f565b60405161029a91906110dc565b60405180910390f35b60016020528060005260406000206000915090505481565b60006102c56109e0565b90506000600354876102d79190611126565b905060006102e483610aa5565b6040516020016102f491906111f0565b6040516020818303038152906040529050600560405180608001604052808a81526020018981526020018881526020013373ffffffffffffffffffffffffffffffffffffffff1681525090806001815401808255809150506001900390600052602060002090600402016000909190919091506000820151816000015560208201518160010190816103869190611414565b506040820151816002015560608201518160030160006101000a81548173ffffffffffffffffffffffffffffffffffffffff021916908373ffffffffffffffffffffffffffffffffffffffff16021790555050505050505050505050565b60035481565b60006103f46109e0565b90506000670de0b6b3a76400006003548461040f9190611126565b6104199190611515565b9050600061042683610aa5565b60405160200161043691906111f0565b6040516020818303038152906040529050600060405180608001604052808681526020018381526020018481526020013373ffffffffffffffffffffffffffffffffffffffff168152509050600260003373ffffffffffffffffffffffffffffffffffffffff1673ffffffffffffffffffffffffffffffffffffffff16815260200190815260200160002081908060018154018082558091505060019003906000526020600020906004020160009091909190915060008201518160000155602082015181600101908161050a9190611414565b506040820151816002015560608201518160030160006101000a81548173ffffffffffffffffffffffffffffffffffffffff021916908373ffffffffffffffffffffffffffffffffffffffff1602179055505050600460009054906101000a900473ffffffffffffffffffffffffffffffffffffffff1673ffffffffffffffffffffffffffffffffffffffff166108fc349081150290604051600060405180830381858888f193505050501580156105c6573d6000803e3d6000fd5b505050505050565b60008060008054906101000a900473ffffffffffffffffffffffffffffffffffffffff1673ffffffffffffffffffffffffffffffffffffffff1663feaf968c6040518163ffffffff1660e01b815260040160a060405180830381865afa15801561063c573d6000803e3d6000fd5b505050506040513d601f19601f8201168201806040525081019061066091906115c9565b5050509150508091505090565b60008054906101000a900473ffffffffffffffffffffffffffffffffffffffff1681565b600581815481106106a157600080fd5b90600052602060002090600402016000915090508060000154908060010180546106ca90611241565b80601f01602080910402602001604051908101604052809291908181526020018280546106f690611241565b80156107435780601f1061071857610100808354040283529160200191610743565b820191906000526020600020905b81548152906001019060200180831161072657829003601f168201915b5050505050908060020154908060030160009054906101000a900473ffffffffffffffffffffffffffffffffffffffff16905084565b60006005828154811061078f5761078e611644565b5b9060005260206000209060040201604051806080016040529081600082015481526020016001820180546107c290611241565b80601f01602080910402602001604051908101604052809291908181526020018280546107ee90611241565b801561083b5780601f106108105761010080835404028352916020019161083b565b820191906000526020600020905b81548152906001019060200180831161081e57829003601f168201915b50505050508152602001600282015481526020016003820160009054906101000a900473ffffffffffffffffffffffffffffffffffffffff1673ffffffffffffffffffffffffffffffffffffffff1673ffffffffffffffffffffffffffffffffffffffff168152505090505b6005805490508210156108e757600582815481106108c8576108c7611644565b5b90600052602060002090505081806108df90611673565b9250506108a7565b5050565b6002602052816000526040600020818154811061090757600080fd5b90600052602060002090600402016000915091505080600001549080600101805461093190611241565b80601f016020809104026020016040519081016040528092919081815260200182805461095d90611241565b80156109aa5780601f1061097f576101008083540402835291602001916109aa565b820191906000526020600020905b81548152906001019060200180831161098d57829003601f168201915b5050505050908060020154908060030160009054906101000a900473ffffffffffffffffffffffffffffffffffffffff16905084565b60008060008054906101000a900473ffffffffffffffffffffffffffffffffffffffff1673ffffffffffffffffffffffffffffffffffffffff1663feaf968c6040518163ffffffff1660e01b815260040160a060405180830381865afa158015610a4e573d6000803e3d6000fd5b505050506040513d601f19601f82011682018060405250810190610a7291906115c9565b5093505050508091505090565b600460009054906101000a900473ffffffffffffffffffffffffffffffffffffffff1681565b606060008203610aec576040518060400160405280600181526020017f30000000000000000000000000000000000000000000000000000000000000008152509050610c06565b600082905060005b60008214610b1e578080610b0790611673565b915050600a82610b179190611515565b9150610af4565b60008167ffffffffffffffff811115610b3a57610b39610d25565b5b6040519080825280601f01601f191660200182016040528015610b6c5781602001600182028036833780820191505090505b50905060008290505b60008614610bfe57600181610b8a91906116bb565b9050600a86610b9991906116ef565b6030610ba59190611720565b60f81b828281518110610bbb57610bba611644565b5b60200101907effffffffffffffffffffffffffffffffffffffffffffffffffffffffffffff1916908160001a905350600a86610bf79190611515565b9550610b75565b819450505050505b919050565b6000604051905090565b600080fd5b600080fd5b600073ffffffffffffffffffffffffffffffffffffffff82169050919050565b6000610c4a82610c1f565b9050919050565b610c5a81610c3f565b8114610c6557600080fd5b50565b600081359050610c7781610c51565b92915050565b600060208284031215610c9357610c92610c15565b5b6000610ca184828501610c68565b91505092915050565b6000819050919050565b610cbd81610caa565b82525050565b6000602082019050610cd86000830184610cb4565b92915050565b610ce781610caa565b8114610cf257600080fd5b50565b600081359050610d0481610cde565b92915050565b600080fd5b600080fd5b6000601f19601f8301169050919050565b7f4e487b7100000000000000000000000000000000000000000000000000000000600052604160045260246000fd5b610d5d82610d14565b810181811067ffffffffffffffff82111715610d7c57610d7b610d25565b5b80604052505050565b6000610d8f610c0b565b9050610d9b8282610d54565b919050565b600067ffffffffffffffff821115610dbb57610dba610d25565b5b610dc482610d14565b9050602081019050919050565b82818337600083830152505050565b6000610df3610dee84610da0565b610d85565b905082815260208101848484011115610e0f57610e0e610d0f565b5b610e1a848285610dd1565b509392505050565b600082601f830112610e3757610e36610d0a565b5b8135610e47848260208601610de0565b91505092915050565b600080600080600060a08688031215610e6c57610e6b610c15565b5b6000610e7a88828901610cf5565b955050602086013567ffffffffffffffff811115610e9b57610e9a610c1a565b5b610ea788828901610e22565b9450506040610eb888828901610cf5565b9350506060610ec988828901610c68565b9250506080610eda88828901610cf5565b9150509295509295909350565b600060208284031215610efd57610efc610c15565b5b6000610f0b84828501610cf5565b91505092915050565b6000819050919050565b610f2781610f14565b82525050565b6000602082019050610f426000830184610f1e565b92915050565b6000819050919050565b6000610f6d610f68610f6384610c1f565b610f48565b610c1f565b9050919050565b6000610f7f82610f52565b9050919050565b6000610f9182610f74565b9050919050565b610fa181610f86565b82525050565b6000602082019050610fbc6000830184610f98565b92915050565b600081519050919050565b600082825260208201905092915050565b60005b83811015610ffc578082015181840152602081019050610fe1565b60008484015250505050565b600061101382610fc2565b61101d8185610fcd565b935061102d818560208601610fde565b61103681610d14565b840191505092915050565b61104a81610c3f565b82525050565b60006080820190506110656000830187610cb4565b81810360208301526110778186611008565b90506110866040830185610cb4565b6110936060830184611041565b95945050505050565b600080604083850312156110b3576110b2610c15565b5b60006110c185828601610c68565b92505060206110d285828601610cf5565b9150509250929050565b60006020820190506110f16000830184611041565b92915050565b7f4e487b7100000000000000000000000000000000000000000000000000000000600052601160045260246000fd5b600061113182610caa565b915061113c83610caa565b925082820261114a81610caa565b91508282048414831517611161576111606110f7565b5b5092915050565b600081905092915050565b7f53657373696f6e2d000000000000000000000000000000000000000000000000600082015250565b60006111a9600883611168565b91506111b482611173565b600882019050919050565b60006111ca82610fc2565b6111d48185611168565b93506111e4818560208601610fde565b80840191505092915050565b60006111fb8261119c565b915061120782846111bf565b915081905092915050565b7f4e487b7100000000000000000000000000000000000000000000000000000000600052602260045260246000fd5b6000600282049050600182168061125957607f821691505b60208210810361126c5761126b611212565b5b50919050565b60008190508160005260206000209050919050565b60006020601f8301049050919050565b600082821b905092915050565b6000600883026112d47fffffffffffffffffffffffffffffffffffffffffffffffffffffffffffffffff82611297565b6112de8683611297565b95508019841693508086168417925050509392505050565b600061131161130c61130784610caa565b610f48565b610caa565b9050919050565b6000819050919050565b61132b836112f6565b61133f61133782611318565b8484546112a4565b825550505050565b600090565b611354611347565b61135f818484611322565b505050565b5b818110156113835761137860008261134c565b600181019050611365565b5050565b601f8211156113c85761139981611272565b6113a284611287565b810160208510156113b1578190505b6113c56113bd85611287565b830182611364565b50505b505050565b600082821c905092915050565b60006113eb600019846008026113cd565b1980831691505092915050565b600061140483836113da565b9150826002028217905092915050565b61141d82610fc2565b67ffffffffffffffff81111561143657611435610d25565b5b6114408254611241565b61144b828285611387565b600060209050601f83116001811461147e576000841561146c578287015190505b61147685826113f8565b8655506114de565b601f19841661148c86611272565b60005b828110156114b45784890151825560018201915060208501945060208101905061148f565b868310156114d157848901516114cd601f8916826113da565b8355505b6001600288020188555050505b505050505050565b7f4e487b7100000000000000000000000000000000000000000000000000000000600052601260045260246000fd5b600061152082610caa565b915061152b83610caa565b92508261153b5761153a6114e6565b5b828204905092915050565b600069ffffffffffffffffffff82169050919050565b61156581611546565b811461157057600080fd5b50565b6000815190506115828161155c565b92915050565b61159181610f14565b811461159c57600080fd5b50565b6000815190506115ae81611588565b92915050565b6000815190506115c381610cde565b92915050565b600080600080600060a086880312156115e5576115e4610c15565b5b60006115f388828901611573565b95505060206116048882890161159f565b9450506040611615888289016115b4565b9350506060611626888289016115b4565b925050608061163788828901611573565b9150509295509295909350565b7f4e487b7100000000000000000000000000000000000000000000000000000000600052603260045260246000fd5b600061167e82610caa565b91507fffffffffffffffffffffffffffffffffffffffffffffffffffffffffffffffff82036116b0576116af6110f7565b5b600182019050919050565b60006116c682610caa565b91506116d183610caa565b92508282039050818111156116e9576116e86110f7565b5b92915050565b60006116fa82610caa565b915061170583610caa565b925082611715576117146114e6565b5b828206905092915050565b600061172b82610caa565b915061173683610caa565b925082820190508082111561174e5761174d6110f7565b5b9291505056fea2646970667358221220e81381eb0b06ecd9a3dad99e6af7a0cd8b045fde88001f040d6a17907844e0a264736f6c63430008130033",
			"opcodes": "PUSH1 0x80 PUSH1 0x40 MSTORE PUSH7 0x2386F26FC10000 PUSH1 0x3 SSTORE CALLVALUE DUP1 ISZERO PUSH3 0x1C JUMPI PUSH1 0x0 DUP1 REVERT JUMPDEST POP PUSH1 0x40 MLOAD PUSH3 0x1914 CODESIZE SUB DUP1 PUSH3 0x1914 DUP4 CODECOPY DUP2 DUP2 ADD PUSH1 0x40 MSTORE DUP2 ADD SWAP1 PUSH3 0x42 SWAP2 SWAP1 PUSH3 0x148 JUMP JUMPDEST PUSH20 0xFEEFF7C3FB57D18C5C6CDD71E45D2D0B4F9377BF PUSH1 0x0 DUP1 PUSH2 0x100 EXP DUP2 SLOAD DUP2 PUSH20 0xFFFFFFFFFFFFFFFFFFFFFFFFFFFFFFFFFFFFFFFF MUL NOT AND SWAP1 DUP4 PUSH20 0xFFFFFFFFFFFFFFFFFFFFFFFFFFFFFFFFFFFFFFFF AND MUL OR SWAP1 SSTORE POP DUP1 PUSH1 0x4 PUSH1 0x0 PUSH2 0x100 EXP DUP2 SLOAD DUP2 PUSH20 0xFFFFFFFFFFFFFFFFFFFFFFFFFFFFFFFFFFFFFFFF MUL NOT AND SWAP1 DUP4 PUSH20 0xFFFFFFFFFFFFFFFFFFFFFFFFFFFFFFFFFFFFFFFF AND MUL OR SWAP1 SSTORE POP POP PUSH3 0x17A JUMP JUMPDEST PUSH1 0x0 DUP1 REVERT JUMPDEST PUSH1 0x0 PUSH20 0xFFFFFFFFFFFFFFFFFFFFFFFFFFFFFFFFFFFFFFFF DUP3 AND SWAP1 POP SWAP2 SWAP1 POP JUMP JUMPDEST PUSH1 0x0 PUSH3 0x110 DUP3 PUSH3 0xE3 JUMP JUMPDEST SWAP1 POP SWAP2 SWAP1 POP JUMP JUMPDEST PUSH3 0x122 DUP2 PUSH3 0x103 JUMP JUMPDEST DUP2 EQ PUSH3 0x12E JUMPI PUSH1 0x0 DUP1 REVERT JUMPDEST POP JUMP JUMPDEST PUSH1 0x0 DUP2 MLOAD SWAP1 POP PUSH3 0x142 DUP2 PUSH3 0x117 JUMP JUMPDEST SWAP3 SWAP2 POP POP JUMP JUMPDEST PUSH1 0x0 PUSH1 0x20 DUP3 DUP5 SUB SLT ISZERO PUSH3 0x161 JUMPI PUSH3 0x160 PUSH3 0xDE JUMP JUMPDEST JUMPDEST PUSH1 0x0 PUSH3 0x171 DUP5 DUP3 DUP6 ADD PUSH3 0x131 JUMP JUMPDEST SWAP2 POP POP SWAP3 SWAP2 POP POP JUMP JUMPDEST PUSH2 0x178A DUP1 PUSH3 0x18A PUSH1 0x0 CODECOPY PUSH1 0x0 RETURN INVALID PUSH1 0x80 PUSH1 0x40 MSTORE PUSH1 0x4 CALLDATASIZE LT PUSH2 0x9C JUMPI PUSH1 0x0 CALLDATALOAD PUSH1 0xE0 SHR DUP1 PUSH4 0xB7488EE1 GT PUSH2 0x64 JUMPI DUP1 PUSH4 0xB7488EE1 EQ PUSH2 0x179 JUMPI DUP1 PUSH4 0xBFCD9A63 EQ PUSH2 0x1A4 JUMPI DUP1 PUSH4 0xDBE4AA89 EQ PUSH2 0x1E4 JUMPI DUP1 PUSH4 0xE85D28B9 EQ PUSH2 0x20D JUMPI DUP1 PUSH4 0xF43B52CB EQ PUSH2 0x24D JUMPI DUP1 PUSH4 0xF4B0B756 EQ PUSH2 0x278 JUMPI PUSH2 0x9C JUMP JUMPDEST DUP1 PUSH4 0x1DA45E4E EQ PUSH2 0xA1 JUMPI DUP1 PUSH4 0x31F0C91F EQ PUSH2 0xDE JUMPI DUP1 PUSH4 0x505DC61D EQ PUSH2 0x107 JUMPI DUP1 PUSH4 0x8A928548 EQ PUSH2 0x132 JUMPI DUP1 PUSH4 0x8E15F473 EQ PUSH2 0x14E JUMPI JUMPDEST PUSH1 0x0 DUP1 REVERT JUMPDEST CALLVALUE DUP1 ISZERO PUSH2 0xAD JUMPI PUSH1 0x0 DUP1 REVERT JUMPDEST POP PUSH2 0xC8 PUSH1 0x4 DUP1 CALLDATASIZE SUB DUP2 ADD SWAP1 PUSH2 0xC3 SWAP2 SWAP1 PUSH2 0xC7D JUMP JUMPDEST PUSH2 0x2A3 JUMP JUMPDEST PUSH1 0x40 MLOAD PUSH2 0xD5 SWAP2 SWAP1 PUSH2 0xCC3 JUMP JUMPDEST PUSH1 0x40 MLOAD DUP1 SWAP2 SUB SWAP1 RETURN JUMPDEST CALLVALUE DUP1 ISZERO PUSH2 0xEA JUMPI PUSH1 0x0 DUP1 REVERT JUMPDEST POP PUSH2 0x105 PUSH1 0x4 DUP1 CALLDATASIZE SUB DUP2 ADD SWAP1 PUSH2 0x100 SWAP2 SWAP1 PUSH2 0xE50 JUMP JUMPDEST PUSH2 0x2BB JUMP JUMPDEST STOP JUMPDEST CALLVALUE DUP1 ISZERO PUSH2 0x113 JUMPI PUSH1 0x0 DUP1 REVERT JUMPDEST POP PUSH2 0x11C PUSH2 0x3E4 JUMP JUMPDEST PUSH1 0x40 MLOAD PUSH2 0x129 SWAP2 SWAP1 PUSH2 0xCC3 JUMP JUMPDEST PUSH1 0x40 MLOAD DUP1 SWAP2 SUB SWAP1 RETURN JUMPDEST PUSH2 0x14C PUSH1 0x4 DUP1 CALLDATASIZE SUB DUP2 ADD SWAP1 PUSH2 0x147 SWAP2 SWAP1 PUSH2 0xEE7 JUMP JUMPDEST PUSH2 0x3EA JUMP JUMPDEST STOP JUMPDEST CALLVALUE DUP1 ISZERO PUSH2 0x15A JUMPI PUSH1 0x0 DUP1 REVERT JUMPDEST POP PUSH2 0x163 PUSH2 0x5CE JUMP JUMPDEST PUSH1 0x40 MLOAD PUSH2 0x170 SWAP2 SWAP1 PUSH2 0xF2D JUMP JUMPDEST PUSH1 0x40 MLOAD DUP1 SWAP2 SUB SWAP1 RETURN JUMPDEST CALLVALUE DUP1 ISZERO PUSH2 0x185 JUMPI PUSH1 0x0 DUP1 REVERT JUMPDEST POP PUSH2 0x18E PUSH2 0x66D JUMP JUMPDEST PUSH1 0x40 MLOAD PUSH2 0x19B SWAP2 SWAP1 PUSH2 0xFA7 JUMP JUMPDEST PUSH1 0x40 MLOAD DUP1 SWAP2 SUB SWAP1 RETURN JUMPDEST CALLVALUE DUP1 ISZERO PUSH2 0x1B0 JUMPI PUSH1 0x0 DUP1 REVERT JUMPDEST POP PUSH2 0x1CB PUSH1 0x4 DUP1 CALLDATASIZE SUB DUP2 ADD SWAP1 PUSH2 0x1C6 SWAP2 SWAP1 PUSH2 0xEE7 JUMP JUMPDEST PUSH2 0x691 JUMP JUMPDEST PUSH1 0x40 MLOAD PUSH2 0x1DB SWAP5 SWAP4 SWAP3 SWAP2 SWAP1 PUSH2 0x1050 JUMP JUMPDEST PUSH1 0x40 MLOAD DUP1 SWAP2 SUB SWAP1 RETURN JUMPDEST CALLVALUE DUP1 ISZERO PUSH2 0x1F0 JUMPI PUSH1 0x0 DUP1 REVERT JUMPDEST POP PUSH2 0x20B PUSH1 0x4 DUP1 CALLDATASIZE SUB DUP2 ADD SWAP1 PUSH2 0x206 SWAP2 SWAP1 PUSH2 0xEE7 JUMP JUMPDEST PUSH2 0x779 JUMP JUMPDEST STOP JUMPDEST CALLVALUE DUP1 ISZERO PUSH2 0x219 JUMPI PUSH1 0x0 DUP1 REVERT JUMPDEST POP PUSH2 0x234 PUSH1 0x4 DUP1 CALLDATASIZE SUB DUP2 ADD SWAP1 PUSH2 0x22F SWAP2 SWAP1 PUSH2 0x109C JUMP JUMPDEST PUSH2 0x8EB JUMP JUMPDEST PUSH1 0x40 MLOAD PUSH2 0x244 SWAP5 SWAP4 SWAP3 SWAP2 SWAP1 PUSH2 0x1050 JUMP JUMPDEST PUSH1 0x40 MLOAD DUP1 SWAP2 SUB SWAP1 RETURN JUMPDEST CALLVALUE DUP1 ISZERO PUSH2 0x259 JUMPI PUSH1 0x0 DUP1 REVERT JUMPDEST POP PUSH2 0x262 PUSH2 0x9E0 JUMP JUMPDEST PUSH1 0x40 MLOAD PUSH2 0x26F SWAP2 SWAP1 PUSH2 0xCC3 JUMP JUMPDEST PUSH1 0x40 MLOAD DUP1 SWAP2 SUB SWAP1 RETURN JUMPDEST CALLVALUE DUP1 ISZERO PUSH2 0x284 JUMPI PUSH1 0x0 DUP1 REVERT JUMPDEST POP PUSH2 0x28D PUSH2 0xA7F JUMP JUMPDEST PUSH1 0x40 MLOAD PUSH2 0x29A SWAP2 SWAP1 PUSH2 0x10DC JUMP JUMPDEST PUSH1 0x40 MLOAD DUP1 SWAP2 SUB SWAP1 RETURN JUMPDEST PUSH1 0x1 PUSH1 0x20 MSTORE DUP1 PUSH1 0x0 MSTORE PUSH1 0x40 PUSH1 0x0 KECCAK256 PUSH1 0x0 SWAP2 POP SWAP1 POP SLOAD DUP2 JUMP JUMPDEST PUSH1 0x0 PUSH2 0x2C5 PUSH2 0x9E0 JUMP JUMPDEST SWAP1 POP PUSH1 0x0 PUSH1 0x3 SLOAD DUP8 PUSH2 0x2D7 SWAP2 SWAP1 PUSH2 0x1126 JUMP JUMPDEST SWAP1 POP PUSH1 0x0 PUSH2 0x2E4 DUP4 PUSH2 0xAA5 JUMP JUMPDEST PUSH1 0x40 MLOAD PUSH1 0x20 ADD PUSH2 0x2F4 SWAP2 SWAP1 PUSH2 0x11F0 JUMP JUMPDEST PUSH1 0x40 MLOAD PUSH1 0x20 DUP2 DUP4 SUB SUB DUP2 MSTORE SWAP1 PUSH1 0x40 MSTORE SWAP1 POP PUSH1 0x5 PUSH1 0x40 MLOAD DUP1 PUSH1 0x80 ADD PUSH1 0x40 MSTORE DUP1 DUP11 DUP2 MSTORE PUSH1 0x20 ADD DUP10 DUP2 MSTORE PUSH1 0x20 ADD DUP9 DUP2 MSTORE PUSH1 0x20 ADD CALLER PUSH20 0xFFFFFFFFFFFFFFFFFFFFFFFFFFFFFFFFFFFFFFFF AND DUP2 MSTORE POP SWAP1 DUP1 PUSH1 0x1 DUP2 SLOAD ADD DUP1 DUP3 SSTORE DUP1 SWAP2 POP POP PUSH1 0x1 SWAP1 SUB SWAP1 PUSH1 0x0 MSTORE PUSH1 0x20 PUSH1 0x0 KECCAK256 SWAP1 PUSH1 0x4 MUL ADD PUSH1 0x0 SWAP1 SWAP2 SWAP1 SWAP2 SWAP1 SWAP2 POP PUSH1 0x0 DUP3 ADD MLOAD DUP2 PUSH1 0x0 ADD SSTORE PUSH1 0x20 DUP3 ADD MLOAD DUP2 PUSH1 0x1 ADD SWAP1 DUP2 PUSH2 0x386 SWAP2 SWAP1 PUSH2 0x1414 JUMP JUMPDEST POP PUSH1 0x40 DUP3 ADD MLOAD DUP2 PUSH1 0x2 ADD SSTORE PUSH1 0x60 DUP3 ADD MLOAD DUP2 PUSH1 0x3 ADD PUSH1 0x0 PUSH2 0x100 EXP DUP2 SLOAD DUP2 PUSH20 0xFFFFFFFFFFFFFFFFFFFFFFFFFFFFFFFFFFFFFFFF MUL NOT AND SWAP1 DUP4 PUSH20 0xFFFFFFFFFFFFFFFFFFFFFFFFFFFFFFFFFFFFFFFF AND MUL OR SWAP1 SSTORE POP POP POP POP POP POP POP POP POP POP POP JUMP JUMPDEST PUSH1 0x3 SLOAD DUP2 JUMP JUMPDEST PUSH1 0x0 PUSH2 0x3F4 PUSH2 0x9E0 JUMP JUMPDEST SWAP1 POP PUSH1 0x0 PUSH8 0xDE0B6B3A7640000 PUSH1 0x3 SLOAD DUP5 PUSH2 0x40F SWAP2 SWAP1 PUSH2 0x1126 JUMP JUMPDEST PUSH2 0x419 SWAP2 SWAP1 PUSH2 0x1515 JUMP JUMPDEST SWAP1 POP PUSH1 0x0 PUSH2 0x426 DUP4 PUSH2 0xAA5 JUMP JUMPDEST PUSH1 0x40 MLOAD PUSH1 0x20 ADD PUSH2 0x436 SWAP2 SWAP1 PUSH2 0x11F0 JUMP JUMPDEST PUSH1 0x40 MLOAD PUSH1 0x20 DUP2 DUP4 SUB SUB DUP2 MSTORE SWAP1 PUSH1 0x40 MSTORE SWAP1 POP PUSH1 0x0 PUSH1 0x40 MLOAD DUP1 PUSH1 0x80 ADD PUSH1 0x40 MSTORE DUP1 DUP7 DUP2 MSTORE PUSH1 0x20 ADD DUP4 DUP2 MSTORE PUSH1 0x20 ADD DUP5 DUP2 MSTORE PUSH1 0x20 ADD CALLER PUSH20 0xFFFFFFFFFFFFFFFFFFFFFFFFFFFFFFFFFFFFFFFF AND DUP2 MSTORE POP SWAP1 POP PUSH1 0x2 PUSH1 0x0 CALLER PUSH20 0xFFFFFFFFFFFFFFFFFFFFFFFFFFFFFFFFFFFFFFFF AND PUSH20 0xFFFFFFFFFFFFFFFFFFFFFFFFFFFFFFFFFFFFFFFF AND DUP2 MSTORE PUSH1 0x20 ADD SWAP1 DUP2 MSTORE PUSH1 0x20 ADD PUSH1 0x0 KECCAK256 DUP2 SWAP1 DUP1 PUSH1 0x1 DUP2 SLOAD ADD DUP1 DUP3 SSTORE DUP1 SWAP2 POP POP PUSH1 0x1 SWAP1 SUB SWAP1 PUSH1 0x0 MSTORE PUSH1 0x20 PUSH1 0x0 KECCAK256 SWAP1 PUSH1 0x4 MUL ADD PUSH1 0x0 SWAP1 SWAP2 SWAP1 SWAP2 SWAP1 SWAP2 POP PUSH1 0x0 DUP3 ADD MLOAD DUP2 PUSH1 0x0 ADD SSTORE PUSH1 0x20 DUP3 ADD MLOAD DUP2 PUSH1 0x1 ADD SWAP1 DUP2 PUSH2 0x50A SWAP2 SWAP1 PUSH2 0x1414 JUMP JUMPDEST POP PUSH1 0x40 DUP3 ADD MLOAD DUP2 PUSH1 0x2 ADD SSTORE PUSH1 0x60 DUP3 ADD MLOAD DUP2 PUSH1 0x3 ADD PUSH1 0x0 PUSH2 0x100 EXP DUP2 SLOAD DUP2 PUSH20 0xFFFFFFFFFFFFFFFFFFFFFFFFFFFFFFFFFFFFFFFF MUL NOT AND SWAP1 DUP4 PUSH20 0xFFFFFFFFFFFFFFFFFFFFFFFFFFFFFFFFFFFFFFFF AND MUL OR SWAP1 SSTORE POP POP POP PUSH1 0x4 PUSH1 0x0 SWAP1 SLOAD SWAP1 PUSH2 0x100 EXP SWAP1 DIV PUSH20 0xFFFFFFFFFFFFFFFFFFFFFFFFFFFFFFFFFFFFFFFF AND PUSH20 0xFFFFFFFFFFFFFFFFFFFFFFFFFFFFFFFFFFFFFFFF AND PUSH2 0x8FC CALLVALUE SWAP1 DUP2 ISZERO MUL SWAP1 PUSH1 0x40 MLOAD PUSH1 0x0 PUSH1 0x40 MLOAD DUP1 DUP4 SUB DUP2 DUP6 DUP9 DUP9 CALL SWAP4 POP POP POP POP ISZERO DUP1 ISZERO PUSH2 0x5C6 JUMPI RETURNDATASIZE PUSH1 0x0 DUP1 RETURNDATACOPY RETURNDATASIZE PUSH1 0x0 REVERT JUMPDEST POP POP POP POP POP POP JUMP JUMPDEST PUSH1 0x0 DUP1 PUSH1 0x0 DUP1 SLOAD SWAP1 PUSH2 0x100 EXP SWAP1 DIV PUSH20 0xFFFFFFFFFFFFFFFFFFFFFFFFFFFFFFFFFFFFFFFF AND PUSH20 0xFFFFFFFFFFFFFFFFFFFFFFFFFFFFFFFFFFFFFFFF AND PUSH4 0xFEAF968C PUSH1 0x40 MLOAD DUP2 PUSH4 0xFFFFFFFF AND PUSH1 0xE0 SHL DUP2 MSTORE PUSH1 0x4 ADD PUSH1 0xA0 PUSH1 0x40 MLOAD DUP1 DUP4 SUB DUP2 DUP7 GAS STATICCALL ISZERO DUP1 ISZERO PUSH2 0x63C JUMPI RETURNDATASIZE PUSH1 0x0 DUP1 RETURNDATACOPY RETURNDATASIZE PUSH1 0x0 REVERT JUMPDEST POP POP POP POP PUSH1 0x40 MLOAD RETURNDATASIZE PUSH1 0x1F NOT PUSH1 0x1F DUP3 ADD AND DUP3 ADD DUP1 PUSH1 0x40 MSTORE POP DUP2 ADD SWAP1 PUSH2 0x660 SWAP2 SWAP1 PUSH2 0x15C9 JUMP JUMPDEST POP POP POP SWAP2 POP POP DUP1 SWAP2 POP POP SWAP1 JUMP JUMPDEST PUSH1 0x0 DUP1 SLOAD SWAP1 PUSH2 0x100 EXP SWAP1 DIV PUSH20 0xFFFFFFFFFFFFFFFFFFFFFFFFFFFFFFFFFFFFFFFF AND DUP2 JUMP JUMPDEST PUSH1 0x5 DUP2 DUP2 SLOAD DUP2 LT PUSH2 0x6A1 JUMPI PUSH1 0x0 DUP1 REVERT JUMPDEST SWAP1 PUSH1 0x0 MSTORE PUSH1 0x20 PUSH1 0x0 KECCAK256 SWAP1 PUSH1 0x4 MUL ADD PUSH1 0x0 SWAP2 POP SWAP1 POP DUP1 PUSH1 0x0 ADD SLOAD SWAP1 DUP1 PUSH1 0x1 ADD DUP1 SLOAD PUSH2 0x6CA SWAP1 PUSH2 0x1241 JUMP JUMPDEST DUP1 PUSH1 0x1F ADD PUSH1 0x20 DUP1 SWAP2 DIV MUL PUSH1 0x20 ADD PUSH1 0x40 MLOAD SWAP1 DUP2 ADD PUSH1 0x40 MSTORE DUP1 SWAP3 SWAP2 SWAP1 DUP2 DUP2 MSTORE PUSH1 0x20 ADD DUP3 DUP1 SLOAD PUSH2 0x6F6 SWAP1 PUSH2 0x1241 JUMP JUMPDEST DUP1 ISZERO PUSH2 0x743 JUMPI DUP1 PUSH1 0x1F LT PUSH2 0x718 JUMPI PUSH2 0x100 DUP1 DUP4 SLOAD DIV MUL DUP4 MSTORE SWAP2 PUSH1 0x20 ADD SWAP2 PUSH2 0x743 JUMP JUMPDEST DUP3 ADD SWAP2 SWAP1 PUSH1 0x0 MSTORE PUSH1 0x20 PUSH1 0x0 KECCAK256 SWAP1 JUMPDEST DUP2 SLOAD DUP2 MSTORE SWAP1 PUSH1 0x1 ADD SWAP1 PUSH1 0x20 ADD DUP1 DUP4 GT PUSH2 0x726 JUMPI DUP3 SWAP1 SUB PUSH1 0x1F AND DUP3 ADD SWAP2 JUMPDEST POP POP POP POP POP SWAP1 DUP1 PUSH1 0x2 ADD SLOAD SWAP1 DUP1 PUSH1 0x3 ADD PUSH1 0x0 SWAP1 SLOAD SWAP1 PUSH2 0x100 EXP SWAP1 DIV PUSH20 0xFFFFFFFFFFFFFFFFFFFFFFFFFFFFFFFFFFFFFFFF AND SWAP1 POP DUP5 JUMP JUMPDEST PUSH1 0x0 PUSH1 0x5 DUP3 DUP2 SLOAD DUP2 LT PUSH2 0x78F JUMPI PUSH2 0x78E PUSH2 0x1644 JUMP JUMPDEST JUMPDEST SWAP1 PUSH1 0x0 MSTORE PUSH1 0x20 PUSH1 0x0 KECCAK256 SWAP1 PUSH1 0x4 MUL ADD PUSH1 0x40 MLOAD DUP1 PUSH1 0x80 ADD PUSH1 0x40 MSTORE SWAP1 DUP2 PUSH1 0x0 DUP3 ADD SLOAD DUP2 MSTORE PUSH1 0x20 ADD PUSH1 0x1 DUP3 ADD DUP1 SLOAD PUSH2 0x7C2 SWAP1 PUSH2 0x1241 JUMP JUMPDEST DUP1 PUSH1 0x1F ADD PUSH1 0x20 DUP1 SWAP2 DIV MUL PUSH1 0x20 ADD PUSH1 0x40 MLOAD SWAP1 DUP2 ADD PUSH1 0x40 MSTORE DUP1 SWAP3 SWAP2 SWAP1 DUP2 DUP2 MSTORE PUSH1 0x20 ADD DUP3 DUP1 SLOAD PUSH2 0x7EE SWAP1 PUSH2 0x1241 JUMP JUMPDEST DUP1 ISZERO PUSH2 0x83B JUMPI DUP1 PUSH1 0x1F LT PUSH2 0x810 JUMPI PUSH2 0x100 DUP1 DUP4 SLOAD DIV MUL DUP4 MSTORE SWAP2 PUSH1 0x20 ADD SWAP2 PUSH2 0x83B JUMP JUMPDEST DUP3 ADD SWAP2 SWAP1 PUSH1 0x0 MSTORE PUSH1 0x20 PUSH1 0x0 KECCAK256 SWAP1 JUMPDEST DUP2 SLOAD DUP2 MSTORE SWAP1 PUSH1 0x1 ADD SWAP1 PUSH1 0x20 ADD DUP1 DUP4 GT PUSH2 0x81E JUMPI DUP3 SWAP1 SUB PUSH1 0x1F AND DUP3 ADD SWAP2 JUMPDEST POP POP POP POP POP DUP2 MSTORE PUSH1 0x20 ADD PUSH1 0x2 DUP3 ADD SLOAD DUP2 MSTORE PUSH1 0x20 ADD PUSH1 0x3 DUP3 ADD PUSH1 0x0 SWAP1 SLOAD SWAP1 PUSH2 0x100 EXP SWAP1 DIV PUSH20 0xFFFFFFFFFFFFFFFFFFFFFFFFFFFFFFFFFFFFFFFF AND PUSH20 0xFFFFFFFFFFFFFFFFFFFFFFFFFFFFFFFFFFFFFFFF AND PUSH20 0xFFFFFFFFFFFFFFFFFFFFFFFFFFFFFFFFFFFFFFFF AND DUP2 MSTORE POP POP SWAP1 POP JUMPDEST PUSH1 0x5 DUP1 SLOAD SWAP1 POP DUP3 LT ISZERO PUSH2 0x8E7 JUMPI PUSH1 0x5 DUP3 DUP2 SLOAD DUP2 LT PUSH2 0x8C8 JUMPI PUSH2 0x8C7 PUSH2 0x1644 JUMP JUMPDEST JUMPDEST SWAP1 PUSH1 0x0 MSTORE PUSH1 0x20 PUSH1 0x0 KECCAK256 SWAP1 POP POP DUP2 DUP1 PUSH2 0x8DF SWAP1 PUSH2 0x1673 JUMP JUMPDEST SWAP3 POP POP PUSH2 0x8A7 JUMP JUMPDEST POP POP JUMP JUMPDEST PUSH1 0x2 PUSH1 0x20 MSTORE DUP2 PUSH1 0x0 MSTORE PUSH1 0x40 PUSH1 0x0 KECCAK256 DUP2 DUP2 SLOAD DUP2 LT PUSH2 0x907 JUMPI PUSH1 0x0 DUP1 REVERT JUMPDEST SWAP1 PUSH1 0x0 MSTORE PUSH1 0x20 PUSH1 0x0 KECCAK256 SWAP1 PUSH1 0x4 MUL ADD PUSH1 0x0 SWAP2 POP SWAP2 POP POP DUP1 PUSH1 0x0 ADD SLOAD SWAP1 DUP1 PUSH1 0x1 ADD DUP1 SLOAD PUSH2 0x931 SWAP1 PUSH2 0x1241 JUMP JUMPDEST DUP1 PUSH1 0x1F ADD PUSH1 0x20 DUP1 SWAP2 DIV MUL PUSH1 0x20 ADD PUSH1 0x40 MLOAD SWAP1 DUP2 ADD PUSH1 0x40 MSTORE DUP1 SWAP3 SWAP2 SWAP1 DUP2 DUP2 MSTORE PUSH1 0x20 ADD DUP3 DUP1 SLOAD PUSH2 0x95D SWAP1 PUSH2 0x1241 JUMP JUMPDEST DUP1 ISZERO PUSH2 0x9AA JUMPI DUP1 PUSH1 0x1F LT PUSH2 0x97F JUMPI PUSH2 0x100 DUP1 DUP4 SLOAD DIV MUL DUP4 MSTORE SWAP2 PUSH1 0x20 ADD SWAP2 PUSH2 0x9AA JUMP JUMPDEST DUP3 ADD SWAP2 SWAP1 PUSH1 0x0 MSTORE PUSH1 0x20 PUSH1 0x0 KECCAK256 SWAP1 JUMPDEST DUP2 SLOAD DUP2 MSTORE SWAP1 PUSH1 0x1 ADD SWAP1 PUSH1 0x20 ADD DUP1 DUP4 GT PUSH2 0x98D JUMPI DUP3 SWAP1 SUB PUSH1 0x1F AND DUP3 ADD SWAP2 JUMPDEST POP POP POP POP POP SWAP1 DUP1 PUSH1 0x2 ADD SLOAD SWAP1 DUP1 PUSH1 0x3 ADD PUSH1 0x0 SWAP1 SLOAD SWAP1 PUSH2 0x100 EXP SWAP1 DIV PUSH20 0xFFFFFFFFFFFFFFFFFFFFFFFFFFFFFFFFFFFFFFFF AND SWAP1 POP DUP5 JUMP JUMPDEST PUSH1 0x0 DUP1 PUSH1 0x0 DUP1 SLOAD SWAP1 PUSH2 0x100 EXP SWAP1 DIV PUSH20 0xFFFFFFFFFFFFFFFFFFFFFFFFFFFFFFFFFFFFFFFF AND PUSH20 0xFFFFFFFFFFFFFFFFFFFFFFFFFFFFFFFFFFFFFFFF AND PUSH4 0xFEAF968C PUSH1 0x40 MLOAD DUP2 PUSH4 0xFFFFFFFF AND PUSH1 0xE0 SHL DUP2 MSTORE PUSH1 0x4 ADD PUSH1 0xA0 PUSH1 0x40 MLOAD DUP1 DUP4 SUB DUP2 DUP7 GAS STATICCALL ISZERO DUP1 ISZERO PUSH2 0xA4E JUMPI RETURNDATASIZE PUSH1 0x0 DUP1 RETURNDATACOPY RETURNDATASIZE PUSH1 0x0 REVERT JUMPDEST POP POP POP POP PUSH1 0x40 MLOAD RETURNDATASIZE PUSH1 0x1F NOT PUSH1 0x1F DUP3 ADD AND DUP3 ADD DUP1 PUSH1 0x40 MSTORE POP DUP2 ADD SWAP1 PUSH2 0xA72 SWAP2 SWAP1 PUSH2 0x15C9 JUMP JUMPDEST POP SWAP4 POP POP POP POP DUP1 SWAP2 POP POP SWAP1 JUMP JUMPDEST PUSH1 0x4 PUSH1 0x0 SWAP1 SLOAD SWAP1 PUSH2 0x100 EXP SWAP1 DIV PUSH20 0xFFFFFFFFFFFFFFFFFFFFFFFFFFFFFFFFFFFFFFFF AND DUP2 JUMP JUMPDEST PUSH1 0x60 PUSH1 0x0 DUP3 SUB PUSH2 0xAEC JUMPI PUSH1 0x40 MLOAD DUP1 PUSH1 0x40 ADD PUSH1 0x40 MSTORE DUP1 PUSH1 0x1 DUP2 MSTORE PUSH1 0x20 ADD PUSH32 0x3000000000000000000000000000000000000000000000000000000000000000 DUP2 MSTORE POP SWAP1 POP PUSH2 0xC06 JUMP JUMPDEST PUSH1 0x0 DUP3 SWAP1 POP PUSH1 0x0 JUMPDEST PUSH1 0x0 DUP3 EQ PUSH2 0xB1E JUMPI DUP1 DUP1 PUSH2 0xB07 SWAP1 PUSH2 0x1673 JUMP JUMPDEST SWAP2 POP POP PUSH1 0xA DUP3 PUSH2 0xB17 SWAP2 SWAP1 PUSH2 0x1515 JUMP JUMPDEST SWAP2 POP PUSH2 0xAF4 JUMP JUMPDEST PUSH1 0x0 DUP2 PUSH8 0xFFFFFFFFFFFFFFFF DUP2 GT ISZERO PUSH2 0xB3A JUMPI PUSH2 0xB39 PUSH2 0xD25 JUMP JUMPDEST JUMPDEST PUSH1 0x40 MLOAD SWAP1 DUP1 DUP3 MSTORE DUP1 PUSH1 0x1F ADD PUSH1 0x1F NOT AND PUSH1 0x20 ADD DUP3 ADD PUSH1 0x40 MSTORE DUP1 ISZERO PUSH2 0xB6C JUMPI DUP2 PUSH1 0x20 ADD PUSH1 0x1 DUP3 MUL DUP1 CALLDATASIZE DUP4 CALLDATACOPY DUP1 DUP3 ADD SWAP2 POP POP SWAP1 POP JUMPDEST POP SWAP1 POP PUSH1 0x0 DUP3 SWAP1 POP JUMPDEST PUSH1 0x0 DUP7 EQ PUSH2 0xBFE JUMPI PUSH1 0x1 DUP2 PUSH2 0xB8A SWAP2 SWAP1 PUSH2 0x16BB JUMP JUMPDEST SWAP1 POP PUSH1 0xA DUP7 PUSH2 0xB99 SWAP2 SWAP1 PUSH2 0x16EF JUMP JUMPDEST PUSH1 0x30 PUSH2 0xBA5 SWAP2 SWAP1 PUSH2 0x1720 JUMP JUMPDEST PUSH1 0xF8 SHL DUP3 DUP3 DUP2 MLOAD DUP2 LT PUSH2 0xBBB JUMPI PUSH2 0xBBA PUSH2 0x1644 JUMP JUMPDEST JUMPDEST PUSH1 0x20 ADD ADD SWAP1 PUSH31 0xFFFFFFFFFFFFFFFFFFFFFFFFFFFFFFFFFFFFFFFFFFFFFFFFFFFFFFFFFFFFFF NOT AND SWAP1 DUP2 PUSH1 0x0 BYTE SWAP1 MSTORE8 POP PUSH1 0xA DUP7 PUSH2 0xBF7 SWAP2 SWAP1 PUSH2 0x1515 JUMP JUMPDEST SWAP6 POP PUSH2 0xB75 JUMP JUMPDEST DUP2 SWAP5 POP POP POP POP POP JUMPDEST SWAP2 SWAP1 POP JUMP JUMPDEST PUSH1 0x0 PUSH1 0x40 MLOAD SWAP1 POP SWAP1 JUMP JUMPDEST PUSH1 0x0 DUP1 REVERT JUMPDEST PUSH1 0x0 DUP1 REVERT JUMPDEST PUSH1 0x0 PUSH20 0xFFFFFFFFFFFFFFFFFFFFFFFFFFFFFFFFFFFFFFFF DUP3 AND SWAP1 POP SWAP2 SWAP1 POP JUMP JUMPDEST PUSH1 0x0 PUSH2 0xC4A DUP3 PUSH2 0xC1F JUMP JUMPDEST SWAP1 POP SWAP2 SWAP1 POP JUMP JUMPDEST PUSH2 0xC5A DUP2 PUSH2 0xC3F JUMP JUMPDEST DUP2 EQ PUSH2 0xC65 JUMPI PUSH1 0x0 DUP1 REVERT JUMPDEST POP JUMP JUMPDEST PUSH1 0x0 DUP2 CALLDATALOAD SWAP1 POP PUSH2 0xC77 DUP2 PUSH2 0xC51 JUMP JUMPDEST SWAP3 SWAP2 POP POP JUMP JUMPDEST PUSH1 0x0 PUSH1 0x20 DUP3 DUP5 SUB SLT ISZERO PUSH2 0xC93 JUMPI PUSH2 0xC92 PUSH2 0xC15 JUMP JUMPDEST JUMPDEST PUSH1 0x0 PUSH2 0xCA1 DUP5 DUP3 DUP6 ADD PUSH2 0xC68 JUMP JUMPDEST SWAP2 POP POP SWAP3 SWAP2 POP POP JUMP JUMPDEST PUSH1 0x0 DUP2 SWAP1 POP SWAP2 SWAP1 POP JUMP JUMPDEST PUSH2 0xCBD DUP2 PUSH2 0xCAA JUMP JUMPDEST DUP3 MSTORE POP POP JUMP JUMPDEST PUSH1 0x0 PUSH1 0x20 DUP3 ADD SWAP1 POP PUSH2 0xCD8 PUSH1 0x0 DUP4 ADD DUP5 PUSH2 0xCB4 JUMP JUMPDEST SWAP3 SWAP2 POP POP JUMP JUMPDEST PUSH2 0xCE7 DUP2 PUSH2 0xCAA JUMP JUMPDEST DUP2 EQ PUSH2 0xCF2 JUMPI PUSH1 0x0 DUP1 REVERT JUMPDEST POP JUMP JUMPDEST PUSH1 0x0 DUP2 CALLDATALOAD SWAP1 POP PUSH2 0xD04 DUP2 PUSH2 0xCDE JUMP JUMPDEST SWAP3 SWAP2 POP POP JUMP JUMPDEST PUSH1 0x0 DUP1 REVERT JUMPDEST PUSH1 0x0 DUP1 REVERT JUMPDEST PUSH1 0x0 PUSH1 0x1F NOT PUSH1 0x1F DUP4 ADD AND SWAP1 POP SWAP2 SWAP1 POP JUMP JUMPDEST PUSH32 0x4E487B7100000000000000000000000000000000000000000000000000000000 PUSH1 0x0 MSTORE PUSH1 0x41 PUSH1 0x4 MSTORE PUSH1 0x24 PUSH1 0x0 REVERT JUMPDEST PUSH2 0xD5D DUP3 PUSH2 0xD14 JUMP JUMPDEST DUP2 ADD DUP2 DUP2 LT PUSH8 0xFFFFFFFFFFFFFFFF DUP3 GT OR ISZERO PUSH2 0xD7C JUMPI PUSH2 0xD7B PUSH2 0xD25 JUMP JUMPDEST JUMPDEST DUP1 PUSH1 0x40 MSTORE POP POP POP JUMP JUMPDEST PUSH1 0x0 PUSH2 0xD8F PUSH2 0xC0B JUMP JUMPDEST SWAP1 POP PUSH2 0xD9B DUP3 DUP3 PUSH2 0xD54 JUMP JUMPDEST SWAP2 SWAP1 POP JUMP JUMPDEST PUSH1 0x0 PUSH8 0xFFFFFFFFFFFFFFFF DUP3 GT ISZERO PUSH2 0xDBB JUMPI PUSH2 0xDBA PUSH2 0xD25 JUMP JUMPDEST JUMPDEST PUSH2 0xDC4 DUP3 PUSH2 0xD14 JUMP JUMPDEST SWAP1 POP PUSH1 0x20 DUP2 ADD SWAP1 POP SWAP2 SWAP1 POP JUMP JUMPDEST DUP3 DUP2 DUP4 CALLDATACOPY PUSH1 0x0 DUP4 DUP4 ADD MSTORE POP POP POP JUMP JUMPDEST PUSH1 0x0 PUSH2 0xDF3 PUSH2 0xDEE DUP5 PUSH2 0xDA0 JUMP JUMPDEST PUSH2 0xD85 JUMP JUMPDEST SWAP1 POP DUP3 DUP2 MSTORE PUSH1 0x20 DUP2 ADD DUP5 DUP5 DUP5 ADD GT ISZERO PUSH2 0xE0F JUMPI PUSH2 0xE0E PUSH2 0xD0F JUMP JUMPDEST JUMPDEST PUSH2 0xE1A DUP5 DUP3 DUP6 PUSH2 0xDD1 JUMP JUMPDEST POP SWAP4 SWAP3 POP POP POP JUMP JUMPDEST PUSH1 0x0 DUP3 PUSH1 0x1F DUP4 ADD SLT PUSH2 0xE37 JUMPI PUSH2 0xE36 PUSH2 0xD0A JUMP JUMPDEST JUMPDEST DUP2 CALLDATALOAD PUSH2 0xE47 DUP5 DUP3 PUSH1 0x20 DUP7 ADD PUSH2 0xDE0 JUMP JUMPDEST SWAP2 POP POP SWAP3 SWAP2 POP POP JUMP JUMPDEST PUSH1 0x0 DUP1 PUSH1 0x0 DUP1 PUSH1 0x0 PUSH1 0xA0 DUP7 DUP9 SUB SLT ISZERO PUSH2 0xE6C JUMPI PUSH2 0xE6B PUSH2 0xC15 JUMP JUMPDEST JUMPDEST PUSH1 0x0 PUSH2 0xE7A DUP9 DUP3 DUP10 ADD PUSH2 0xCF5 JUMP JUMPDEST SWAP6 POP POP PUSH1 0x20 DUP7 ADD CALLDATALOAD PUSH8 0xFFFFFFFFFFFFFFFF DUP2 GT ISZERO PUSH2 0xE9B JUMPI PUSH2 0xE9A PUSH2 0xC1A JUMP JUMPDEST JUMPDEST PUSH2 0xEA7 DUP9 DUP3 DUP10 ADD PUSH2 0xE22 JUMP JUMPDEST SWAP5 POP POP PUSH1 0x40 PUSH2 0xEB8 DUP9 DUP3 DUP10 ADD PUSH2 0xCF5 JUMP JUMPDEST SWAP4 POP POP PUSH1 0x60 PUSH2 0xEC9 DUP9 DUP3 DUP10 ADD PUSH2 0xC68 JUMP JUMPDEST SWAP3 POP POP PUSH1 0x80 PUSH2 0xEDA DUP9 DUP3 DUP10 ADD PUSH2 0xCF5 JUMP JUMPDEST SWAP2 POP POP SWAP3 SWAP6 POP SWAP3 SWAP6 SWAP1 SWAP4 POP JUMP JUMPDEST PUSH1 0x0 PUSH1 0x20 DUP3 DUP5 SUB SLT ISZERO PUSH2 0xEFD JUMPI PUSH2 0xEFC PUSH2 0xC15 JUMP JUMPDEST JUMPDEST PUSH1 0x0 PUSH2 0xF0B DUP5 DUP3 DUP6 ADD PUSH2 0xCF5 JUMP JUMPDEST SWAP2 POP POP SWAP3 SWAP2 POP POP JUMP JUMPDEST PUSH1 0x0 DUP2 SWAP1 POP SWAP2 SWAP1 POP JUMP JUMPDEST PUSH2 0xF27 DUP2 PUSH2 0xF14 JUMP JUMPDEST DUP3 MSTORE POP POP JUMP JUMPDEST PUSH1 0x0 PUSH1 0x20 DUP3 ADD SWAP1 POP PUSH2 0xF42 PUSH1 0x0 DUP4 ADD DUP5 PUSH2 0xF1E JUMP JUMPDEST SWAP3 SWAP2 POP POP JUMP JUMPDEST PUSH1 0x0 DUP2 SWAP1 POP SWAP2 SWAP1 POP JUMP JUMPDEST PUSH1 0x0 PUSH2 0xF6D PUSH2 0xF68 PUSH2 0xF63 DUP5 PUSH2 0xC1F JUMP JUMPDEST PUSH2 0xF48 JUMP JUMPDEST PUSH2 0xC1F JUMP JUMPDEST SWAP1 POP SWAP2 SWAP1 POP JUMP JUMPDEST PUSH1 0x0 PUSH2 0xF7F DUP3 PUSH2 0xF52 JUMP JUMPDEST SWAP1 POP SWAP2 SWAP1 POP JUMP JUMPDEST PUSH1 0x0 PUSH2 0xF91 DUP3 PUSH2 0xF74 JUMP JUMPDEST SWAP1 POP SWAP2 SWAP1 POP JUMP JUMPDEST PUSH2 0xFA1 DUP2 PUSH2 0xF86 JUMP JUMPDEST DUP3 MSTORE POP POP JUMP JUMPDEST PUSH1 0x0 PUSH1 0x20 DUP3 ADD SWAP1 POP PUSH2 0xFBC PUSH1 0x0 DUP4 ADD DUP5 PUSH2 0xF98 JUMP JUMPDEST SWAP3 SWAP2 POP POP JUMP JUMPDEST PUSH1 0x0 DUP2 MLOAD SWAP1 POP SWAP2 SWAP1 POP JUMP JUMPDEST PUSH1 0x0 DUP3 DUP3 MSTORE PUSH1 0x20 DUP3 ADD SWAP1 POP SWAP3 SWAP2 POP POP JUMP JUMPDEST PUSH1 0x0 JUMPDEST DUP4 DUP2 LT ISZERO PUSH2 0xFFC JUMPI DUP1 DUP3 ADD MLOAD DUP2 DUP5 ADD MSTORE PUSH1 0x20 DUP2 ADD SWAP1 POP PUSH2 0xFE1 JUMP JUMPDEST PUSH1 0x0 DUP5 DUP5 ADD MSTORE POP POP POP POP JUMP JUMPDEST PUSH1 0x0 PUSH2 0x1013 DUP3 PUSH2 0xFC2 JUMP JUMPDEST PUSH2 0x101D DUP2 DUP6 PUSH2 0xFCD JUMP JUMPDEST SWAP4 POP PUSH2 0x102D DUP2 DUP6 PUSH1 0x20 DUP7 ADD PUSH2 0xFDE JUMP JUMPDEST PUSH2 0x1036 DUP2 PUSH2 0xD14 JUMP JUMPDEST DUP5 ADD SWAP2 POP POP SWAP3 SWAP2 POP POP JUMP JUMPDEST PUSH2 0x104A DUP2 PUSH2 0xC3F JUMP JUMPDEST DUP3 MSTORE POP POP JUMP JUMPDEST PUSH1 0x0 PUSH1 0x80 DUP3 ADD SWAP1 POP PUSH2 0x1065 PUSH1 0x0 DUP4 ADD DUP8 PUSH2 0xCB4 JUMP JUMPDEST DUP2 DUP2 SUB PUSH1 0x20 DUP4 ADD MSTORE PUSH2 0x1077 DUP2 DUP7 PUSH2 0x1008 JUMP JUMPDEST SWAP1 POP PUSH2 0x1086 PUSH1 0x40 DUP4 ADD DUP6 PUSH2 0xCB4 JUMP JUMPDEST PUSH2 0x1093 PUSH1 0x60 DUP4 ADD DUP5 PUSH2 0x1041 JUMP JUMPDEST SWAP6 SWAP5 POP POP POP POP POP JUMP JUMPDEST PUSH1 0x0 DUP1 PUSH1 0x40 DUP4 DUP6 SUB SLT ISZERO PUSH2 0x10B3 JUMPI PUSH2 0x10B2 PUSH2 0xC15 JUMP JUMPDEST JUMPDEST PUSH1 0x0 PUSH2 0x10C1 DUP6 DUP3 DUP7 ADD PUSH2 0xC68 JUMP JUMPDEST SWAP3 POP POP PUSH1 0x20 PUSH2 0x10D2 DUP6 DUP3 DUP7 ADD PUSH2 0xCF5 JUMP JUMPDEST SWAP2 POP POP SWAP3 POP SWAP3 SWAP1 POP JUMP JUMPDEST PUSH1 0x0 PUSH1 0x20 DUP3 ADD SWAP1 POP PUSH2 0x10F1 PUSH1 0x0 DUP4 ADD DUP5 PUSH2 0x1041 JUMP JUMPDEST SWAP3 SWAP2 POP POP JUMP JUMPDEST PUSH32 0x4E487B7100000000000000000000000000000000000000000000000000000000 PUSH1 0x0 MSTORE PUSH1 0x11 PUSH1 0x4 MSTORE PUSH1 0x24 PUSH1 0x0 REVERT JUMPDEST PUSH1 0x0 PUSH2 0x1131 DUP3 PUSH2 0xCAA JUMP JUMPDEST SWAP2 POP PUSH2 0x113C DUP4 PUSH2 0xCAA JUMP JUMPDEST SWAP3 POP DUP3 DUP3 MUL PUSH2 0x114A DUP2 PUSH2 0xCAA JUMP JUMPDEST SWAP2 POP DUP3 DUP3 DIV DUP5 EQ DUP4 ISZERO OR PUSH2 0x1161 JUMPI PUSH2 0x1160 PUSH2 0x10F7 JUMP JUMPDEST JUMPDEST POP SWAP3 SWAP2 POP POP JUMP JUMPDEST PUSH1 0x0 DUP2 SWAP1 POP SWAP3 SWAP2 POP POP JUMP JUMPDEST PUSH32 0x53657373696F6E2D000000000000000000000000000000000000000000000000 PUSH1 0x0 DUP3 ADD MSTORE POP JUMP JUMPDEST PUSH1 0x0 PUSH2 0x11A9 PUSH1 0x8 DUP4 PUSH2 0x1168 JUMP JUMPDEST SWAP2 POP PUSH2 0x11B4 DUP3 PUSH2 0x1173 JUMP JUMPDEST PUSH1 0x8 DUP3 ADD SWAP1 POP SWAP2 SWAP1 POP JUMP JUMPDEST PUSH1 0x0 PUSH2 0x11CA DUP3 PUSH2 0xFC2 JUMP JUMPDEST PUSH2 0x11D4 DUP2 DUP6 PUSH2 0x1168 JUMP JUMPDEST SWAP4 POP PUSH2 0x11E4 DUP2 DUP6 PUSH1 0x20 DUP7 ADD PUSH2 0xFDE JUMP JUMPDEST DUP1 DUP5 ADD SWAP2 POP POP SWAP3 SWAP2 POP POP JUMP JUMPDEST PUSH1 0x0 PUSH2 0x11FB DUP3 PUSH2 0x119C JUMP JUMPDEST SWAP2 POP PUSH2 0x1207 DUP3 DUP5 PUSH2 0x11BF JUMP JUMPDEST SWAP2 POP DUP2 SWAP1 POP SWAP3 SWAP2 POP POP JUMP JUMPDEST PUSH32 0x4E487B7100000000000000000000000000000000000000000000000000000000 PUSH1 0x0 MSTORE PUSH1 0x22 PUSH1 0x4 MSTORE PUSH1 0x24 PUSH1 0x0 REVERT JUMPDEST PUSH1 0x0 PUSH1 0x2 DUP3 DIV SWAP1 POP PUSH1 0x1 DUP3 AND DUP1 PUSH2 0x1259 JUMPI PUSH1 0x7F DUP3 AND SWAP2 POP JUMPDEST PUSH1 0x20 DUP3 LT DUP2 SUB PUSH2 0x126C JUMPI PUSH2 0x126B PUSH2 0x1212 JUMP JUMPDEST JUMPDEST POP SWAP2 SWAP1 POP JUMP JUMPDEST PUSH1 0x0 DUP2 SWAP1 POP DUP2 PUSH1 0x0 MSTORE PUSH1 0x20 PUSH1 0x0 KECCAK256 SWAP1 POP SWAP2 SWAP1 POP JUMP JUMPDEST PUSH1 0x0 PUSH1 0x20 PUSH1 0x1F DUP4 ADD DIV SWAP1 POP SWAP2 SWAP1 POP JUMP JUMPDEST PUSH1 0x0 DUP3 DUP3 SHL SWAP1 POP SWAP3 SWAP2 POP POP JUMP JUMPDEST PUSH1 0x0 PUSH1 0x8 DUP4 MUL PUSH2 0x12D4 PUSH32 0xFFFFFFFFFFFFFFFFFFFFFFFFFFFFFFFFFFFFFFFFFFFFFFFFFFFFFFFFFFFFFFFF DUP3 PUSH2 0x1297 JUMP JUMPDEST PUSH2 0x12DE DUP7 DUP4 PUSH2 0x1297 JUMP JUMPDEST SWAP6 POP DUP1 NOT DUP5 AND SWAP4 POP DUP1 DUP7 AND DUP5 OR SWAP3 POP POP POP SWAP4 SWAP3 POP POP POP JUMP JUMPDEST PUSH1 0x0 PUSH2 0x1311 PUSH2 0x130C PUSH2 0x1307 DUP5 PUSH2 0xCAA JUMP JUMPDEST PUSH2 0xF48 JUMP JUMPDEST PUSH2 0xCAA JUMP JUMPDEST SWAP1 POP SWAP2 SWAP1 POP JUMP JUMPDEST PUSH1 0x0 DUP2 SWAP1 POP SWAP2 SWAP1 POP JUMP JUMPDEST PUSH2 0x132B DUP4 PUSH2 0x12F6 JUMP JUMPDEST PUSH2 0x133F PUSH2 0x1337 DUP3 PUSH2 0x1318 JUMP JUMPDEST DUP5 DUP5 SLOAD PUSH2 0x12A4 JUMP JUMPDEST DUP3 SSTORE POP POP POP POP JUMP JUMPDEST PUSH1 0x0 SWAP1 JUMP JUMPDEST PUSH2 0x1354 PUSH2 0x1347 JUMP JUMPDEST PUSH2 0x135F DUP2 DUP5 DUP5 PUSH2 0x1322 JUMP JUMPDEST POP POP POP JUMP JUMPDEST JUMPDEST DUP2 DUP2 LT ISZERO PUSH2 0x1383 JUMPI PUSH2 0x1378 PUSH1 0x0 DUP3 PUSH2 0x134C JUMP JUMPDEST PUSH1 0x1 DUP2 ADD SWAP1 POP PUSH2 0x1365 JUMP JUMPDEST POP POP JUMP JUMPDEST PUSH1 0x1F DUP3 GT ISZERO PUSH2 0x13C8 JUMPI PUSH2 0x1399 DUP2 PUSH2 0x1272 JUMP JUMPDEST PUSH2 0x13A2 DUP5 PUSH2 0x1287 JUMP JUMPDEST DUP2 ADD PUSH1 0x20 DUP6 LT ISZERO PUSH2 0x13B1 JUMPI DUP2 SWAP1 POP JUMPDEST PUSH2 0x13C5 PUSH2 0x13BD DUP6 PUSH2 0x1287 JUMP JUMPDEST DUP4 ADD DUP3 PUSH2 0x1364 JUMP JUMPDEST POP POP JUMPDEST POP POP POP JUMP JUMPDEST PUSH1 0x0 DUP3 DUP3 SHR SWAP1 POP SWAP3 SWAP2 POP POP JUMP JUMPDEST PUSH1 0x0 PUSH2 0x13EB PUSH1 0x0 NOT DUP5 PUSH1 0x8 MUL PUSH2 0x13CD JUMP JUMPDEST NOT DUP1 DUP4 AND SWAP2 POP POP SWAP3 SWAP2 POP POP JUMP JUMPDEST PUSH1 0x0 PUSH2 0x1404 DUP4 DUP4 PUSH2 0x13DA JUMP JUMPDEST SWAP2 POP DUP3 PUSH1 0x2 MUL DUP3 OR SWAP1 POP SWAP3 SWAP2 POP POP JUMP JUMPDEST PUSH2 0x141D DUP3 PUSH2 0xFC2 JUMP JUMPDEST PUSH8 0xFFFFFFFFFFFFFFFF DUP2 GT ISZERO PUSH2 0x1436 JUMPI PUSH2 0x1435 PUSH2 0xD25 JUMP JUMPDEST JUMPDEST PUSH2 0x1440 DUP3 SLOAD PUSH2 0x1241 JUMP JUMPDEST PUSH2 0x144B DUP3 DUP3 DUP6 PUSH2 0x1387 JUMP JUMPDEST PUSH1 0x0 PUSH1 0x20 SWAP1 POP PUSH1 0x1F DUP4 GT PUSH1 0x1 DUP2 EQ PUSH2 0x147E JUMPI PUSH1 0x0 DUP5 ISZERO PUSH2 0x146C JUMPI DUP3 DUP8 ADD MLOAD SWAP1 POP JUMPDEST PUSH2 0x1476 DUP6 DUP3 PUSH2 0x13F8 JUMP JUMPDEST DUP7 SSTORE POP PUSH2 0x14DE JUMP JUMPDEST PUSH1 0x1F NOT DUP5 AND PUSH2 0x148C DUP7 PUSH2 0x1272 JUMP JUMPDEST PUSH1 0x0 JUMPDEST DUP3 DUP2 LT ISZERO PUSH2 0x14B4 JUMPI DUP5 DUP10 ADD MLOAD DUP3 SSTORE PUSH1 0x1 DUP3 ADD SWAP2 POP PUSH1 0x20 DUP6 ADD SWAP5 POP PUSH1 0x20 DUP2 ADD SWAP1 POP PUSH2 0x148F JUMP JUMPDEST DUP7 DUP4 LT ISZERO PUSH2 0x14D1 JUMPI DUP5 DUP10 ADD MLOAD PUSH2 0x14CD PUSH1 0x1F DUP10 AND DUP3 PUSH2 0x13DA JUMP JUMPDEST DUP4 SSTORE POP JUMPDEST PUSH1 0x1 PUSH1 0x2 DUP9 MUL ADD DUP9 SSTORE POP POP POP JUMPDEST POP POP POP POP POP POP JUMP JUMPDEST PUSH32 0x4E487B7100000000000000000000000000000000000000000000000000000000 PUSH1 0x0 MSTORE PUSH1 0x12 PUSH1 0x4 MSTORE PUSH1 0x24 PUSH1 0x0 REVERT JUMPDEST PUSH1 0x0 PUSH2 0x1520 DUP3 PUSH2 0xCAA JUMP JUMPDEST SWAP2 POP PUSH2 0x152B DUP4 PUSH2 0xCAA JUMP JUMPDEST SWAP3 POP DUP3 PUSH2 0x153B JUMPI PUSH2 0x153A PUSH2 0x14E6 JUMP JUMPDEST JUMPDEST DUP3 DUP3 DIV SWAP1 POP SWAP3 SWAP2 POP POP JUMP JUMPDEST PUSH1 0x0 PUSH10 0xFFFFFFFFFFFFFFFFFFFF DUP3 AND SWAP1 POP SWAP2 SWAP1 POP JUMP JUMPDEST PUSH2 0x1565 DUP2 PUSH2 0x1546 JUMP JUMPDEST DUP2 EQ PUSH2 0x1570 JUMPI PUSH1 0x0 DUP1 REVERT JUMPDEST POP JUMP JUMPDEST PUSH1 0x0 DUP2 MLOAD SWAP1 POP PUSH2 0x1582 DUP2 PUSH2 0x155C JUMP JUMPDEST SWAP3 SWAP2 POP POP JUMP JUMPDEST PUSH2 0x1591 DUP2 PUSH2 0xF14 JUMP JUMPDEST DUP2 EQ PUSH2 0x159C JUMPI PUSH1 0x0 DUP1 REVERT JUMPDEST POP JUMP JUMPDEST PUSH1 0x0 DUP2 MLOAD SWAP1 POP PUSH2 0x15AE DUP2 PUSH2 0x1588 JUMP JUMPDEST SWAP3 SWAP2 POP POP JUMP JUMPDEST PUSH1 0x0 DUP2 MLOAD SWAP1 POP PUSH2 0x15C3 DUP2 PUSH2 0xCDE JUMP JUMPDEST SWAP3 SWAP2 POP POP JUMP JUMPDEST PUSH1 0x0 DUP1 PUSH1 0x0 DUP1 PUSH1 0x0 PUSH1 0xA0 DUP7 DUP9 SUB SLT ISZERO PUSH2 0x15E5 JUMPI PUSH2 0x15E4 PUSH2 0xC15 JUMP JUMPDEST JUMPDEST PUSH1 0x0 PUSH2 0x15F3 DUP9 DUP3 DUP10 ADD PUSH2 0x1573 JUMP JUMPDEST SWAP6 POP POP PUSH1 0x20 PUSH2 0x1604 DUP9 DUP3 DUP10 ADD PUSH2 0x159F JUMP JUMPDEST SWAP5 POP POP PUSH1 0x40 PUSH2 0x1615 DUP9 DUP3 DUP10 ADD PUSH2 0x15B4 JUMP JUMPDEST SWAP4 POP POP PUSH1 0x60 PUSH2 0x1626 DUP9 DUP3 DUP10 ADD PUSH2 0x15B4 JUMP JUMPDEST SWAP3 POP POP PUSH1 0x80 PUSH2 0x1637 DUP9 DUP3 DUP10 ADD PUSH2 0x1573 JUMP JUMPDEST SWAP2 POP POP SWAP3 SWAP6 POP SWAP3 SWAP6 SWAP1 SWAP4 POP JUMP JUMPDEST PUSH32 0x4E487B7100000000000000000000000000000000000000000000000000000000 PUSH1 0x0 MSTORE PUSH1 0x32 PUSH1 0x4 MSTORE PUSH1 0x24 PUSH1 0x0 REVERT JUMPDEST PUSH1 0x0 PUSH2 0x167E DUP3 PUSH2 0xCAA JUMP JUMPDEST SWAP2 POP PUSH32 0xFFFFFFFFFFFFFFFFFFFFFFFFFFFFFFFFFFFFFFFFFFFFFFFFFFFFFFFFFFFFFFFF DUP3 SUB PUSH2 0x16B0 JUMPI PUSH2 0x16AF PUSH2 0x10F7 JUMP JUMPDEST JUMPDEST PUSH1 0x1 DUP3 ADD SWAP1 POP SWAP2 SWAP1 POP JUMP JUMPDEST PUSH1 0x0 PUSH2 0x16C6 DUP3 PUSH2 0xCAA JUMP JUMPDEST SWAP2 POP PUSH2 0x16D1 DUP4 PUSH2 0xCAA JUMP JUMPDEST SWAP3 POP DUP3 DUP3 SUB SWAP1 POP DUP2 DUP2 GT ISZERO PUSH2 0x16E9 JUMPI PUSH2 0x16E8 PUSH2 0x10F7 JUMP JUMPDEST JUMPDEST SWAP3 SWAP2 POP POP JUMP JUMPDEST PUSH1 0x0 PUSH2 0x16FA DUP3 PUSH2 0xCAA JUMP JUMPDEST SWAP2 POP PUSH2 0x1705 DUP4 PUSH2 0xCAA JUMP JUMPDEST SWAP3 POP DUP3 PUSH2 0x1715 JUMPI PUSH2 0x1714 PUSH2 0x14E6 JUMP JUMPDEST JUMPDEST DUP3 DUP3 MOD SWAP1 POP SWAP3 SWAP2 POP POP JUMP JUMPDEST PUSH1 0x0 PUSH2 0x172B DUP3 PUSH2 0xCAA JUMP JUMPDEST SWAP2 POP PUSH2 0x1736 DUP4 PUSH2 0xCAA JUMP JUMPDEST SWAP3 POP DUP3 DUP3 ADD SWAP1 POP DUP1 DUP3 GT ISZERO PUSH2 0x174E JUMPI PUSH2 0x174D PUSH2 0x10F7 JUMP JUMPDEST JUMPDEST SWAP3 SWAP2 POP POP JUMP INVALID LOG2 PUSH5 0x6970667358 0x22 SLT KECCAK256 0xE8 SGT DUP2 0xEB SIGNEXTEND MOD 0xEC 0xD9 LOG3 0xDA 0xD9 SWAP15 PUSH11 0xF7A0CD8B045FDE88001F04 0xD PUSH11 0x17907844E0A264736F6C63 NUMBER STOP ADDMOD SGT STOP CALLER "
		},
		"gasEstimates": {
			"creation": {
				"codeDepositCost": "1205200",
				"executionCost": "infinite",
				"totalCost": "infinite"
			},
			"external": {
				"PayPrinciple()": "infinite",
				"PowerRecord(uint256)": "infinite",
				"TransactionLog(uint256,string,uint256,address,uint256)": "infinite",
				"amountperunit()": "2474",
				"checkUsage(uint256)": "infinite",
				"getLatestPrice()": "infinite",
				"getLatestTimestamp()": "infinite",
				"purchasePower(uint256)": "infinite",
				"reciever()": "2624",
				"userRecords(address,uint256)": "infinite",
				"userUnits(address)": "2815"
			},
			"internal": {
				"uint2str(uint256)": "infinite"
			}
		},
		"methodIdentifiers": {
			"PayPrinciple()": "b7488ee1",
			"PowerRecord(uint256)": "bfcd9a63",
			"TransactionLog(uint256,string,uint256,address,uint256)": "31f0c91f",
			"amountperunit()": "505dc61d",
			"checkUsage(uint256)": "dbe4aa89",
			"getLatestPrice()": "8e15f473",
			"getLatestTimestamp()": "f43b52cb",
			"purchasePower(uint256)": "8a928548",
			"reciever()": "f4b0b756",
			"userRecords(address,uint256)": "e85d28b9",
			"userUnits(address)": "1da45e4e"
		}
	},
	"abi": [
		{
			"inputs": [
				{
					"internalType": "address",
					"name": "_reciever",
					"type": "address"
				}
			],
			"stateMutability": "nonpayable",
			"type": "constructor"
		},
		{
			"inputs": [],
			"name": "PayPrinciple",
			"outputs": [
				{
					"internalType": "contract AggregatorV3Interface",
					"name": "",
					"type": "address"
				}
			],
			"stateMutability": "view",
			"type": "function"
		},
		{
			"inputs": [
				{
					"internalType": "uint256",
					"name": "",
					"type": "uint256"
				}
			],
			"name": "PowerRecord",
			"outputs": [
				{
					"internalType": "uint256",
					"name": "UnitPurchased",
					"type": "uint256"
				},
				{
					"internalType": "string",
					"name": "SessionId",
					"type": "string"
				},
				{
					"internalType": "uint256",
					"name": "price",
					"type": "uint256"
				},
				{
					"internalType": "address",
					"name": "payee",
					"type": "address"
				}
			],
			"stateMutability": "view",
			"type": "function"
		},
		{
			"inputs": [
				{
					"internalType": "uint256",
					"name": "_UnitPurchased",
					"type": "uint256"
				},
				{
					"internalType": "string",
					"name": "_SessionId",
					"type": "string"
				},
				{
					"internalType": "uint256",
					"name": "_price",
					"type": "uint256"
				},
				{
					"internalType": "address",
					"name": "_Payee",
					"type": "address"
				},
				{
					"internalType": "uint256",
					"name": "ListIndex",
					"type": "uint256"
				}
			],
			"name": "TransactionLog",
			"outputs": [],
			"stateMutability": "nonpayable",
			"type": "function"
		},
		{
			"inputs": [],
			"name": "amountperunit",
			"outputs": [
				{
					"internalType": "uint256",
					"name": "",
					"type": "uint256"
				}
			],
			"stateMutability": "view",
			"type": "function"
		},
		{
			"inputs": [
				{
					"internalType": "uint256",
					"name": "index",
					"type": "uint256"
				}
			],
			"name": "checkUsage",
			"outputs": [],
			"stateMutability": "nonpayable",
			"type": "function"
		},
		{
			"inputs": [],
			"name": "getLatestPrice",
			"outputs": [
				{
					"internalType": "int256",
					"name": "",
					"type": "int256"
				}
			],
			"stateMutability": "view",
			"type": "function"
		},
		{
			"inputs": [],
			"name": "getLatestTimestamp",
			"outputs": [
				{
					"internalType": "uint256",
					"name": "",
					"type": "uint256"
				}
			],
			"stateMutability": "view",
			"type": "function"
		},
		{
			"inputs": [
				{
					"internalType": "uint256",
					"name": "_units",
					"type": "uint256"
				}
			],
			"name": "purchasePower",
			"outputs": [],
			"stateMutability": "payable",
			"type": "function"
		},
		{
			"inputs": [],
			"name": "reciever",
			"outputs": [
				{
					"internalType": "address",
					"name": "",
					"type": "address"
				}
			],
			"stateMutability": "view",
			"type": "function"
		},
		{
			"inputs": [
				{
					"internalType": "address",
					"name": "",
					"type": "address"
				},
				{
					"internalType": "uint256",
					"name": "",
					"type": "uint256"
				}
			],
			"name": "userRecords",
			"outputs": [
				{
					"internalType": "uint256",
					"name": "UnitPurchased",
					"type": "uint256"
				},
				{
					"internalType": "string",
					"name": "SessionId",
					"type": "string"
				},
				{
					"internalType": "uint256",
					"name": "price",
					"type": "uint256"
				},
				{
					"internalType": "address",
					"name": "payee",
					"type": "address"
				}
			],
			"stateMutability": "view",
			"type": "function"
		},
		{
			"inputs": [
				{
					"internalType": "address",
					"name": "",
					"type": "address"
				}
			],
			"name": "userUnits",
			"outputs": [
				{
					"internalType": "uint256",
					"name": "",
					"type": "uint256"
				}
			],
			"stateMutability": "view",
			"type": "function"
		}
	]
}