{
	"data": {
		"bytecode": {
			"linkReferences": {},
			"object": "608060405234801561001057600080fd5b50604051610814380380610814833981810160405281019061003291906100dc565b80600160006101000a81548173ffffffffffffffffffffffffffffffffffffffff021916908373ffffffffffffffffffffffffffffffffffffffff16021790555050610109565b600080fd5b600073ffffffffffffffffffffffffffffffffffffffff82169050919050565b60006100a98261007e565b9050919050565b6100b98161009e565b81146100c457600080fd5b50565b6000815190506100d6816100b0565b92915050565b6000602082840312156100f2576100f1610079565b5b6000610100848285016100c7565b91505092915050565b6106fc806101186000396000f3fe60806040526004361061004a5760003560e01c8063197dc9551461004f57806337c6b0761461006b5780635883e32b146100a957806365bbcfac146100d45780637f02f806146100ff575b600080fd5b6100696004803603810190610064919061044a565b61013c565b005b34801561007757600080fd5b50610092600480360381019061008d919061044a565b610295565b6040516100a0929190610529565b60405180910390f35b3480156100b557600080fd5b506100be61037e565b6040516100cb9190610559565b60405180910390f35b3480156100e057600080fd5b506100e96103a4565b6040516100f69190610583565b60405180910390f35b34801561010b57600080fd5b506101266004803603810190610121919061059e565b6103aa565b6040516101339190610583565b60405180910390f35b6000600260008473ffffffffffffffffffffffffffffffffffffffff1673ffffffffffffffffffffffffffffffffffffffff168152602001908152602001600020828154811061018f5761018e6105cb565b5b906000526020600020906002020190508273ffffffffffffffffffffffffffffffffffffffff163373ffffffffffffffffffffffffffffffffffffffff160361020d576040517f08c379a000000000000000000000000000000000000000000000000000000000815260040161020490610646565b60405180910390fd5b8273ffffffffffffffffffffffffffffffffffffffff166108fc349081150290604051600060405180830381858888f19350505050158015610253573d6000803e3d6000fd5b50600054471115610290576040517f6e04825300000000000000000000000000000000000000000000000000000000815260040160405180910390fd5b505050565b600260205281600052604060002081815481106102b157600080fd5b9060005260206000209060020201600091509150508060000180546102d590610695565b80601f016020809104026020016040519081016040528092919081815260200182805461030190610695565b801561034e5780601f106103235761010080835404028352916020019161034e565b820191906000526020600020905b81548152906001019060200180831161033157829003601f168201915b5050505050908060010160009054906101000a900473ffffffffffffffffffffffffffffffffffffffff16905082565b600160009054906101000a900473ffffffffffffffffffffffffffffffffffffffff1681565b60005481565b6000919050565b600080fd5b600073ffffffffffffffffffffffffffffffffffffffff82169050919050565b60006103e1826103b6565b9050919050565b6103f1816103d6565b81146103fc57600080fd5b50565b60008135905061040e816103e8565b92915050565b6000819050919050565b61042781610414565b811461043257600080fd5b50565b6000813590506104448161041e565b92915050565b60008060408385031215610461576104606103b1565b5b600061046f858286016103ff565b925050602061048085828601610435565b9150509250929050565b600081519050919050565b600082825260208201905092915050565b60005b838110156104c45780820151818401526020810190506104a9565b60008484015250505050565b6000601f19601f8301169050919050565b60006104ec8261048a565b6104f68185610495565b93506105068185602086016104a6565b61050f816104d0565b840191505092915050565b610523816103d6565b82525050565b6000604082019050818103600083015261054381856104e1565b9050610552602083018461051a565b9392505050565b600060208201905061056e600083018461051a565b92915050565b61057d81610414565b82525050565b60006020820190506105986000830184610574565b92915050565b6000602082840312156105b4576105b36103b1565b5b60006105c284828501610435565b91505092915050565b7f4e487b7100000000000000000000000000000000000000000000000000000000600052603260045260246000fd5b7f43616e27742066756e642073656c6620636f6e74726163740000000000000000600082015250565b6000610630601883610495565b915061063b826105fa565b602082019050919050565b6000602082019050818103600083015261065f81610623565b9050919050565b7f4e487b7100000000000000000000000000000000000000000000000000000000600052602260045260246000fd5b600060028204905060018216806106ad57607f821691505b6020821081036106c0576106bf610666565b5b5091905056fea2646970667358221220eb69695af6b499c8b338bfef02a5327aa1d2e27be0c28ebf535ad1e7d6158e6264736f6c63430008130033",
			"opcodes": "PUSH1 0x80 PUSH1 0x40 MSTORE CALLVALUE DUP1 ISZERO PUSH2 0x10 JUMPI PUSH1 0x0 DUP1 REVERT JUMPDEST POP PUSH1 0x40 MLOAD PUSH2 0x814 CODESIZE SUB DUP1 PUSH2 0x814 DUP4 CODECOPY DUP2 DUP2 ADD PUSH1 0x40 MSTORE DUP2 ADD SWAP1 PUSH2 0x32 SWAP2 SWAP1 PUSH2 0xDC JUMP JUMPDEST DUP1 PUSH1 0x1 PUSH1 0x0 PUSH2 0x100 EXP DUP2 SLOAD DUP2 PUSH20 0xFFFFFFFFFFFFFFFFFFFFFFFFFFFFFFFFFFFFFFFF MUL NOT AND SWAP1 DUP4 PUSH20 0xFFFFFFFFFFFFFFFFFFFFFFFFFFFFFFFFFFFFFFFF AND MUL OR SWAP1 SSTORE POP POP PUSH2 0x109 JUMP JUMPDEST PUSH1 0x0 DUP1 REVERT JUMPDEST PUSH1 0x0 PUSH20 0xFFFFFFFFFFFFFFFFFFFFFFFFFFFFFFFFFFFFFFFF DUP3 AND SWAP1 POP SWAP2 SWAP1 POP JUMP JUMPDEST PUSH1 0x0 PUSH2 0xA9 DUP3 PUSH2 0x7E JUMP JUMPDEST SWAP1 POP SWAP2 SWAP1 POP JUMP JUMPDEST PUSH2 0xB9 DUP2 PUSH2 0x9E JUMP JUMPDEST DUP2 EQ PUSH2 0xC4 JUMPI PUSH1 0x0 DUP1 REVERT JUMPDEST POP JUMP JUMPDEST PUSH1 0x0 DUP2 MLOAD SWAP1 POP PUSH2 0xD6 DUP2 PUSH2 0xB0 JUMP JUMPDEST SWAP3 SWAP2 POP POP JUMP JUMPDEST PUSH1 0x0 PUSH1 0x20 DUP3 DUP5 SUB SLT ISZERO PUSH2 0xF2 JUMPI PUSH2 0xF1 PUSH2 0x79 JUMP JUMPDEST JUMPDEST PUSH1 0x0 PUSH2 0x100 DUP5 DUP3 DUP6 ADD PUSH2 0xC7 JUMP JUMPDEST SWAP2 POP POP SWAP3 SWAP2 POP POP JUMP JUMPDEST PUSH2 0x6FC DUP1 PUSH2 0x118 PUSH1 0x0 CODECOPY PUSH1 0x0 RETURN INVALID PUSH1 0x80 PUSH1 0x40 MSTORE PUSH1 0x4 CALLDATASIZE LT PUSH2 0x4A JUMPI PUSH1 0x0 CALLDATALOAD PUSH1 0xE0 SHR DUP1 PUSH4 0x197DC955 EQ PUSH2 0x4F JUMPI DUP1 PUSH4 0x37C6B076 EQ PUSH2 0x6B JUMPI DUP1 PUSH4 0x5883E32B EQ PUSH2 0xA9 JUMPI DUP1 PUSH4 0x65BBCFAC EQ PUSH2 0xD4 JUMPI DUP1 PUSH4 0x7F02F806 EQ PUSH2 0xFF JUMPI JUMPDEST PUSH1 0x0 DUP1 REVERT JUMPDEST PUSH2 0x69 PUSH1 0x4 DUP1 CALLDATASIZE SUB DUP2 ADD SWAP1 PUSH2 0x64 SWAP2 SWAP1 PUSH2 0x44A JUMP JUMPDEST PUSH2 0x13C JUMP JUMPDEST STOP JUMPDEST CALLVALUE DUP1 ISZERO PUSH2 0x77 JUMPI PUSH1 0x0 DUP1 REVERT JUMPDEST POP PUSH2 0x92 PUSH1 0x4 DUP1 CALLDATASIZE SUB DUP2 ADD SWAP1 PUSH2 0x8D SWAP2 SWAP1 PUSH2 0x44A JUMP JUMPDEST PUSH2 0x295 JUMP JUMPDEST PUSH1 0x40 MLOAD PUSH2 0xA0 SWAP3 SWAP2 SWAP1 PUSH2 0x529 JUMP JUMPDEST PUSH1 0x40 MLOAD DUP1 SWAP2 SUB SWAP1 RETURN JUMPDEST CALLVALUE DUP1 ISZERO PUSH2 0xB5 JUMPI PUSH1 0x0 DUP1 REVERT JUMPDEST POP PUSH2 0xBE PUSH2 0x37E JUMP JUMPDEST PUSH1 0x40 MLOAD PUSH2 0xCB SWAP2 SWAP1 PUSH2 0x559 JUMP JUMPDEST PUSH1 0x40 MLOAD DUP1 SWAP2 SUB SWAP1 RETURN JUMPDEST CALLVALUE DUP1 ISZERO PUSH2 0xE0 JUMPI PUSH1 0x0 DUP1 REVERT JUMPDEST POP PUSH2 0xE9 PUSH2 0x3A4 JUMP JUMPDEST PUSH1 0x40 MLOAD PUSH2 0xF6 SWAP2 SWAP1 PUSH2 0x583 JUMP JUMPDEST PUSH1 0x40 MLOAD DUP1 SWAP2 SUB SWAP1 RETURN JUMPDEST CALLVALUE DUP1 ISZERO PUSH2 0x10B JUMPI PUSH1 0x0 DUP1 REVERT JUMPDEST POP PUSH2 0x126 PUSH1 0x4 DUP1 CALLDATASIZE SUB DUP2 ADD SWAP1 PUSH2 0x121 SWAP2 SWAP1 PUSH2 0x59E JUMP JUMPDEST PUSH2 0x3AA JUMP JUMPDEST PUSH1 0x40 MLOAD PUSH2 0x133 SWAP2 SWAP1 PUSH2 0x583 JUMP JUMPDEST PUSH1 0x40 MLOAD DUP1 SWAP2 SUB SWAP1 RETURN JUMPDEST PUSH1 0x0 PUSH1 0x2 PUSH1 0x0 DUP5 PUSH20 0xFFFFFFFFFFFFFFFFFFFFFFFFFFFFFFFFFFFFFFFF AND PUSH20 0xFFFFFFFFFFFFFFFFFFFFFFFFFFFFFFFFFFFFFFFF AND DUP2 MSTORE PUSH1 0x20 ADD SWAP1 DUP2 MSTORE PUSH1 0x20 ADD PUSH1 0x0 KECCAK256 DUP3 DUP2 SLOAD DUP2 LT PUSH2 0x18F JUMPI PUSH2 0x18E PUSH2 0x5CB JUMP JUMPDEST JUMPDEST SWAP1 PUSH1 0x0 MSTORE PUSH1 0x20 PUSH1 0x0 KECCAK256 SWAP1 PUSH1 0x2 MUL ADD SWAP1 POP DUP3 PUSH20 0xFFFFFFFFFFFFFFFFFFFFFFFFFFFFFFFFFFFFFFFF AND CALLER PUSH20 0xFFFFFFFFFFFFFFFFFFFFFFFFFFFFFFFFFFFFFFFF AND SUB PUSH2 0x20D JUMPI PUSH1 0x40 MLOAD PUSH32 0x8C379A000000000000000000000000000000000000000000000000000000000 DUP2 MSTORE PUSH1 0x4 ADD PUSH2 0x204 SWAP1 PUSH2 0x646 JUMP JUMPDEST PUSH1 0x40 MLOAD DUP1 SWAP2 SUB SWAP1 REVERT JUMPDEST DUP3 PUSH20 0xFFFFFFFFFFFFFFFFFFFFFFFFFFFFFFFFFFFFFFFF AND PUSH2 0x8FC CALLVALUE SWAP1 DUP2 ISZERO MUL SWAP1 PUSH1 0x40 MLOAD PUSH1 0x0 PUSH1 0x40 MLOAD DUP1 DUP4 SUB DUP2 DUP6 DUP9 DUP9 CALL SWAP4 POP POP POP POP ISZERO DUP1 ISZERO PUSH2 0x253 JUMPI RETURNDATASIZE PUSH1 0x0 DUP1 RETURNDATACOPY RETURNDATASIZE PUSH1 0x0 REVERT JUMPDEST POP PUSH1 0x0 SLOAD SELFBALANCE GT ISZERO PUSH2 0x290 JUMPI PUSH1 0x40 MLOAD PUSH32 0x6E04825300000000000000000000000000000000000000000000000000000000 DUP2 MSTORE PUSH1 0x4 ADD PUSH1 0x40 MLOAD DUP1 SWAP2 SUB SWAP1 REVERT JUMPDEST POP POP POP JUMP JUMPDEST PUSH1 0x2 PUSH1 0x20 MSTORE DUP2 PUSH1 0x0 MSTORE PUSH1 0x40 PUSH1 0x0 KECCAK256 DUP2 DUP2 SLOAD DUP2 LT PUSH2 0x2B1 JUMPI PUSH1 0x0 DUP1 REVERT JUMPDEST SWAP1 PUSH1 0x0 MSTORE PUSH1 0x20 PUSH1 0x0 KECCAK256 SWAP1 PUSH1 0x2 MUL ADD PUSH1 0x0 SWAP2 POP SWAP2 POP POP DUP1 PUSH1 0x0 ADD DUP1 SLOAD PUSH2 0x2D5 SWAP1 PUSH2 0x695 JUMP JUMPDEST DUP1 PUSH1 0x1F ADD PUSH1 0x20 DUP1 SWAP2 DIV MUL PUSH1 0x20 ADD PUSH1 0x40 MLOAD SWAP1 DUP2 ADD PUSH1 0x40 MSTORE DUP1 SWAP3 SWAP2 SWAP1 DUP2 DUP2 MSTORE PUSH1 0x20 ADD DUP3 DUP1 SLOAD PUSH2 0x301 SWAP1 PUSH2 0x695 JUMP JUMPDEST DUP1 ISZERO PUSH2 0x34E JUMPI DUP1 PUSH1 0x1F LT PUSH2 0x323 JUMPI PUSH2 0x100 DUP1 DUP4 SLOAD DIV MUL DUP4 MSTORE SWAP2 PUSH1 0x20 ADD SWAP2 PUSH2 0x34E JUMP JUMPDEST DUP3 ADD SWAP2 SWAP1 PUSH1 0x0 MSTORE PUSH1 0x20 PUSH1 0x0 KECCAK256 SWAP1 JUMPDEST DUP2 SLOAD DUP2 MSTORE SWAP1 PUSH1 0x1 ADD SWAP1 PUSH1 0x20 ADD DUP1 DUP4 GT PUSH2 0x331 JUMPI DUP3 SWAP1 SUB PUSH1 0x1F AND DUP3 ADD SWAP2 JUMPDEST POP POP POP POP POP SWAP1 DUP1 PUSH1 0x1 ADD PUSH1 0x0 SWAP1 SLOAD SWAP1 PUSH2 0x100 EXP SWAP1 DIV PUSH20 0xFFFFFFFFFFFFFFFFFFFFFFFFFFFFFFFFFFFFFFFF AND SWAP1 POP DUP3 JUMP JUMPDEST PUSH1 0x1 PUSH1 0x0 SWAP1 SLOAD SWAP1 PUSH2 0x100 EXP SWAP1 DIV PUSH20 0xFFFFFFFFFFFFFFFFFFFFFFFFFFFFFFFFFFFFFFFF AND DUP2 JUMP JUMPDEST PUSH1 0x0 SLOAD DUP2 JUMP JUMPDEST PUSH1 0x0 SWAP2 SWAP1 POP JUMP JUMPDEST PUSH1 0x0 DUP1 REVERT JUMPDEST PUSH1 0x0 PUSH20 0xFFFFFFFFFFFFFFFFFFFFFFFFFFFFFFFFFFFFFFFF DUP3 AND SWAP1 POP SWAP2 SWAP1 POP JUMP JUMPDEST PUSH1 0x0 PUSH2 0x3E1 DUP3 PUSH2 0x3B6 JUMP JUMPDEST SWAP1 POP SWAP2 SWAP1 POP JUMP JUMPDEST PUSH2 0x3F1 DUP2 PUSH2 0x3D6 JUMP JUMPDEST DUP2 EQ PUSH2 0x3FC JUMPI PUSH1 0x0 DUP1 REVERT JUMPDEST POP JUMP JUMPDEST PUSH1 0x0 DUP2 CALLDATALOAD SWAP1 POP PUSH2 0x40E DUP2 PUSH2 0x3E8 JUMP JUMPDEST SWAP3 SWAP2 POP POP JUMP JUMPDEST PUSH1 0x0 DUP2 SWAP1 POP SWAP2 SWAP1 POP JUMP JUMPDEST PUSH2 0x427 DUP2 PUSH2 0x414 JUMP JUMPDEST DUP2 EQ PUSH2 0x432 JUMPI PUSH1 0x0 DUP1 REVERT JUMPDEST POP JUMP JUMPDEST PUSH1 0x0 DUP2 CALLDATALOAD SWAP1 POP PUSH2 0x444 DUP2 PUSH2 0x41E JUMP JUMPDEST SWAP3 SWAP2 POP POP JUMP JUMPDEST PUSH1 0x0 DUP1 PUSH1 0x40 DUP4 DUP6 SUB SLT ISZERO PUSH2 0x461 JUMPI PUSH2 0x460 PUSH2 0x3B1 JUMP JUMPDEST JUMPDEST PUSH1 0x0 PUSH2 0x46F DUP6 DUP3 DUP7 ADD PUSH2 0x3FF JUMP JUMPDEST SWAP3 POP POP PUSH1 0x20 PUSH2 0x480 DUP6 DUP3 DUP7 ADD PUSH2 0x435 JUMP JUMPDEST SWAP2 POP POP SWAP3 POP SWAP3 SWAP1 POP JUMP JUMPDEST PUSH1 0x0 DUP2 MLOAD SWAP1 POP SWAP2 SWAP1 POP JUMP JUMPDEST PUSH1 0x0 DUP3 DUP3 MSTORE PUSH1 0x20 DUP3 ADD SWAP1 POP SWAP3 SWAP2 POP POP JUMP JUMPDEST PUSH1 0x0 JUMPDEST DUP4 DUP2 LT ISZERO PUSH2 0x4C4 JUMPI DUP1 DUP3 ADD MLOAD DUP2 DUP5 ADD MSTORE PUSH1 0x20 DUP2 ADD SWAP1 POP PUSH2 0x4A9 JUMP JUMPDEST PUSH1 0x0 DUP5 DUP5 ADD MSTORE POP POP POP POP JUMP JUMPDEST PUSH1 0x0 PUSH1 0x1F NOT PUSH1 0x1F DUP4 ADD AND SWAP1 POP SWAP2 SWAP1 POP JUMP JUMPDEST PUSH1 0x0 PUSH2 0x4EC DUP3 PUSH2 0x48A JUMP JUMPDEST PUSH2 0x4F6 DUP2 DUP6 PUSH2 0x495 JUMP JUMPDEST SWAP4 POP PUSH2 0x506 DUP2 DUP6 PUSH1 0x20 DUP7 ADD PUSH2 0x4A6 JUMP JUMPDEST PUSH2 0x50F DUP2 PUSH2 0x4D0 JUMP JUMPDEST DUP5 ADD SWAP2 POP POP SWAP3 SWAP2 POP POP JUMP JUMPDEST PUSH2 0x523 DUP2 PUSH2 0x3D6 JUMP JUMPDEST DUP3 MSTORE POP POP JUMP JUMPDEST PUSH1 0x0 PUSH1 0x40 DUP3 ADD SWAP1 POP DUP2 DUP2 SUB PUSH1 0x0 DUP4 ADD MSTORE PUSH2 0x543 DUP2 DUP6 PUSH2 0x4E1 JUMP JUMPDEST SWAP1 POP PUSH2 0x552 PUSH1 0x20 DUP4 ADD DUP5 PUSH2 0x51A JUMP JUMPDEST SWAP4 SWAP3 POP POP POP JUMP JUMPDEST PUSH1 0x0 PUSH1 0x20 DUP3 ADD SWAP1 POP PUSH2 0x56E PUSH1 0x0 DUP4 ADD DUP5 PUSH2 0x51A JUMP JUMPDEST SWAP3 SWAP2 POP POP JUMP JUMPDEST PUSH2 0x57D DUP2 PUSH2 0x414 JUMP JUMPDEST DUP3 MSTORE POP POP JUMP JUMPDEST PUSH1 0x0 PUSH1 0x20 DUP3 ADD SWAP1 POP PUSH2 0x598 PUSH1 0x0 DUP4 ADD DUP5 PUSH2 0x574 JUMP JUMPDEST SWAP3 SWAP2 POP POP JUMP JUMPDEST PUSH1 0x0 PUSH1 0x20 DUP3 DUP5 SUB SLT ISZERO PUSH2 0x5B4 JUMPI PUSH2 0x5B3 PUSH2 0x3B1 JUMP JUMPDEST JUMPDEST PUSH1 0x0 PUSH2 0x5C2 DUP5 DUP3 DUP6 ADD PUSH2 0x435 JUMP JUMPDEST SWAP2 POP POP SWAP3 SWAP2 POP POP JUMP JUMPDEST PUSH32 0x4E487B7100000000000000000000000000000000000000000000000000000000 PUSH1 0x0 MSTORE PUSH1 0x32 PUSH1 0x4 MSTORE PUSH1 0x24 PUSH1 0x0 REVERT JUMPDEST PUSH32 0x43616E27742066756E642073656C6620636F6E74726163740000000000000000 PUSH1 0x0 DUP3 ADD MSTORE POP JUMP JUMPDEST PUSH1 0x0 PUSH2 0x630 PUSH1 0x18 DUP4 PUSH2 0x495 JUMP JUMPDEST SWAP2 POP PUSH2 0x63B DUP3 PUSH2 0x5FA JUMP JUMPDEST PUSH1 0x20 DUP3 ADD SWAP1 POP SWAP2 SWAP1 POP JUMP JUMPDEST PUSH1 0x0 PUSH1 0x20 DUP3 ADD SWAP1 POP DUP2 DUP2 SUB PUSH1 0x0 DUP4 ADD MSTORE PUSH2 0x65F DUP2 PUSH2 0x623 JUMP JUMPDEST SWAP1 POP SWAP2 SWAP1 POP JUMP JUMPDEST PUSH32 0x4E487B7100000000000000000000000000000000000000000000000000000000 PUSH1 0x0 MSTORE PUSH1 0x22 PUSH1 0x4 MSTORE PUSH1 0x24 PUSH1 0x0 REVERT JUMPDEST PUSH1 0x0 PUSH1 0x2 DUP3 DIV SWAP1 POP PUSH1 0x1 DUP3 AND DUP1 PUSH2 0x6AD JUMPI PUSH1 0x7F DUP3 AND SWAP2 POP JUMPDEST PUSH1 0x20 DUP3 LT DUP2 SUB PUSH2 0x6C0 JUMPI PUSH2 0x6BF PUSH2 0x666 JUMP JUMPDEST JUMPDEST POP SWAP2 SWAP1 POP JUMP INVALID LOG2 PUSH5 0x6970667358 0x22 SLT KECCAK256 0xEB PUSH10 0x695AF6B499C8B338BFEF MUL 0xA5 ORIGIN PUSH27 0xA1D2E27BE0C28EBF535AD1E7D6158E6264736F6C63430008130033 "
		},
		"gasEstimates": {
			"creation": {
				"codeDepositCost": "357600",
				"executionCost": "infinite",
				"totalCost": "infinite"
			},
			"external": {
				"AmountQuota()": "2473",
				"BindWalletToCourse(address,uint256)": "infinite",
				"CreateFundPlatform(address,uint256)": "infinite",
				"FundingCourse()": "2536",
				"getTrxRecord(uint256)": "infinite"
			}
		},
		"methodIdentifiers": {
			"AmountQuota()": "65bbcfac",
			"BindWalletToCourse(address,uint256)": "37c6b076",
			"CreateFundPlatform(address,uint256)": "197dc955",
			"FundingCourse()": "5883e32b",
			"getTrxRecord(uint256)": "7f02f806"
		}
	},
	"abi": [
		{
			"inputs": [
				{
					"internalType": "address",
					"name": "reciever",
					"type": "address"
				}
			],
			"stateMutability": "nonpayable",
			"type": "constructor"
		},
		{
			"inputs": [],
			"name": "AmountExceeded",
			"type": "error"
		},
		{
			"inputs": [],
			"name": "AmountQuota",
			"outputs": [
				{
					"internalType": "uint256",
					"name": "",
					"type": "uint256"
				}
			],
			"stateMutability": "view",
			"type": "function"
		},
		{
			"inputs": [
				{
					"internalType": "address",
					"name": "",
					"type": "address"
				},
				{
					"internalType": "uint256",
					"name": "",
					"type": "uint256"
				}
			],
			"name": "BindWalletToCourse",
			"outputs": [
				{
					"internalType": "string",
					"name": "FundingCourse",
					"type": "string"
				},
				{
					"internalType": "address",
					"name": "reciever",
					"type": "address"
				}
			],
			"stateMutability": "view",
			"type": "function"
		},
		{
			"inputs": [
				{
					"internalType": "address",
					"name": "_reciever",
					"type": "address"
				},
				{
					"internalType": "uint256",
					"name": "index",
					"type": "uint256"
				}
			],
			"name": "CreateFundPlatform",
			"outputs": [],
			"stateMutability": "payable",
			"type": "function"
		},
		{
			"inputs": [],
			"name": "FundingCourse",
			"outputs": [
				{
					"internalType": "address",
					"name": "",
					"type": "address"
				}
			],
			"stateMutability": "view",
			"type": "function"
		},
		{
			"inputs": [
				{
					"internalType": "uint256",
					"name": "index",
					"type": "uint256"
				}
			],
			"name": "getTrxRecord",
			"outputs": [
				{
					"internalType": "uint256",
					"name": "",
					"type": "uint256"
				}
			],
			"stateMutability": "view",
			"type": "function"
		}
	]
}